:1020000000800020459600002D9600002D960000CF
:1020100000000000000000000000000000000000C0
:102020000000000000000000000000002D960000ED
:1020300000000000000000002D96000099960000AE
:102040002D9600002D960000298600002D96000098
:102050002D9600002D960000C185000031960000ED
:102060002D960000799500002D9600002D96000019
:10207000D97600002D96000089950000C98F0000D8
:1020800005900000419000007D900000E193000069
:10209000B99000002D9600002D9600002D960000AE
:1020A0002D9600002D9600002D9600002D96000024
:1020B0000000000010B5064C2378002B07D1054B1B
:1020C000002B02D0044800E000BF0123237010BDA4
:1020D0008004002000000000B4530100044B10B540
:1020E000002B03D00349044800E000BF10BDC046E8
:1020F0000000000084040020B453010010B5124C0D
:10210000FA21200004F00EFEE1212000490204F033
:10211000FBFD0121200004F0F3FD002802D0200087
:1021200004F0F0FD01220021200004F05FFE02F027
:1021300039FA064B1B7A002B05D0642007F0F0FA21
:10214000002003F013F810BD18160020D011002055
:1021500010B5104C200000F00FFB002802D020002A
:1021600000F02CFB0C4C200000F03AFC002802D0C0
:10217000200000F0DFFF094C200001F019FC0028CE
:1021800002D0200001F068FE04F086FC044806F04E
:1021900041FA10BDB8050020E0050020D010002055
:1021A0003C1D002010B504008068002801D00DF00F
:1021B00057F906202056002802DB002107F0EAFC30
:1021C000200010BD70B5050080680E00002801D009
:1021D0000DF046F92B7BEC7BE41A631E9C41033423
:1021E0007443A4B2AC8020000DF030F9A860002840
:1021F00005D0220000210DF067F96E8070BDA88027
:102200006880FBE70322F8B58B110D118E10164084
:10221000134015400A40467382730026FF228A420B
:1022200076418268C47B077BC37305730670002AFE
:102230000AD0E21B5B1B51424A4159424B419A4230
:1022400002D04188FFF7BEFFF8BD0000F8B58368F3
:102250000400002B00D1E9E007F032FA2369C01A2C
:102260003128F9D972B6062318220120E356704F9F
:102270005343FA185268A6889040A268DB5D96190D
:10228000511C15786B4ADB019F186B4A9B1822780A
:10229000002A00D058E0803294463860C046C046DC
:1022A000C046C046C046C046C046C046C046C046FE
:1022B000C0462A4200D192E0C046C046C046C04651
:1022C000C046C046C046C046C046C046C046C046DE
:1022D000C046C046C046C046C046C046C046C046CE
:1022E000C046C046C046C046C046C046C04618604C
:1022F000C046C046C046C046C046C046C046C046AE
:10230000C046C046C046C046C046C046C046C0469D
:10231000C046C046C046C046C046C046C046C0468D
:10232000C046C046C046C046C046C046C046C0467D
:10233000521000D170E0D2B2C046C046C046C0467E
:10234000C046C046C046A8E7802294463860C046D2
:10235000C046C046C046C046C046C046C0462A42E7
:1023600021D0C046C046C046C046C046C046C04652
:10237000C046C046C046C046C046C046C046C0462D
:10238000C046C046C046C046C0461860521020D065
:10239000D2B2C046C046C046C046C046C046C0468F
:1023A000C046C046D2E71860C046C046C046C046D8
:1023B000C046C046C046C046C046C046C046C046ED
:1023C000C046C046C046C046C046C046C046C046DD
:1023D000DCE7B14226D20D7862460131B6E71860DB
:1023E000C046C046C046C046C046C046C046C046BD
:1023F000C046C046C046C046C046C046C046C046AD
:10240000C046C046C046C046C046C046C046C0469C
:10241000C046C046C0466BE7B14203D20D78624663
:1024200001313AE762B607F04BF92061F8BDC046CA
:10243000F8490100184400411444004170B5437844
:1024400004000D00002B06D006202056002802DBD9
:10245000002107F09FFB6378A571002B07D00121B5
:10246000280007F097FB0021280007F0C3FB70BD90
:1024700070B51500002204000E004270C271826027
:1024800002611900FFF7BEFE31002000FFF79AFE3F
:1024900029002000FFF7D2FF200070BD4388F7B568
:1024A0008B421AD9C379150C140A002B16D1E4B249
:1024B000EDB20194D6B2B446047BC67B8768B442C1
:1024C00018D1032359437F186A46037B1279FD54C0
:1024D000437BFA546246837BFA54F7BDFF263440AF
:1024E00035405C4316405D435E43240A2D0A019447
:1024F000360AE0E789007F18120E002B02D1D3B212
:10250000BB55E1E753431B0AFAE7F7B543880200DE
:1025100000208B4224D9D57B177B9368D479567BD6
:10252000927BBD421DD10330414359188F5D485DF8
:102530003F028D5C002C10D02100000209F04EFFFC
:1025400021000604380009F049FF0002064321007B
:10255000280209F043FF304302E0000438432843D7
:10256000FEBD890059188E5D485D3602CD5D8F5CD9
:10257000002C17D02100000209F030FF21000306D3
:102580002802019309F02AFF019D00040543210060
:10259000380209F023FF21000543300009F01EFF37
:1025A0000002DCE700062D0428433843D3E707B5D3
:1025B000002201920092130005F0F2F90EBD000016
:1025C0000022014B1A7070479D04002010B50100D5
:1025D000014807F00EFC10BDE004002010B501001A
:1025E0000A22024807F06DFC10BDC046E00400203E
:1025F00010B50A000100024807F063FC10BDC04698
:10260000E004002010B50100014807F00DFC10BDEA
:10261000E004002010B501000A22024807F055FC32
:1026200010BDC046E004002010B50100014807F0CD
:10263000E4FB10BDE004002010B5042307220821AC
:10264000014805F097FA10BDE0040020F8B5002617
:10265000204C214D0122310020002E7005F0A0FBFE
:102660000121200005F004FA1C492000FFF79FFF1C
:102670003100200005F018FA07F01CF80700F536C5
:10268000FF36200005F022FA002809D107F012F8E1
:10269000134BC01B984203D8300007F041F8F0E715
:1026A000200005F013FA002813D00E49200005F091
:1026B0001FFA002803D00C492000FFF778FF012300
:1026C000002120002B7005F039FA0849200007F09E
:1026D000ABFBF8BDE00400209C0400200C3401009A
:1026E0001027000020340100263401003834010096
:1026F0000D4B70B51B78002B15D00C4D280005F044
:10270000E5F900280FD00024280005F021FD00285D
:1027100009D0280005F03AFD431CF5D0044A631C9B
:102720001055DCB2F0E770BD9C040020E0040020EE
:102730009D04002010B50400034B1830036006F020
:102740009BFE200010BDC046E849010010B5040002
:10275000183006F089FE0022054B2000A361054BCE
:1027600022616361002363600023237210BDC046B1
:10277000E849010000003940037801220020013BB4
:10278000DBB29A424041C0B27047002303707047E9
:10279000022303707047000010B5054C2000FFF7BE
:1027A000D5FF044A0449200009F064FA10BDC04670
:1027B000B8050020000000203527000070B5040097
:1027C000416900690CF03CFC01002000183006F063
:1027D00086FE002845D00021606809F0BFFF324D19
:1027E00000283FD0237A002B3CD0002328002372FE
:1027F00001F00CF8280001F000F82C4E0100300028
:1028000007F0F7FA0A21300008F05AF9280000F022
:10281000F4FFFFF7F7FE280000F0EFFFFFF7F2FEEE
:10282000280000F0E6FF00281CD12378012B19D1E5
:10283000207045241E4D2100300008F041F901357B
:102840002000FFF7F1FE6B1E1C78002CF3D10A214B
:10285000300008F035F90A20FFF7E6FE1548FFF7CB
:10286000D1FE70BD207A4000404201300AF062FE85
:10287000616809F0D7FF10496060061C09F06EFF1F
:10288000002801D001232372301C0AF033FE01001E
:10289000280000F0DEFF2800FF2100F0FFFF2800E5
:1028A00001F00CF8DDE7C046700F00207C2200200C
:1028B0004A340100493401000000C842037870B571
:1028C000002B19D10E4C01330370200000F095FF4E
:1028D0000C4D0100280007F08CFA0A21280008F0AE
:1028E000EFF8200000F089FFFFF78CFE200000F0D9
:1028F00084FFFFF787FE70BD00230370FBE7C0462F
:10290000700F00207C220020037870B5002B19D1B5
:102910000E4C02330370200000F06FFF0C4D0100DD
:10292000280007F066FA0A21280008F0C9F82000FC
:1029300000F063FFFFF766FE200000F05EFFFFF788
:1029400061FE70BD00230370FBE7C046700F0020DE
:102950007C22002070B504000500B034A5420AD0E6
:10296000583C2000054B3030236306F0D3FDE0686F
:102970000CF076FDF2E7280070BDC046E849010082
:10298000F8B5FF2300250027002604009B00866180
:10299000C7618560C560056105628562436230304C
:1029A00006F0AEFDFF232667676726000B4A9B00F3
:1029B000E3678836231D25666566A566A5672263DD
:1029C0003000DD6706F09CFD044B200033602300DF
:1029D000B1331D70013B1D70F8BDC046E8490100D0
:1029E000B130037801220020023BDBB29A42404121
:1029F000C0B2704703000120B0331A7850401870FD
:102A000070470023B130037070470123B130037069
:102A100070470223B130037070470000F8B504001E
:102A20000700002501263034227D002A0BD15823CF
:102A30005D437F193B00553754331A7020003A70BC
:102A400006F088FDF8BD200006F070FD00280FD0CC
:102A5000164B2000998806F084FD002808D023003A
:102A600025331A78002A03D11E70200006F072FD6B
:102A70000E4B216A5B88E26999420CDA9A4205DBC7
:102A8000200006F048FD230024331E705834012D29
:102A9000D8D03500C8E79A42F8DA200006F05AFD8F
:102AA0002300002224331A70F0E7C046D011002022
:102AB0000122124B70B50E001968114D114204D15C
:102AC000002010491A6028606960022004F030F884
:102AD000040030000CF0EAFA02000B000BF0DAFC04
:102AE0002A686B680BF0CCF803000A00002C02D0B7
:102AF000802212068A181800110070BD9806002066
:102B0000A0060020000010410300A433C16C1B6824
:102B100070B51F4E99421EDDFFF7CAFF02000B0081
:102B2000306871680AF090FD3060716034687568D3
:102B3000002200232000290009F0DCFD002816D126
:102B40000022144B2000290009F0E8FD002810D0D5
:102B50000024104D0DE09942E8DA1900FFF7A8FFB4
:102B600002000B00306871680BF006FFDCE7002400
:102B7000002534607560290020000CF061FA064CD5
:102B80000100200000F065FE200000F097FE70BDFF
:102B9000A806002000005940700F0020F7B54268D9
:102BA00004000D00101E37D0E3698B4200DD0B00DE
:102BB000E361236AAB4200DA2B002362638900934E
:102BC000009963880B409B00D318186801930CF0A0
:102BD0006DFA02000B00206961690BF0CDFE060062
:102BE00028000F000CF062FA02000B0030003900E0
:102BF0000AF02AFD06000F0000222661676100230B
:102C000009F072FD002808D00023A3610120009B79
:102C100001336381019B1D60FEBD20880CF080FAAA
:102C200002000B00300039000BF02AF80CF008FA13
:102C3000A061EBE7582370B55943094B083144189C
:102C400058880321150009F0C9FBA26983B29B18BB
:102C5000AB4203DD29002000FFF7A0FF70BDC04696
:102C6000D0110020F8B5060004000025012772B637
:102C7000206806F01BFFA06462B6A26C2900300039
:102C8000FFF7D8FFE36C226A2365A36C9B1A0CD470
:102C9000E3642300E26C4433002A08DD1F705834DB
:102CA000012D00D1F8BD3D00E1E70023F0E700224F
:102CB0001A70F4E70300F7B5040080270500B83365
:102CC00008340193BF0038000CF0C0FB8023238040
:102CD0007F230021638000220023606023816381C1
:102CE00021616261A36198420ED01A00E361236200
:102CF00099B2802904D0606899000A500133F7E73F
:102D0000FF239B00E3612262802608492000013EE8
:102D1000FFF744FF002EF8D1019B58349C42D2D1DA
:102D200012232B600133AB65F7BDC0469D03000045
:102D300010B5054C2000FFF723FE044A044920008B
:102D400008F098FF10BDC046E005002000000020FC
:102D500055290000F8B50600543633780500254C97
:102D6000002B24D0200000F08EFD01281FD000236E
:102D700041253370204E214F2900380007F0A0FE76
:102D800001362800FFF750FC731E1D78002DF2D18C
:102D90000A21380007F094FE0A20FFF745FC0121C4
:102DA000200000F061FD200000F088FDF8BDAC358A
:102DB0002B78002BF7D0200000F065FD0028F2D022
:102DC00000232B7041250E4E0C4F2900380007F0D0
:102DD00077FE01362800FFF727FC731E1D78002DB3
:102DE000F2D10A21380007F06BFE0A20FFF71CFC25
:102DF0002900D5E7700F0020673401007C220020F5
:102E000070340100F0B58A4B85B00293894B2030B5
:102E10000393050000230093009B02AA9B009E5889
:102E2000854C3100200006F0E4FF30002026FFF73B
:102E3000CDFB824F3100200007F042FE0137300009
:102E4000FFF7F2FB7B1E1E78002EF3D14D212000F0
:102E500007F036FE4D20FFF7E7FB0A22009920001D
:102E600007F02FF80098FFF7B9FB754B3A361F00B3
:102E700001933100200007F023FE01373000FFF7F7
:102E8000D3FB7B1E1E78002EF3D10A22E96A2000B4
:102E900007F017F8E86AFFF7A1FB6A4F093631001F
:102EA000200007F00DFE01373000FFF7BDFB7B1E51
:102EB0001E78002EF3D10A220099200007F001F8B5
:102EC0000098FFF78BFB019F3A363100200007F096
:102ED000F7FD01373000FFF7A7FB7B1E1E78002EA1
:102EE000F3D10A22A96A200006F0EBFFA86AFFF7D7
:102EF00075FB554F09363100200007F0E1FD013721
:102F00003000FFF791FB7B1E1E78002EF3D10A22C2
:102F10000099200006F0D5FF0098FFF75FFB019FA6
:102F20003A363100200007F0CBFD01373000FFF7C3
:102F30007BFB7B1E1E78002EF3D10A22296820001D
:102F400006F0BFFF2868FFF749FB404F0936310004
:102F5000200007F0B5FD01373000FFF765FB7B1E51
:102F60001E78002EF3D10A220099200006F0A9FF56
:102F70000098FFF733FB019F3A363100200007F03D
:102F80009FFD01373000FFF74FFB7B1E1E78002EA0
:102F9000F3D12E00343631780A22200006F091FF5A
:102FA00030780926FFF71AFB294F3100200007F07F
:102FB00087FD01373000FFF737FB7B1E1E78002EA0
:102FC000F3D10A220099200006F07BFF0098FFF75A
:102FD00005FB3A363100200007F072FD3000FFF7A4
:102FE00023FB019B01330193013B1E78002EF1D19D
:102FF0002E0035360A223178200006F062FF307844
:10300000FFF7ECFA0921200007F05AFD0920FFF72D
:103010000BFB009B5835012B08D10A21200007F03B
:103020004FFD0A20FFF700FB05B0F0BD0123F2E6DB
:103030008B410100734101007C220020473C0100CC
:103040007F5001005B3401005E34010061340100F7
:1030500064340100F7B5040054300378002B50D0DD
:103060002100AC310B78002B4BD0220000234727E6
:103070002B4D553213705832137003700B702800AB
:1030800000F0C4FB280000F07DFC280000F016FCD6
:10309000244B0193244E3900300007F011FD380015
:1030A000FFF7C2FA019B01330193013B1F78002F08
:1030B000F0D10A21300007F003FD0A20FFF7B4FA2F
:1030C0001A4B473701933900300007F0F9FC3800FC
:1030D000FFF7AAFA019B01330193013B1F78002FF0
:1030E000F1D1280000F089FB0100300006F081FEDC
:1030F0000A21300007F0E4FC280000F07EFBFFF717
:1031000081FA0B4B5B78022B02D0032B04D0F7BD66
:103110002000FFF71FFEFAE72000FFF7F5FCF6E7B7
:10312000700F00207A3401007C22002086340100D8
:10313000D0110020030010B5B1331B780400002B20
:103140000FD0FFF78FFD2000FFF768FC2300B0339E
:103150001B78002B02D02000FFF754FE2000FFF761
:1031600079FF10BDF62310B50400044A5B00C2507D
:10317000C01806F081F9200010BDC046E8490100E2
:10318000F8B5040026000025012100220023ED36B9
:103190000560FF360C304942056041608160C260C5
:1031A0000361426183612030B042F5D106F05CF9E1
:1031B000F623424A5B00E250802300221B02236177
:1031C0003F4B2581A261E361220001232A32A572CF
:1031D000E57223851370230004272B331F70394BAE
:1031E0001E32E362384B2100236302231380937065
:1031F000D3700022354B6B312365354B0020A2651F
:10320000E3652300032268331A809A7005230B704C
:1032100030490026E1668021090421678C462E4949
:10322000A067E16721002D4888310F808F70CB7037
:10323000C9194D6008608B838B772948CB77203183
:10324000086020004D600621C83001808170210097
:103250002448CB310A70013108608020224F486039
:1032600020004E618F610721E8300180023001703B
:103270002100EB310A7022001C49EC321160FF2161
:10328000916080210020C905D06011612100184F94
:10329000FE31082057604B7323004881087315499D
:1032A000FC33196161469F615961F42300260E4F7A
:1032B0005B00D66217632000E554F8BDE8490100C1
:1032C0000000E03F3E350100008080000040C0006B
:1032D0000000044055350100000024408235010003
:1032E000A3350100CE35010000001440E535010092
:1032F00000FFFF00FE35010070B505000C00084816
:10330000084903F0ADFD0F2800D9002041016118E4
:103310002800083120220CF0CEF8280070BDC046ED
:1033200060160020FF03000010B50A0002480349A0
:1033300003F0B6FD10BDC04660160020FF0300007C
:1033400010B5054C2000FFF71BFF044A044920007C
:1033500008F090FC10BDC046B00600200000002020
:1033600065310000F7B50B880D0001920F2B18D9BD
:103370004524504D2100504807F0A2FB01352000A4
:10338000FFF752F96B1E1C78002CF3D1019B002B28
:1033900006D00A21484807F093FB0A20FFF744F9BA
:1033A000F7BD4B68002BFBD0C878434C013804288C
:1033B00012D808F0FFFF70615243030046263F4FCA
:1033C0003100200007F07CFB01373000FFF72CF9BB
:1033D0007B1E1E78002EF3D12B88632B06D830215C
:1033E000200007F06DFB3020FFF71EF92B88092B1A
:1033F00006D83021200007F063FB3020FFF714F9D6
:10340000202629880A22200006F05BFD2888FFF785
:10341000E5F82B4F3100200007F052FB0137300058
:10342000FFF702F97B1E1E78002EF3D16968200099
:1034300006F0DFFC6868FFF7C9F8A7E74526214FCB
:103440003100200007F03CFB01373000FFF7ECF8BB
:103450007B1E1E78002EF3D1BEE757261A4F31008F
:10346000200007F02DFB01373000FFF7DDF87B1E51
:103470001E78002EF3D1AFE74926144F310020000B
:1034800007F01EFB01373000FFF7CEF87B1E1E78D9
:10349000002EF3D1A0E744260D4F3100200007F0A5
:1034A0000FFB01373000FFF7BFF87B1E1E78002EA0
:1034B000F3D191E7E13401007C220020FC340100CB
:1034C000F93901000235010009350100123501000A
:1034D00018350100036810B5002B02D10300283312
:1034E000036001220168FFF73DFF10BDF8B504003D
:1034F0000D000E2900D9012523686E01A219D17A89
:10350000DA78914202D8002D04D0F8BD99782000D5
:1035100000F06AF86B1C08365B01A619E3182660F8
:1035200000221E685F6800233000390009F0DCF8D3
:1035300000280DD10022224B300039000AF0AAFFEA
:103540000BF07EFD01002000ED30FF3005F095FF0F
:10355000002D04D0012221682000FFF703FF23681B
:10356000DC78052CD1D12A25164E174F29003800BA
:1035700007F0A6FA01362800FFF756F8731E1D78EB
:10358000002DF2D10A21380007F09AFA013C0A20F6
:10359000FFF74AF8002CE6D1D826760035006543BF
:1035A0000A4BED18280005F075F9002803D000211A
:1035B000280005F076FB0134042CEFD1FEE7C0466D
:1035C00000408F401F3501007C220020B008002001
:1035D000030010B50833036000210248FFF786FF9F
:1035E00010BDC046B006002070B5036804009A788C
:1035F00000208A4219D1FE225200A25C82420FD0E2
:103600009A6801320CD0DB78084D032B05D9F423DE
:103610005B00E15C280001F093FA280001F04CFA0D
:1036200020000021FFF762FF012070BDDC110020A7
:1036300070B50500ED35FF350400280005F039FFB1
:10364000002809D0280005F023FF002804D02368B3
:1036500020009978FFF7C8FF70BD0000F0B50600A4
:10366000214C224D89B02100280006F0C2FB0A211E
:10367000280007F025FA2000FEF7C4FF3100684655
:10368000FFF73AFE6B469B78002B2BD05024184F47
:103690002100280007F014FA01372000FEF7C4FFCC
:1036A0007B1E1C78002CF3D1012269463000FFF705
:1036B00059FE104F45342100280007F001FA013768
:1036C0002000FEF7B1FF7B1E1C78002CF3D10A21ED
:1036D000280007F0F5F90A20FEF7A6FF21003000C8
:1036E000FFF722FE09B0F0BD8B3401007C220020E0
:1036F000BA340100D234010070B50B4D0B4CAD3D16
:10370000FF3D20000A4E8430066005F003FF206E66
:103710000BF0A6FE26602000B13CFF3C05F0FAFE4F
:10372000AC42EED170BDC046B0080020C40D0020F0
:10373000F449010010B5094805F058F8084805F0AB
:1037400055F8084805F052F8074805F04FF8074AC1
:103750000749002008F08EFA10BDC046B0080020CE
:10376000600A0020100C0020C00D00200000002086
:10377000F93600000023F0B5134C021D3C26134D12
:103780001370990069581500516000215E43104F75
:103790000835BE19675A2F8077180A316F600835CF
:1037A0003C29F7D1013338323C34062BE6D1802353
:1037B0005B020360AC23FF225B00C25203000430B3
:1037C000FC339865F0BDC0462000002004000020B6
:1037D000220000200200FC32062906DD06213823E3
:1037E00059430431411891657047CB43DB171940A9
:1037F000F5E7FC30836D18787047FC30836D5868AE
:103800007047382359434018806870470200FC32E3
:10381000936D1978042904D904309065936D187854
:103820007047382301314B430433C018F5E70200D9
:10383000FC32936D1978002905D11D30FF30906559
:10384000936D18787047382301394B430433C018FF
:10385000F5E70023994203DB642900DD64218BB284
:103860000380704700887047002903DA00234380F3
:10387000642306E00B1E00DD0123438000230029A2
:10388000F6DD038070474088704710B5040041881A
:103890004B425941FFF7E8FF608810BD0023994271
:1038A00003DBFF2900DDFF218BB2AC2252008352E3
:1038B0007047AC235B00C05A704700000300F0B5AE
:1038C00004000125FC339B6D028887B008331888FB
:1038D000691E05911989824242D38A4201D98242E6
:1038E00040D80026254F23000022FC33996D059B0C
:1038F00023489B1A01330493DB00CB185B689B5B66
:103900000393834202D1013292B2F0E700204219C0
:103910000132D2008B185B689B5B9C46184B9C4520
:1039200004D1013080B2F2E7012323E0049B525A14
:10393000D8006346415A00932088039B07F0B0F8F3
:103940000100380004F0CCFFAC235B003800E15AE2
:10395000B137023605F095F8FF37082EC3D105E0E0
:103960008A42BED201350833072DB0D12388322BCD
:10397000DAD90023638007B0F0BDC046B00800204C
:10398000FFFF0000802310B55B020360FFF796FF86
:1039900010BD00000022024BFC339A657047C04600
:1039A000700F002010B50368C9B21B68984710BD9E
:1039B000007870470123037070470023037070473D
:1039C0000122174B70B519680400164E114204D13C
:1039D000002015491A6030607160022003F0A8F8D9
:1039E000051E01D0E588ED0B0623E05E0BF05EFBC3
:1039F00002000B000AF04EFD326873680AF040F9CD
:103A0000002D06D102000B0022626362206A616A07
:103A100070BD80231B06C91820626162F6E7C046AC
:103A200000110020081100200004914070B506002C
:103A3000FFF7C6FFB26AF36A09F006FE0022002310
:103A400004000D0008F056FE00280AD100220F4B9A
:103A50002000290008F062FE002804D000240B4D4D
:103A600001E000240025B462F562094CFF2120002A
:103A7000FFF714FFB06AF16A0BF0E2FA01002000D0
:103A8000FFF7E7FE2000FFF719FF70BD0000594067
:103A9000700F00200022024B5A709A707047C04687
:103AA000D0100020F7B5324E05003000FFF7A5FE1C
:103AB000304C0100200006F09CF930002026FFF772
:103AC0009CFEFEF783FD2C4F3100200006F0F8FF2E
:103AD00001373000FEF7A8FD7B1E1E78002EF3D1C3
:103AE0000623E95E0A22200006F0EBF90623E85ED1
:103AF000FEF774FD214F20363100200006F0E0FF74
:103B000001373000FEF790FD7B1E1E78002EF3D1AA
:103B10000223200000932A6A6B6A06F0A7FA286A3B
:103B2000696A0BF08DFAFEF759FD154F203631000A
:103B3000200006F0C5FF01373000FEF775FD7B1E43
:103B40001E78002EF3D1A86AE96A0BF079FA0A22EE
:103B50000100200006F0B5F90A21200006F0B0FFB0
:103B6000A86AE96A0BF06CFAFEF754FDF7BDC0468F
:103B7000700F00207C220020813601008936010070
:103B800091360100F0B5384E85B00400062252216E
:103B9000300003F0A6FC0025300003F0FFFB0028F6
:103BA0000AD0300003F004FD02AB58550135012066
:103BB000EDB205F0B5FDEFE70327BC4602AB1E787A
:103BC000A6805878E08059799A788B103B40920013
:103BD0001A436B46019262469B88638102ABDF7891
:103BE0000B11BF0013403B4302AAA38117798A0936
:103BF000BF003A4301279446E2813A008A43F940E4
:103C00008F43617822746774002910D1618A019A08
:103C1000761AA18AA680401A218BE080521A62810E
:103C2000628B9B1A6246A381A38BD31AE3810E4C4D
:103C30005221200003F00CFC00212000FFF7B2FE0F
:103C4000012005F06DFD00212000FFF7ABFE0120F3
:103C500005F066FD200003F0A6FC052005F060FDE0
:103C6000280005B0F0BDC0467C1A0020F8B504005D
:103C700043251A4F1A4E2900300006F021FF013764
:103C80002800FEF7D1FC7B1E1D78002DF2D1012308
:103C900020006370FFF776FFA38865706382E38876
:103CA000104DA38263892383A3896383E389A3835C
:103CB00020242100300006F003FF01352000FEF72C
:103CC000B3FC6B1E1C78002CF3D10A21300006F0E7
:103CD000F7FE0A20FEF7A8FCF8BDC0469E3601009C
:103CE0007C220020AD360100F8B5427C0400037C44
:103CF000002A02D1002B1FD1F8BD002B19D042257C
:103D0000244E254F2900380006F0DAFE013628003F
:103D1000FEF78AFC731E1D78002DF2D10A213800AF
:103D200006F0CEFE0A20FEF77FFC2000FFF79EFF84
:103D3000E2E71A48FFF76AFD237C184C002B02D0FB
:103D40002000FFF774FD2000FFF757FD124D010022
:103D5000280006F04EF80A21280006F0B1FE2000E7
:103D6000FFF74BFDFEF74EFCFF212000FFF796FD0D
:103D70002000FFF707FEFA20400005F0D1FC0021EB
:103D80002000FFF78BFD2000FFF798FDC82005F00D
:103D9000C7FCB1E74D3601007C220020700F0020E7
:103DA0000022002370B50500026243628262C36292
:103DB000002000F05BFA254C5221200003F048FB64
:103DC000F0212000FFF7EEFD012005F0A9FC5521B0
:103DD0002000FFF7E7FD012005F0A2FC200003F022
:103DE000E2FB2000522103F033FBFB212000FFF710
:103DF000D9FD012005F094FC00212000FFF7D2FD41
:103E0000012005F08DFC200003F0CDFB0A2005F019
:103E100087FC2800FFF7B6FE2800FFF727FF0C4CB1
:103E20002000FFF7EAFC0B4D0100280005F0E1FF40
:103E30000A21280006F044FE2000FFF7DEFCFEF712
:103E4000E1FB2000FFF79EFD70BDC0467C1A0020FC
:103E5000700F00207C22002070B50D4D04002B78DF
:103E6000002B03D1FFF79CFF01232B702000FFF7ED
:103E700089FE00280BD02000FFF7D8FD2000FFF7B7
:103E800033FFA378002B02D02000FFF70BFE70BD9C
:103E900010110020704700006C22C021FF324281C7
:103EA000174B02220360C900164B41821E2110B538
:103EB000436007240023FF328281013AFF3AC17632
:103EC0008118037203820375C37503764376837684
:103ED00043778377C377C2810277CC77811CCB7716
:103EE000C11C0333CB77011DCB77431DDA77002349
:103EF0000365C365436503668365436610BDC046BD
:103F00006B0101010100000610B50400C06C04340F
:103F100009F010FBE16F08F01FFE024908F082FC77
:103F200010BDC0460000C84110B5054C2000FFF789
:103F3000B3FF044A0449200007F09CFE10BDC046B0
:103F40001411002000000020953E0000F7B5170076
:103F50000E000F4C0193200008AB1D7803F078FA97
:103F60003900200003F0C2FA0021200003F0E3FA38
:103F70002A003100200003F0B4FA019E7519AE4208
:103F800005D0200003F014FB30700136F7E7F7BDD1
:103F90007C1A002013B50C00009301781300220056
:103FA000FFF7D4FF13BD000013B5040006236A46D3
:103FB0002821FFF7EFFFA3790D4A9B0080219B5832
:103FC000002263670902130068466B445B78805CDB
:103FD0001B020343500020180B4204D102328362BB
:103FE000062AF0D113BDDB439BB2DB43F6E7C046A4
:103FF0008801002037B50A4A031D126801ADDA674F
:10400000152102232A000400FFF7C4FF2B881AB2EF
:10401000002A01DBE36437BDDB439BB2DB43F9E7F6
:10402000B40100201FB50F2401236C440A0001785D
:1040300000932300FFF78AFF207804B010BD10B56D
:104040002721FFF7EFFF0123184010BD10B52721EE
:10405000FFF7E8FF4007C00F10BD13B50C00009339
:10406000817A13002200FFF771FF13BD73B50500BD
:104070008026002406236A461821FFF7EEFFAB7C5A
:104080000E4A9B009B583602AB6723006B4458785E
:104090006B461B5D0002184309F04CFA09F02AFA3E
:1040A0006300EB18304204D102345863062CECD183
:1040B00073BDC04380B2C043F6E7C04698010020FC
:1040C0001FB50F2401236C440A00817A009323005A
:1040D000FFF73CFF207804B010BD10B52721FFF793
:1040E000EFFF8007C00F10BD13B50C000093C17E19
:1040F00013002200FFF72AFF13BD000073B505006F
:104100008026002406236A462821FFF7EDFFEB7F77
:104110000E4A9B009B583602EB6723006B4458788D
:104120006B461B5D0002184309F004FA09F0E2F93E
:104130006300EB18304204D102341864062CECD131
:1041400073BDC04380B2C043F6E7C046A40100205F
:104150001FB50F2401236C440A00C17E0093230085
:10416000FFF7F4FE207804B010BD10B52721FFF74B
:10417000EFFF0007C00F10BD10B50400FFF75FFF91
:10418000002802D02000FFF70FFF2000FFF7A5FF57
:10419000002802D02000FFF769FF2000FFF7E5FFAD
:1041A000002802D02000FFF7A9FF2000FFF74EFFF4
:1041B000002802D02000FFF71DFF10BD10B504003D
:1041C00040680BF04DF9200010BD000070B5174D90
:1041D000174C2A782000002102F062FE6A78200045
:1041E000012102F05DFEAA782000022102F058FEB3
:1041F0002A792000032102F053FEAA79200004212D
:1042000002F04EFEEA792000052102F049FE2A7AEA
:104210002000062102F044FE6A7A0721200002F005
:104220003FFE200002F04CFE70BDC046D0110020C1
:104230006016002010B500210948FFF775F802222A
:10424000084B1A705A70962292005A802D3AFF3A03
:104250009A800222FF32DA80034A1A8110BDC046DA
:10426000B0060020D01100200107000010B50400A6
:1042700001210A2005F08EFC21000A2005F0BAFC7D
:10428000642005F04DFA10BD00230D4810B5002242
:104290000360436083600023026143610023094A95
:1042A0000949C261094A8361036207F0E3FC022203
:1042B000074BFF32DA80013AFF3A1A8110BDC0463F
:1042C000A811002000007F44BD4100000000002034
:1042D000D011002070B5104C104D2000290005F0C1
:1042E00088FD0A21200006F0EBFB2800FEF78AF982
:1042F000C8210022C9000A4802F0ACFE094D200086
:10430000290005F076FD0A21200006F0D9FB2800DF
:10431000FEF778F970BDC0467C22002046380100C7
:10432000401D00205B38010070B51E4C200002F0DB
:10433000BBFD002835D00021200002F091FD1A4D70
:1043400001212870200002F08BFD022168702000FE
:1043500002F086FD03216880200002F081FD042127
:10436000A880200002F07CFD0521A871200002F049
:1043700077FD0621E871200002F072FD0721287206
:10438000200002F06DFD094C6872094D21002800E3
:1043900005F02FFD0A21280006F092FB2000FEF711
:1043A00031F970BD60160020D01100208E37010059
:1043B0007C22002070B5174C174D2100280005F015
:1043C00018FD2000FEF702F9144C0A22617828003B
:1043D00005F077FD0A21280006F072FB6078FEF7F1
:1043E00019F960780138042807D807F0E3FF0307BC
:1043F0000B060F000A48FEF787FA70BD0948FEF762
:1044000004FBFAE70748FEF704FBF6E70648FFF768
:10441000D1FAF2E7313801007C220020D0110020CF
:10442000B8050020E0050020D010002070B5FFF78F
:104430007BFF114B114C5B7A072B0FD0104D2000E6
:10444000290005F0D6FC0A21200006F039FB2800DF
:10445000FEF7D8F8FFF7EEFEFFF7B8FE094D200093
:10446000290005F0C6FC0A21200006F029FB2800DF
:10447000FEF7C8F870BDC046D01100207C22002095
:10448000C4360100EE360100F7B53C4F3B78013BE6
:10449000012B03D902233B70FFF798FE384D394CAE
:1044A0002900200005F0A5FC0A21200006F008FBE9
:1044B0002800FEF7A7F83B78012B44D10025FF2206
:1044C00000950D331100304804F0C0FBFF220F238C
:1044D000110000952D4804F0B9FBFF2210231100B4
:1044E00000952B4804F0B2FBFF2200951123110028
:1044F000284804F0ABFB0026D8256D007543224BFD
:104500005D19280004F0C6F9002828D104212248AA
:10451000FEF7ECFF214D2000290005F06AFC0A217E
:10452000200006F0CDFA2800FEF76CF81C4D2000A4
:10453000290005F05EFC0A21200006F0C1FA2800DF
:10454000FEF760F8F7BD022BD5D1FF22013B0093A7
:1045500011000D330C4804F079FB0025B6E7F9791A
:1045600028004B1E9941C9B204F09BFB013628007C
:1045700004F07AFA042EBFD1D8E7C046D01100204B
:10458000B13701007C220020B0080020600A002022
:10459000100C0020C00D0020B0060020C63701001E
:1045A000E3370100E121F8B53D4C4902200006F057
:1045B0001FFBFEF74BF83B49200005F035FCFA21C4
:1045C000394F00223800890104F068F805003749A6
:1045D000200005F00EFC0A222900200005F071FCE5
:1045E0003349200005F020FC200005F00BFC314889
:1045F00002F00EFF02F094FA2F4D2800FEF7E8FFBC
:104600002800FFF72BF802212800FEF76FFFFFF7C5
:104610000DFFFFF75FFEFFF737FF00F0C7FA274EE9
:104620003000FFF7A7F830000021FFF7D3F8012191
:104630003000FFF719F93000FFF740F92048FEF786
:1046400039FBFFF7B7FE1F4E2000310005F0D1FB0C
:104650000A21200006F034FA3000FDF7D3FF1A4E8D
:104660002000310005F0C5FB0A21200006F028FAE1
:104670003000FDF7C7FF02212800FEF7B5FF380024
:1046800003F0C8FF114D2000290005F0B2FB0A21FC
:10469000200006F015FA2800FDF7B4FFF8BDC0466B
:1046A0007C220020083701003C1D00201D3701003E
:1046B000493701007C1A0020B0060020700F00204E
:1046C000E00500205837010064370100773701000A
:1046D000F0B585B001AD2A003F4B404E13CB13C25D
:1046E0003F4C3100200005F084FB3000FDF76EFFE9
:1046F0000A220221200005F0E4FB0A21200006F036
:10470000DFF90220FDF786FF364E2000310005F06C
:1047100070FB3000FDF75AFF0A220121200005F04E
:10472000D0FB0120FDF75AFF2F4E2000310005F08D
:1047300060FB3000FDF74AFF0A220121200005F04E
:10474000C0FB0120FDF74AFF3100200005F051FBBE
:1047500030004226FDF73AFF0A220021200005F032
:10476000B0FB0A21200006F0ABF90020FDF752FF54
:104770001E4F3100200006F0A3F901373000FDF78D
:1047800053FF7B1E1E78002EF3D10A21200006F075
:1047900097F90A20FDF748FF154F483631002000F1
:1047A00006F08EF901373000FDF73EFF7B1E1E78C4
:1047B000002EF3D10F4E200033789B00E95805F00E
:1047C00018FB0A21200006F07BF933789B00E8589B
:1047D000FDF718FF05B0F0BDB8360100F73701004E
:1047E0007C220020003801005938010010380100F7
:1047F0002B380100D0110020F8B5AB2307000400CE
:104800009B006C37C5180F4EAF420BD0483D2800B7
:10481000AE63383004F030FE28002E62203004F001
:104820002BFEF0E72000E6655C3004F025FE20005A
:104830006664443004F020FE2000FDF7B3FC200045
:10484000F8BDC046E849010070B500250400456088
:104850008560C560056145610576C561203004F05D
:1048600003FE01232000054E65632662238638304F
:1048700004F0FAFDA663200070BDC046E8490100BF
:1048800070B50400522303220121FDF7F1FD00233E
:10489000200063612430FFF7D7FFAB2325009B0086
:1048A0006C35E61828004835FFF7CEFFAE42F9D147
:1048B000AB2200239200A3500122611C2376CA7709
:1048C000FE218905E161611DCB77FA218900A16391
:1048D00021003C31A362236320000A7023640A8311
:1048E000A36570BDF7B500230700451C04000191C6
:1048F000EB77461D3C379A4238D0027E483353430B
:104900001A00C3186C3282181800F17F6C300170E5
:10491000A16A181D1967E16A5967216B9967616B74
:10492000D967A16BC167397880300170216C416013
:104930002000A16C44305162E16C9162017B100057
:104940002C30017054218C46A4446146180009881B
:104950009C300180A16DA0331960236E3832536002
:10496000636E936023005C33187B10734820019BB7
:1049700058430200AB236C32A2189B00E2509C46C5
:10498000231819006C310978F177196FA162596FFA
:10499000E162996F2163D96F6163191DC96FA163CA
:1049A0001900843109783970190088310968216447
:1049B000516AA164916AE16411002C310E782100E2
:1049C00044310E7319009C310E88210054310E8041
:1049D000A0331968D36BA1652366136C636613005B
:1049E00038331E7B23005C331E736646002903D0D8
:1049F000A430201804F041FD1F20A2595169CB17A3
:104A000003405B185B11D361012313861376EB77A8
:104A1000F7BDAB239B0070B50400C05800284AD0F6
:104A2000631D0278DB7F9A421BD14368A26A9342DE
:104A300017D18368E26A934213D1C368226B934211
:104A40000FD10369626B93420BD14369A26B93420E
:104A500007D1C369226C934203D1436BA26D934289
:104A600029D00023651CEB77383004F022FD0028A4
:104A700009D0AB26B600A059383004F029FDA3595F
:104A80005A6B101A5863AB26B600A059203004F0B8
:104A900010FD002803D0A059203004F019FD012397
:104AA000EB77237E062B01D801332376217E01226A
:104AB0002000FFF717FF70BD037E10B5002B01D05B
:104AC000013B0376017E0022FFF70CFF10BD436916
:104AD00010B599B20400FDF718FDAB239B00E35815
:104AE0009A68904207D06369200099B2FDF7D6FC1E
:104AF0002000FDF7ABFB10BDF8B5C56988780E0046
:104B000008F018FD291C08F0FFF907F055FEC7B2A0
:104B1000707808F00FFD291C08F0F6F907F04CFE3C
:104B2000C4B2307808F006FD291C08F0EDF907F052
:104B300043FE3F0424023C43C0B22043F8BD0000C2
:104B400010B50400080008F03FFD0E4908F004F815
:104B50002100E06128312000FFF7CEFF2100E06254
:104B600030312000FFF7C8FF60632000FFF751FFDE
:104B70000021E06907F0F2FD002802D02000FFF7D5
:104B8000A6FF10BD0000C84210B5054C2000FFF77D
:104B900077FE044A0449200007F06CF810BDC046B7
:104BA000DC11002000000020F94700004122414BA9
:104BB00030B51A70383ADA603F4A44241A61432209
:104BC0001A751A00283214703C4A02349A631A008B
:104BD0003C32147004229A64394A0121DA641A00C2
:104BE0006418503214700622DA65364A64181A6660
:104BF0001A00180064321470032208301A67C26762
:104C00001A003148883210601A004F208C32107020
:104C10001A00983211601A004018A03210701A0061
:104C20002A4CAC3214305C6710601C001A004D2511
:104C30007834B432123825701962596310701A0032
:104C4000C03211601A002248C43210601A0053208A
:104C5000C83210701A00AC30D43210601A00AB3871
:104C6000DC3210701A001B48E83210601A001A4833
:104C7000EC3210601A005520F03210701A008020BB
:104C8000FC32C00010601548582450601800FF30F6
:104C90004471134C516194612324447611481C34AF
:104CA000D062962040001C540F4B9162D163136474
:104CB00030BDC046D0140020A55E0000694E000043
:104CC00095610000A5630000B5650000AD4E0000D1
:104CD000D15A000088130000AD4F00001D6700008E
:104CE00029500000716700006D5100000300203B57
:104CF000DBB21F2B05D8074ADA4001231900914384
:104D000006D0002339224138C0B282425B41DBB277
:104D1000180070470910FF8310B50C00010004480B
:104D20000BF030FA2060431E9841C0B210BDC0465F
:104D30008D140020030010B55B780130303B092B47
:104D400005D800210CF096F80AF07AF910BD012080
:104D50004042FBE770B501260D4D0E4C4535FF3541
:104D600076422379002B0ED0236830005A1C03DBD7
:104D7000A068984200DD1800E3682060002B02D094
:104D80009847002323711434AC42EAD170BDC04669
:104D9000D0140020D41400201FB50422694601F06D
:104DA000F1FE00280FD00099084803F099FD019901
:104DB000074803F095FD0299064803F091FD039919
:104DC000054803F08DFD05B000BDC046B0080020C9
:104DD000600A0020100C0020C00D0020F7B500254F
:104DE00010260195142464427443144B01A9E4185D
:104DF00023004133FF331878FFF78EFF071E0BD0D7
:104E00000198FFF797FF23004533FF331860012314
:104E10003D004934FF342370013E002EE2D1084C9E
:104E2000002D06D1074B5B78042B02D12000FFF741
:104E3000B3FF00232370FDF7C3FBF7BDD0140020A0
:104E40008D140020D01100200021054A054B493265
:104E5000FF321970996014339342FAD17047C046FB
:104E6000D0140020D814002070B544240C4D0D4EF1
:104E70002100300005F024FE01352000FDF7D4FBB1
:104E80006B1E1C78002CF2D10A21300005F018FEB0
:104E90000A20FDF7C9FB0448FDF710FD70BDC046B0
:104EA000513401007C220020B8050020F7B5384BB2
:104EB000384C0093384B0193431C25D16A46374D3B
:104EC00020002B78013B9B00995804F092FF6A4622
:104ED0002B782025013B9B009858FDF777FB304E3F
:104EE0002900200005F0ECFD01362800FDF79CFBB1
:104EF000731E1D78002DF3D10A21200005F0E0FD7E
:104F00000A20FDF791FBF7BD431E012B31D84E2639
:104F1000224D2870FFF75AF9224F3100200005F08A
:104F2000CFFD01373000FDF77FFB7B1E1E78002E82
:104F3000F3D1FFF7A9FA6A462B782000013B9B00CA
:104F4000995804F056FF6A462B782025013B9B00B8
:104F50009858FDF73BFB124E2900200005F0B0FDEC
:104F600001362800FDF760FB731E1D78002DF3D17C
:104F7000C2E748250C4E2900200005F0A1FD0136AE
:104F80002800FDF751FB731E1D78002DF3D1B3E708
:104F9000703801007C22002076380100D0110020FA
:104FA000723A0100783A01008D3A010070B5431C55
:104FB00003D0194B9880FFF709F94825174E184C74
:104FC0002900200005F07CFD01362800FDF72CFBB0
:104FD000731E1D78002DF2D10F4D0A22A9882000E2
:104FE00004F06FFFA8886D25FDF7F8FA0D4E290033
:104FF000200005F065FD01362800FDF715FB731E46
:105000001D78002DF3D10A21200005F059FD0A205A
:10501000FDF70AFB70BDC046D0110020E138010049
:105020007C220020EE38010070B51148FDF7E9FC44
:10503000002245240F4B5A70FFF7C8F80E48FDF7C1
:10504000A4FB0E4D0E4E2100300005F039FD013558
:105050002000FDF7E9FA6B1E1C78002CF2D10A2122
:10506000300005F02DFD0A20FDF7DEFA70BDC046C8
:10507000E0050020D0110020B8050020D238010042
:105080007C22002070B5324B324C5878013804280D
:1050900019D807F08FF903202F3E4D0041252E4EE1
:1050A0002900200005F00CFD01362800FDF7BCFAB0
:1050B000731E1D78002DF3D10A21200005F000FD9C
:1050C0000A20FDF7B1FA0A21200005F0F9FC0A20B8
:1050D000FDF7AAFA70BD5325204E2900200005F0E7
:1050E000EFFC01362800FDF79FFA731E1D78002D96
:1050F000F3D1E1E750251A4E2900200005F0E0FC2D
:1051000001362800FDF790FA731E1D78002DF3D1AB
:10511000D2E74325134E2900200005F0D1FC0136CB
:105120002800FDF781FA731E1D78002DF3D1C3E727
:1051300048250D4E2900200005F0C2FC013628004C
:10514000FDF772FA731E1D78002DF3D1B4E7C04647
:10515000D01100207C220020F13801001C39010010
:105160004E39010086390100AE390100F7B520251E
:10517000FFF7AEFAE34C0A21200005F0A1FC0A205B
:10518000FDF752FAE04E2900200005F099FC0136A7
:105190002800FDF749FA731E1D78002DF3D10A216E
:1051A000200005F08DFC0A20FDF73EFA5F263C3515
:1051B00031002000013D05F083FCEDB23000FDF729
:1051C00033FA002DF4D1D14B0A351E00009329008B
:1051D000200005F075FC01362800FDF725FA731E46
:1051E0001D78002DF3D1CA4E47352900200005F067
:1051F00067FC01362800FDF717FA731E1D78002D95
:10520000F3D10A21200005F05BFC0A20FDF70CFA1F
:10521000C04E433537002900200005F051FC01370E
:105220002800FDF701FA7B1E1D78002DF3D10A211D
:10523000200005F045FC0A20FDF7F6F9202747215C
:10524000200005F03DFC4720FDF7EEF90A22290079
:10525000200004F036FE2800FDF7C0F9AE4B0193A4
:105260003900200005F02CFC3800FDF7DDF9019B2A
:1052700001330193013B1F78002FF1D12021200041
:1052800005F01EFC2020FDF7CFF9A44F29003800BF
:10529000FEF7B7FA0100200004F0ABFD290038004A
:1052A000FEF7AFFAFDF792F90A21200005F008FC9D
:1052B00001350A20FDF7B8F9062DBFD10A212000DB
:1052C00005F0FEFB0A20FDF7AFF9954F40352900A8
:1052D000200005F0F5FB01372800FDF7A5F97B1E3E
:1052E0001D78002DF3D10A21200005F0E9FB0A20EA
:1052F000FDF79AF9370043352900200005F0E0FB5F
:1053000001372800FDF790F97B1E1D78002DF3D1A1
:105310000A21200005F0D4FB0A20FDF785F9814F12
:1053200046352900200005F0CBFB01372800FDF7AA
:105330007BF97B1E1D78002DF3D10A21200005F09A
:10534000BFFB0A20FDF770F9774F46352900200092
:1053500005F0B6FB01372800FDF766F97B1E1D78C6
:10536000002DF3D10A21200005F0AAFB0A20FDF749
:105370005BF96E4F46352900200005F0A1FB01378F
:105380002800FDF751F97B1E1D78002DF3D10A216D
:10539000200005F095FB0A20FDF746F90A212000C0
:1053A00005F08EFB0A20FDF73FF9614F4D352900CE
:1053B000200005F085FB01372800FDF735F97B1E3D
:1053C0001D78002DF3D10A21200005F079FB0A2079
:1053D000FDF72AF9370043352900200005F070FB5E
:1053E00001372800FDF720F97B1E1D78002DF3D131
:1053F0000A21200005F064FB0A20FDF715F94D4F46
:105400004D352900200005F05BFB01372800FDF732
:105410000BF97B1E1D78002DF3D10A21200005F029
:105420004FFB0A20FDF700F9434F4D35354C29005D
:10543000200005F045FB01372800FDF7F5F87B1E3D
:105440001D78002DF2D10A21200005F039FB0A2039
:10545000FDF7EAF8394F4D352900200005F030FB03
:1054600001372800FDF7E0F87B1E1D78002DF3D1F1
:105470000A21200005F024FB0A20FDF7D5F8304F63
:105480004D352900200005F01BFB01372800FDF7F2
:10549000CBF87B1E1D78002DF3D10A21200005F0EA
:1054A0000FFB0A20FDF7C0F8264F4D3529002000DC
:1054B00005F006FB01372800FDF7B6F87B1E1D78C6
:1054C000002DF3D10A21200005F0FAFA0A20FDF799
:1054D000ABF81D4F54352900200005F0F1FA0137D3
:1054E0002800FDF7A1F87B1E1D78002DF3D10A21BD
:1054F000200005F0E5FA0A20FDF796F8134F553520
:1055000026E0C0467C220020DE3B01000F3C01006B
:10551000123C0100283C0100403C0100700F0020BB
:105520004A3C0100683C0100A23C0100D23C010061
:10553000003D01001C3D01003B3D0100623D0100BA
:10554000893D0100C63D0100053E0100293E0100E4
:105550002900200005F0B4FA01372800FDF764F8AF
:105560007B1E1D78002DF3D10A21200005F0A8FA3A
:105570000A20FDF759F80A21200005F0A1FA0A20B7
:10558000FDF752F8DD4F41352900200005F098FA6B
:1055900001372800FDF748F87B1E1D78002DF3D158
:1055A0000A21200005F08CFA0A20FDF73DF843356A
:1055B0002900200005F084FA01362800FDF734F8B0
:1055C000731E1D78002DF3D10A21200005F078FA12
:1055D0000A20FDF729F8CA4E48352900200005F0B9
:1055E0006FFA01362800FDF71FF8731E1D78002D95
:1055F000F3D10A21200005F063FA0A20FDF714F820
:10560000C04E48352900200005F05AFA013628001E
:10561000FDF70AF8731E1D78002DF3D10A21200032
:1056200005F04EFA0A20FCF7FFFFB74E4835290077
:10563000200005F045FA01362800FCF7F5FF731E3F
:105640001D78002DF3D10A21200005F039FA0A2037
:10565000FCF7EAFFAD4E41352900200005F030FA95
:1056600001362800FCF7E0FF731E1D78002DF3D1F2
:105670000A21200005F024FA0A20FCF7D5FFA44EE9
:1056800041352900200005F01BFA01362800FCF7FF
:10569000CBFF731E1D78002DF3D10A21200005F0E9
:1056A0000FFA0A20FCF7C0FF9A4E4135290020006E
:1056B00005F006FA01362800FCF7B6FF731E1D78C8
:1056C000002DF3D10A21200005F0FAF90A20FCF799
:1056D000ABFF914E41352900200005F0F1F901366C
:1056E0002800FCF7A1FF731E1D78002DF3D10A21BD
:1056F000200005F0E5F90A20FCF796FF874E4135BA
:105700002900200005F0DCF901362800FCF78CFFA9
:10571000731E1D78002DF3D10A21200005F0D0F969
:105720000A20FCF781FF7E4E41357E4C2900200087
:1057300005F0C6F901362800FCF776FF731E1D78C8
:10574000002DF2D10A21200005F0BAF90A20FCF759
:105750006BFF754E41352900200005F0B1F9013687
:105760002800FCF761FF731E1D78002DF3D10A217C
:10577000200005F0A5F90A20FCF756FF6B4E4135D5
:105780002900200005F09CF901362800FCF74CFFA9
:10579000731E1D78002DF3D10A21200005F090F929
:1057A0000A20FCF741FF624E41352900200005F038
:1057B00087F901362800FCF737FF731E1D78002D8E
:1057C000F3D10A21200005F07BF90A20FCF72CFF19
:1057D000584E23352900200005F072F901362800C3
:1057E000FCF722FF731E1D78002DF3D10A21200043
:1057F00005F066F90A20FCF717FF4F4E3F352900E8
:10580000200005F05DF901362800FCF70DFF731E3E
:105810001D78002DF3D10A21200005F051F90A204E
:10582000FCF702FF0A21200005F04AF90A20FCF7E4
:10583000FBFE009E0A352900200005F041F90136E3
:105840002800FCF7F1FE731E1D78002DF3D13B4EAE
:1058500045352900200005F033F901362800FCF712
:10586000E3FE731E1D78002DF3D10A21200005F000
:1058700027F90A20FCF7D8FE314E483529002000D0
:1058800005F01EF901362800FCF7CEFE731E1D78C8
:10589000002DF3D10A21200005F012F90A20FCF7AF
:1058A000C3FE284E47352900200005F009F90136CE
:1058B0002800FCF7B9FE731E1D78002DF3D10A21D4
:1058C000200005F0FDF80A20FCF7AEFE1E4E47351D
:1058D0002900200005F0F4F801362800FCF7A4FEAA
:1058E000731E1D78002DF3D10A21200005F0E8F881
:1058F0000A20FCF799FE154E463529E05A3E010074
:10590000783E0100AC3E0100CD3E0100ED3E0100BD
:105910001D3F0100563F01008D3F0100AF3F0100D8
:10592000E23F01007C2200201840010054400100A9
:1059300096400100B5400100DC4001000541010036
:105940000E410100434101005E4101007A41010026
:105950002900200005F0B4F801362800FCF764FEA9
:10596000731E1D78002DF3D10A21200005F0A8F840
:105970000A20FCF759FE4E4E46352900200005F05E
:105980009FF801362800FCF74FFE731E1D78002D8E
:10599000F3D10A21200005F093F80A20FCF744FE19
:1059A000444E46352900200005F08AF801362800CB
:1059B000FCF73AFE731E1D78002DF3D10A2120005A
:1059C00005F07EF80A20FCF72FFE3B4E46352900F5
:1059D000200005F075F801362800FCF725FE731E3F
:1059E0001D78002DF3D10A21200005F069F80A2066
:1059F000FCF71AFE314E46352900200005F060F80C
:105A000001362800FCF710FE731E1D78002DF3D11F
:105A10000A21200005F054F80A20FCF705FE284E64
:105A20004135284C2900200005F04AF801362800AD
:105A3000FCF7FAFD731E1D78002DF2D10A2120001B
:105A400005F03EF80A20FCF7EFFD0A35290020009A
:105A500005F036F82800FCF7E7FD009B01330093C2
:105A6000013B1D78002DF1D1174BDB79002B14D1B0
:105A7000164E4D352900200005F022F80136280089
:105A8000FCF7D2FD731E1D78002DF3D10A212000F2
:105A900005F016F80A20FCF7C7FDFFF7F3FA0A2114
:105AA000200005F00DF80A20FCF7BEFDF7BDC0464A
:105AB00091410100C1410100E24101001742010092
:105AC0003B4201007C220020D011002060420100F6
:105AD00070B552240D4D0E4E2100300004F0F0FF41
:105AE00001352000FCF7A0FD6B1E1C78002CF2D1C4
:105AF0000A21300004F0E4FF0A20FCF795FDFEF7D0
:105B000099FB2000FFF732FB70BDC046FA3A010056
:105B10007C22002010B5124894B002F029FF0090BA
:105B2000104802F025FF01900F4802F021FF02907B
:105B30000E4802F01DFF04AA03900421684601F0FC
:105B400008F80B4C04A9200004F053F90A212000A6
:105B500004F0B6FF04A8FCF755FD14B010BDC04614
:105B6000B0080020600A0020100C0020C00D0020AA
:105B70007C220020F7B528260A25122003F096FF84
:105B8000280003F0CDFD122003F090FF070028004D
:105B900003F0C6FD132003F089FF280003F0C0FDC9
:105BA000132003F083FF184C2A00390001902000D5
:105BB00004F087F93800FCF711FD144F200039007C
:105BC00004F017F93800FCF701FD2A0001992000C4
:105BD00004F077F92900200004F072FF0198FCF727
:105BE00019FD013E642003F09BFD002EC5D1084D38
:105BF0002000290004F0FDF80A21200004F060FFD5
:105C00002800FCF7FFFCF7BD7C220020F8390100DA
:105C1000B534010070B50D4D0D4C2800210004F085
:105C2000E8F80A21280004F04BFF2000FCF7EAFC0A
:105C3000084803F02AF8084803F027F8074803F05B
:105C400024F8074803F021F870BDC0467C220020EC
:105C5000BD380100B0080020600A0020100C0020B0
:105C6000C00D00200023F0B50A2685B00393814CB7
:105C7000814D2000290004F0BCF82800FCF7A6FCA8
:105C800032000399200004F01CF93100200004F0D8
:105C900017FF0398FCF7BEFC784D2000290004F0A4
:105CA000A8F82800D825FCF791FC039B6D005D4304
:105CB000734BED18280002F0CFFE320001002000E7
:105CC00004F019F93100200004F0FAFE280002F077
:105CD000C3FEFCF79FFC6B4F2000390004F089F8ED
:105CE0003800FCF773FC280003F0D2F809F04AFAF8
:105CF0000B00022102000091200004F0B7F93100EE
:105D0000200004F0DDFE280003F0C2F807F0F2FBEB
:105D1000FCF780FC5C4F2000390004F06AF8380082
:105D2000FCF754FC280002F09AFF09F02BFA0B0054
:105D3000022102000091200004F098F931002000B7
:105D400004F0BEFE280002F08AFF07F0D3FBFCF748
:105D500061FC4E4F2000390004F04BF83800FCF78E
:105D600035FC280002F004FE32000100200004F09F
:105D7000A8F83100200004F0A3FE280002F0F8FD8E
:105D8000FCF748FC424F2000390004F032F838009C
:105D9000FCF71CFC280002F017FE32000100200076
:105DA00004F08FF83100200004F08AFE280002F091
:105DB0000BFEFCF72FFC374F2000390004F019F8D8
:105DC0003800FCF703FC280002F0F6FD3200010069
:105DD000200004F076F83100200004F071FE280065
:105DE00002F0EAFDFCF716FC2B4F2000390004F00E
:105DF00000F83800FCF7EAFB280002F037FF320019
:105E00000100200004F05DF83100200004F058FE8D
:105E1000280002F02BFFFCF7FDFB204F200039008B
:105E200003F0E7FF3800FCF7D1FB280002F025FF64
:105E300032000100200004F044F83100200004F09A
:105E40003FFE280002F019FFFCF7E4FB144D200090
:105E5000290003F0CEFF3100200004F031FE2800BD
:105E6000FCF7D0FB039B01330393042B00D0FEE629
:105E700005B0F0BD7C220020E2390100EC390100C0
:105E8000B0080020F3390100FC3901000C3A010090
:105E9000133A0100213A01002E3A0100353A01007F
:105EA000433A0100F0B5AB4DAB4CAC4FAC4E87B0B4
:105EB0000295039404970596092800D932E106F06B
:105EC00083FA0A003B006A008F00C200F30025013C
:105ED00028012B012E01A34CA3486378012B26D166
:105EE00000236370FCF751FC4425FEF76FF99F4FC8
:105EF0009F4E2900300004F0E3FD01372800FCF735
:105F000093FB7B1E1D78002DF2D1637802AA9B00C3
:105F10009958300003F06DFF0A21300004F0D0FDE5
:105F2000637802AA9B009858FCF76CFB31E00123D0
:105F30006370FCF72DFCD7E78A4D53242B7A5A4225
:105F400053412B72FEF742F98A4F894E21003000EF
:105F500004F0B6FD01372000FCF766FB7B1E1C78C1
:105F6000002CF2D12B7A02AA9B009958300003F042
:105F700040FF0A21300004F0A3FD2B7A02AA9B0007
:105F80009858FCF73FFB2B7A002B02D02000FFF73C
:105F9000EDF807B0F0BD734C5725A3795A42534131
:105FA000A371FEF713F9744F714E2900300004F00D
:105FB00087FD01372800FCF737FB7B1E1D78002D7D
:105FC000F2D1A37904AD9B005959300003F011FFC1
:105FD0000A21300004F074FDA3799B005859A3E70F
:105FE000604CD826E37900255A425341E371FEF70D
:105FF000EDF876003000E17968434B1E99415F4B24
:10600000C9B2C018013502F04CFE042DF2D15C4F2C
:106010004935574E2900300004F052FD0137280061
:10602000FCF702FB7B1E1D78002DF2D1E37904AD55
:106030009B005959300003F0DCFE0A21300004F0C7
:106040003FFDE379C9E743254E4B0193484C2900B6
:10605000200004F035FD2800FCF7E6FA019B01332F
:106060000193013B1D78002DF0D13E4B5A78042A54
:106070000ED1390020005D7003F0BBFE0A21200024
:1060800004F01EFD3800FCF7BDFAFEF79FF880E72C
:106090000422310020005A7003F0ABFE0A212000D8
:1060A00004F00EFD3000EEE74827374B0193304EE9
:1060B0003900300004F004FD3800FCF7B5FA019B0C
:1060C00001330193013B1F78002FF0D1254B2F485E
:1060D0005A78052A0CD15F70FDF76FFC290030005B
:1060E00003F087FE0A21300004F0EAFC2800CAE72A
:1060F00005225A70FDF75EFC2100300003F079FEA6
:106100000A21300004F0DCFC2000BCE7FFF702FDB0
:106110003FE7FFF72FFD3CE7FFF77CFD39E7FFF78F
:10612000A1FD36E741241A4D114E2100300004F044
:10613000C7FC01352000FCF777FA6B1E1C78002C99
:10614000F2D10A21300004F0BBFC0A20FCF76CFA03
:106150001FE7C046363D01005E3D01008D42010053
:1061600096420100D0110020B8050020103B01002C
:106170007C2200201B3B0100303B0100B0080020C6
:10618000413B0100493B0100533B0100D01000207E
:10619000603B0100F0B5774B87B00493764B0290DB
:1061A0000593764D042816D94624754E2100280003
:1061B00004F086FC01362000FCF736FA731E1C78CA
:1061C000002CF3D10A21280004F07AFC0A20FCF705
:1061D0002BFA07B0F0BDD824029B64005C43694BE6
:1061E000E418694B1F001E7FA437002E00D18FE0FA
:1061F0000021200002F008FC64233B600023624A77
:106200001377614B1E00D0363278002A06D0CC338B
:106210001968200002F035FC0023337046265B4FDE
:106220003100280004F04CFC01373000FCF7FCF989
:106230007B1E1E78002EF3D10A220299280003F05B
:1062400040FE0A21280004F03BFC0298FCF7E2F92A
:106250004F4F4D363100280004F032FC013730003A
:10626000FCF7E2F97B1E1E78002EF3D1200002F02D
:10627000F3FB04AE80008159280003F0BAFD0A2127
:10628000280004F01DFC200002F0E6FB800080598D
:106290005426FCF7B7F93F4F3100280004F010FCFA
:1062A00001373000FCF7C0F97B1E1E78002EF3D1B9
:1062B000354E0A22A4363168280003F002FE0A2176
:1062C000280004F0FDFB30685426FCF7A3F9324F98
:1062D0003100280004F0F4FB01373000FCF7A4F98A
:1062E0007B1E1E78002EF3D1200002F0C6FC0A228D
:1062F0000100280003F0E5FD0A21280004F0E0FB7E
:10630000200002F0BAFCFCF785F9FEF7BBFE60E75F
:10631000224B1B780393002B07D00121200002F0B1
:1063200073FB1E4B3E601E706BE7174EA83633782A
:10633000002B0FD01A4B6422009303993223386844
:1063400004F0AEFB0100200002F0CAFA6B461B7B92
:10635000337056E7200002F07FFB414241412000AC
:1063600002F052FB200002F077FB642358433860B0
:1063700047E7C0468B410100734101007C220020A9
:10638000A13A0100B0080020D0140020B93A010061
:10639000C33A0100D83A0100EA3A0100641500202E
:1063A000CF030000F0B5794B85B00293784B010024
:1063B0000393784C052815DD4725774E29002000EA
:1063C00004F07EFB01362800FCF72EF9731E1D78C1
:1063D000002DF3D10A21200004F072FB0A20FCF703
:1063E00023F9ABE0431C00D1C0E06C4D2800FDF761
:1063F000F1F96B4F3B7F0193002B00D1A0E0280007
:106400000021FDF731FA0020387700903E00A836D1
:106410003378002B07D03B00A43319682800FDF720
:1064200018FA002333703E00D0363378002B07D0A3
:106430003B00CC3319682800FDF730FA0023337095
:1064400047262800FDF73AFA564F3100200004F0A5
:1064500037FB01373000FCF7E7F87B1E1E78002E73
:10646000F3D12800FDF7C9F90100200003F0C1FCB9
:106470000A21200004F024FB2800FDF7BEF9FCF7F8
:10648000C1F8494F44363100200004F019FB0137B0
:106490003000FCF7C9F87B1E1E78002EF3D1009B5C
:1064A000980002ABC6582000310003F0A2FC0A217C
:1064B000200004F005FB30005026FCF7A3F83B4F0A
:1064C0003100200004F0FCFA01373000FCF7ACF892
:1064D0007B1E1E78002EF3D12800FDF7C3F90A2297
:1064E0000100200003F0EDFC0A21200004F0E8FA8E
:1064F0002800FDF7B7F9FCF78DF82D4F5336310022
:10650000200004F0DDFA01373000FCF78DF87B1E27
:106510001E78002EF3D12800FDF7CBF90A220100E6
:10652000200003F0CEFC0A21200004F0C9FA280064
:10653000FDF7BFF9FCF76EF8FEF7A4FD05B0F0BD5E
:106540003E00943633780093002B07D001212800B9
:10655000FDF78AF96B461B79337057E72800FDF782
:1065600094F9431E9841C3B200934FE747250A4E62
:106570002900200004F0A4FA01362800FCF754F8A2
:10658000731E1D78002DF3D124E7C046734101002E
:106590008B4101007C220020543A0100700F002042
:1065A000D01400206A3A0100CC3A0100DF3A010021
:1065B000F13A0100F7B507004D254D4B4D4E0093C4
:1065C0004D4B01934D4C2900200004F079FA01361F
:1065D0002800FCF729F8731E1D78002DF2D1032F37
:1065E00000D975E0380005F0E5FE0220374E44483A
:1065F000FCF707FA00224F25424B5A70FDF7E6FDE3
:10660000414E2900200004F05BFA01362800FCF717
:106610000BF8731E1D78002DF3D10A21200004F021
:106620004FFA0A20FCF700F8F7BD3548FCF7EDF902
:1066300002225325334B5A70FDF7C8FD334E290013
:10664000200004F03DFA01362800FBF7EDFF731E31
:106650001D78002DF3D1E0E72948FCF7DAF9032291
:106660005025284B5A70FDF7B1FD294E2900200016
:1066700004F026FA01362800FBF7D6FF731E1D78BA
:10668000002DF3D1C9E75025224E2900200004F047
:1066900017FA01362800FBF7C7FF731E1D78002D7F
:1066A000F3D1174D2800FCF7A5F96B468000C158BF
:1066B000200003F09EFB0A21200004F001FA2800CC
:1066C000FCF798F96B468000C058FBF79BFFABE7DF
:1066D0004E25114E2900200004F0F2F90136280061
:1066E000FBF7A2FF731E1D78002DF3D195E7C0467E
:1066F0008D4201007B3B0100964201007C2200207C
:10670000E0050020D0110020373D0100AF4201001C
:10671000BC4201008A3B0100973A010070B5431C5E
:1067200003D0104B5880FDF751FD50240E4E0F4DF5
:106730002100280004F0C4F901362000FBF774FFA3
:10674000731E1C78002CF2D1064C0A2261882800A6
:1067500003F0B7FB0A21280004F0B2F96088FBF7C8
:1067600059FF70BDD0110020D13901007C220020DA
:10677000F0B52025724B8BB00393724B05AA04939E
:10678000714B724E13CB13C203CB03C2704C290062
:10679000200004F095F901362800FBF745FF731E31
:1067A0001D78002DF2D10A21200004F089F90A2079
:1067B000FBF73AFF5F261C3531002000013D04F055
:1067C0007FF9EDB23000FBF72FFF002DF4D1614EC1
:1067D0000A352900200004F073F901362800FBF780
:1067E00023FF731E1D78002DF3D1FDF771FF5A4E64
:1067F0004F352900200004F063F901362800FBF72B
:1068000013FF731E1D78002DF3D102F053FF00F02B
:10681000D5F90A21200004F053F90A20FBF704FF00
:106820004E4E54353000FDF7A7FC4D4F2900200097
:1068300004F046F901372800FBF7F6FE7B1E1D78B1
:10684000002DF3D13000FDF75FFB08F09BFC0B003F
:10685000022102000091200003F008FC3000FDF747
:1068600053FB06F047FEFBF7B9FE3E4E27352900E5
:10687000200004F025F901362800FBF7D5FE731E31
:106880001D78002DF3D10A21200004F019F90A2007
:10689000FBF7CAFE344E45352900200004F010F9FC
:1068A00001362800FBF7C0FE731E1D78002DF3D1C2
:1068B00001212E48FCF70EFE2D4E4D3529002000FB
:1068C00004F0FEF801362800FBF7AEFE731E1D78BB
:1068D000002DF3D114266A46264D92196B782000BC
:1068E0009B00D15803F085FA0A21200004F0E8F853
:1068F0006A466B7892199B00D058FBF783FE1E4FB7
:1069000039363100200004F0DBF801373000FBF7A6
:106910008BFE7B1E1E78002EF3D1EB7903AE9B001D
:106920009959200003F065FA0A21200004F0C8F804
:10693000EB799B009859FBF765FE0BB0F0BDC046A4
:106940008D420100964201007C3801009A3B010013
:106950007C2200200F3C0100B23B010014110020FA
:10696000BB3B0100C23B0100C53B0100B00600205B
:10697000CE3B0100D0110020D53B0100F7B53E4DC4
:10698000280004F0A7F8002807D0280004F0D2F867
:10699000C4B2002C06D1002612E0384B384A1B78CE
:1069A000D45CF6E7354B1F780A2C01D00D2C09D1A9
:1069B0000023344AD3559F42EDD001262F4A13704D
:1069C0003000FEBD3F2F04D906212F48FCF78EFD75
:1069D000E1E72000FEF78AF9061E05D0274A7B1C56
:1069E0001370284BDC55D6E75727284B0193390005
:1069F000280004F065F83800FBF716FE019B013310
:106A00000193013B1F78002FF1D12100280003F0F2
:106A1000F4F92000FBF7E2FD1D4B27370193390005
:106A2000280004F04DF83800FBF7FEFD019B013310
:106A30000193013B1F78002FF1D121001022280083
:106A400003F03FFA200029241021FBF7D1FD114F5C
:106A50002100280004F034F801372000FBF7E4FDA2
:106A60007B1E1C78002CF3D10A21280004F028F8A2
:106A70000A20FBF7D9FDA3E77C2200208C1400201C
:106A80009D0400208D140020B006002091380100E4
:106A90009D380100A338010070B5FBF729FEFFF710
:106AA0006DFF00281BD00E4B5B78042B13D00D4CD0
:106AB0000A21200004F004F80A20FBF7B5FD0A4D76
:106AC0002000290003F095F90A21200003F0F8FFC7
:106AD0002800FBF797FDFEF781F9FEF73BF970BD43
:106AE000D01100207C2200208D140020FA21094BB7
:106AF00010B51A688900501C186005F0DFFD0029E8
:106B000003D1054A1368013313600448FCF790FD74
:106B100010BDC0461016002014160020B00600203C
:106B200010B5024802F00CFC10BDC046ED6A000032
:106B3000012383431800704710B50123002806D0B5
:106B400008F0EEFA05F03AF908F07AFA431C18005A
:106B500010BDF8B50F00150004000026BE420DDA86
:106B600029000A22206802F039FE01CCFFF7E4FF79
:106B70002C232818451C03700136EFE700232B70E7
:106B8000F8BD0000F7B5002403780D001700A342FC
:106B900010D0094E01AA31000AF0ABF9002809D043
:106BA00008F002FC013401C5BC4203DA01AA31003D
:106BB0000020F1E72000FEBDCC420100F7B5FA212C
:106BC0008900040005F00AFC41490500200005F099
:106BD00005FC4049C3B207002800009305F084FC7F
:106BE0000C00E1212000090105F0F8FBE121C3B20E
:106BF000060009012000009305F076FC0C003C2102
:106C0000200005F0EBFB6B4600901B783C21200038
:106C1000019305F069FC0D00092F06D830212E489C
:106C200003F04EFF3020FBF7FFFC2B4C0A22F9B299
:106C3000200003F060F93800FBF7D0FC3A21200077
:106C400003F03EFF3A20FBF7EFFC092E06D8302177
:106C5000200003F035FF3020FBF7E6FC0A22F1B2FA
:106C6000200003F048F93000FBF7B8FC3A2120007F
:106C700003F026FF3A20FBF7D7FC009B092B06D830
:106C80003021200003F01CFF3020FBF7CDFC0A224E
:106C90000199200003F02FF90098FBF79FFC3A219F
:106CA000200003F00DFF3A20FBF7BEFC092D06D8AB
:106CB0003021200003F004FF3020FBF7B5FC290051
:106CC0000A22200003F00BF92800FBF787FCF7BD30
:106CD000005C2605805101007C22002070B50C006C
:106CE00002F0E8FC0500241802F0E4FC854201D81B
:106CF0008442F9D270BD10B50122FFF7EFFF10BD3D
:106D00000120704770470000FA2010B50C00800089
:106D100002F006FD2100024803F06AFF10BDC046E4
:106D20007C220020002310B543644360994201D0C7
:106D3000FFF7E1FF10BD000070B50E000500094C23
:106D40000949200003F055F80A223100200003F021
:106D5000D2F80649200003F067F828003221FFF737
:106D6000CAFF70BD7C220020CE420100D542010046
:106D70000022034B9A60DA601A615A617047C0467C
:106D800018160020F7B50191037E05006320002B43
:106D900008D0154EFF27300003F09CFEC0B200283B
:106DA00001D16520FEBD300003F094FEC0B2002882
:106DB000F7D0300003F0BEFE04003C40682C08D041
:106DC00009DC582C0DD0632CEDD101992800FFF778
:106DD000B3FF6320E6E7712CFBD0762CE3D1C0B281
:106DE000E0E700232B76F4E77C22002070B5040056
:106DF000150000290CD00123037600212000FFF7A5
:106E0000C1FF632804D001212000FFF774FFF4E7DD
:106E1000257670BD70B50F4C0F4EA54404000F4889
:106E200001AA43690169651C00F006F9320001A955
:106E3000280008F040FBA35D002B05D18022FF2134
:106E4000D200280008F040FB012323708123DB00DF
:106E50009D4470BDF8FBFFFF01040000641A002090
:106E600070B5037804000D00002B01D1FFF7D2FFAD
:106E70006419607870BD0000037870B505000C00DF
:106E80001600002B01D1FFF7C5FF2C196378B34220
:106E900003D00122014BEA54667070BD0204000069
:106EA00010B5FFF7E9FF10BD10B503780400002B03
:106EB00001D1FFF7AFFF014BE05C10BD0104000002
:106EC00010B5114C0378A5440400002B01D1FFF745
:106ED000A1FF0E4BE35C002B12D001230C4AE118FA
:106EE000A35401A808F0E7FA0A4C6269216920005E
:106EF00000F090F8636901AA2169200000F03AF8D7
:106F00008123DB009D4410BDF8FBFFFF020400005D
:106F100001040000641A002010B5054A054906481E
:106F200000F010F80022054B05491A705A5410BDA4
:106F30000104000000430100641A002060160020D4
:106F40000204000030B5094D094CAB685B035B0FD0
:106F50009B001C590460AB6801619BB243606343B2
:106F6000A4008360C460426130BDC046004000415F
:106F700000480100F7B580261A4D01916F68033370
:106F80003E439B086E60002B2BD0174E2E802E7D2B
:106F9000F107FCD51E000768991BBF088F4219D95D
:106FA000002E17D0FF2117788C433C430F495778A8
:106FB0000C403F023C439778013E39040C4F274078
:106FC000D478BFB20F43240601993C4310C101910C
:106FD0000432E0E7074B2B802B7DDB07FCD5330029
:106FE000D1E7F7BD0040004144A5FFFFFF00FFFFD0
:106FF000FFFF00FF04A5FFFF044B054A4908D961C4
:107000001A801A7DD207FCD57047C0460040004167
:1070100002A5FFFF70B504000D001600E36829000B
:107020002000B34205D2FFF7E7FFE368ED18F61A38
:10703000F4E7FFF7E1FF70BD10B510001A0008F08B
:107040003AFA10BD002310B568301A0000F0D0F8ED
:1070500010BD000070B504000E00002A1DD1104BB9
:10706000036025002068683500F0D2F9280000F0A0
:10707000FFF8E680300006F0A7FA011C280000F0B7
:107080001FF900240023210001341A002800E4B273
:1070900000F0AEF8102CF5D170BD0260E1E7C046FB
:1070A0007C1A00201300064A10B56830934204D9B8
:1070B0000023013200F09CF810BD0022FAE7C04620
:1070C000FF0F000010B5002A02D1FFF7BBFF10BD73
:1070D000802268300023520100F08AF8F7E70200AE
:1070E000F0B5002004291FD80C3003000139C9B2C3
:1070F0004B43D3181F7C002F12D11974DA6000297A
:1071000013D0012915D0022917D0032902D1062452
:10711000052507260C234B43D3181E725D729C7203
:107120000C23594308315018F0BD09240A250826BC
:10713000F0E704000B250D26ECE70E0003240425E0
:10714000E8E7002343600372038083707047F7B55C
:107150000700050004000E000837383538000C37EA
:10716000FFF7EFFFBD42F9D100232B732B752500EC
:10717000221DD38768354C3213731375538101AFC9
:107180002800402100F031F826713100380000F06D
:107190002CF83B7820002B70FEBD70B5040002294E
:1071A0000DD0042911D0012908D181784068FFF75A
:1071B00049FF617801226068FFF784FF70BD417864
:1071C0004068FFF73FFFA178F4E741784068FFF798
:1071D00039FFA1786068FFF735FFEFE710B50A01C6
:1071E00001784068FFF75EFF10BD01707047000036
:1071F000F8B50D0017001E000E4C0178200000F0BD
:1072000027F9A90006312000FCF7CCFB390020004B
:10721000FCF7C8FB39122000FCF7C4FB310020004A
:10722000FCF7C0FB31122000FCF7BCFB200000F093
:10723000BAF9F8BD7C1A002070B50E001500084C94
:107240000178200000F004F93100200000F04EF930
:107250002900200000F04AF9200000F0A4F970BDD8
:107260007C1A0020002210B51100FFF7E5FF10BDC9
:1072700010B50400034800F0CBF82000FFF7F2FF40
:1072800010BDC0467C1A002070B50E0005000B4CE6
:107290000178200000F0DCF83100200000F026F931
:1072A000200000F080F929780122200000F019F96F
:1072B000200000F07DF9C0B270BDC0467C1A0020ED
:1072C000F8B50400081C07F05DFF1F4A1F4B07F0CC
:1072D000E1F807F0A9FF011C1D4805F03DFCFE2167
:1072E000890505F043FF07F04DFF0022194B06F01A
:1072F000ABF904F0C7FC06000F0020000021FFF7E7
:10730000C3FF6F23102203401A4305000021200011
:10731000FFF792FF3900300005F066FAFE21C2B295
:107320002000FFF789FF2A0000212000FFF784FFDB
:10733000052002F0F5F95F2252422A43D2B2002121
:107340002000FFF779FFF8BDCDCCCCCCCCCCEC3F06
:1073500020BCBE450000E03F00207047F8B50500A6
:107360000E0017000024BC4208D02B68315D1B685A
:1073700028009847002801D00134F4E72000F8BD28
:1073800070470300FC33196ADA69914203D01B6A23
:10739000C018007E704701204042FBE70300FC3329
:1073A000D8691B6AC01A01D50130FF307047000050
:1073B000F7B50193FA238026002504009B00836023
:1073C000124B760008330F004560290000920360DD
:1073D0003200183008F078F823002000FC33213008
:1073E000DD6132001D622900FF3008F06DF887234F
:1073F0009B00E3185D609D606B461B7827612375D9
:107400006B461B79A57520006375FEBD2048010001
:1074100070B5060018250C49006903F0EFF83069D3
:1074200002F05CFF2B000821307D084C4343E31839
:10743000595602F023FC0821707D454364196156BA
:1074400002F01CFC70BDC046A0860100F849010096
:107450008A2300229B00C1540C3BC3185A609A60D7
:10746000012383757047020010B5FC32536894689D
:107470000133DBB29C4202D054680155536010BD09
:10748000F7B500240500170001932000A24227D081
:107490002B00FC33DC611C620122286902F05CFFD6
:1074A000A0421CD02E001836286902F0C4FF013417
:1074B00001003000FFF7D7FF2869A74206D002F08D
:1074C0002BFF0221286902F031FFEDE702F01BFFDC
:1074D000019B002B03D00321286902F027FFE0B2B3
:1074E000FEBD10B50123FFF7CBFF10BD002210B584
:1074F000837D93420DD087239B00C4186368A468E2
:107500000133DBB2A34204D02130FF30FFF7ABFFE1
:107510000122100010BD0300FC3399685A689142A3
:1075200006D09A68805C9A680132D2B29A6070473D
:1075300001204042FBE700228A2370B59B00827540
:1075400005000E00C15C006902F006FF002806D1AC
:107550000321286902F0EAFE0224200070BD87237F
:1075600028009B00EA18536894682130FF301C1BE8
:1075700001D50134FF34002C0ED02C69FFF7CBFF6E
:10758000C1B2200002F015FF0028E8D103212869CC
:1075900002F0CCFE0324E0E7002EDED003212869B0
:1075A00002F0C4FED9E710B50121FFF7C4FF10BDFA
:1075B00010B51830FFF7AFFF10BD70B504000069BB
:1075C00002F017FF002814D0206902F020FF0028E5
:1075D00010D0206902F0A0FE0321206902F0A6FE6F
:1075E0008C239B00E558002D39D10023FC34E36146
:1075F000236270BD206902F014FF002809D02069C1
:1076000002F00AFF002804D0206902F00FFF0028D2
:10761000DFD0206902F005FF002826D1206902F0A2
:10762000F1FE0028E5D0206902F000FF002837D0E5
:1076300087239B00E218536892689B1A01D5013397
:10764000FF33FF21002B05D020002130FF30FFF752
:1076500062FFC1B2206902F0BEFEA075C9E72368CF
:1076600020001B699847A847BFE7206902F054FE35
:107670002069032102F05AFE206902F0D7FE00289B
:10768000B7D0872300229B00E3185A609A60012339
:10769000A3758B239B00E3589342AAD09847A8E791
:1076A0002200FC32D369126A0133DBB220699342B3
:1076B00006D102F028FE0321206902F037FE98E788
:1076C00002F0B9FE010020001830FFF7CCFE20695F
:1076D00002F022FEEFE7000010B50248FFF76DFF51
:1076E00010BDC0467C1A002010B515231422024993
:1076F0000248FFF75DFE10BD682200207C1A0020C2
:1077000070470000FA2292008260044A002302605F
:1077100001224360027443747047C0464C48010024
:10772000F7B506000F0000241D0008AB1B7800927F
:107730000193002D19D0336830001B699847002849
:1077400027D0336830005B699847C0B20D28F2D06B
:107750000A2804D1002CEED0019B002B05D038550F
:10776000009B0134A4B2A342E5D800233B55737CAF
:10777000002B0CD0002C0AD00A4D3900280002F052
:1077800038FB009BA34202D9280002F03BFB2000FB
:10779000FEBD013DADB2002DE7D0012001F0C0FFDC
:1077A000C7E7C0467C22002010B5437C94B004009B
:1077B000002B03D01149124802F017FB0022A368E6
:1077C00000929BB2403203A92000FFF7A9FF0028D6
:1077D00012D00C4903A808F0E3FC00280BD00A499A
:1077E00003A808F0DDFC002806D0200003A9123011
:1077F00008F0E0FCE2E7012014B010BD6C48010085
:107800007C220020714801007448010037B5050052
:1078100000248368123529009BB200944022FFF7B0
:107820007FFF2100A04204D02200280009F0E8FBDD
:10783000010008003EBDF8B5050017000E00013F2D
:107840001ED334782B6821091B683022092900D9FE
:1078500007328918280098470F212B680C401B68B5
:107860002131092C00D90731611828009847002FD1
:1078700004D02B682D211B68280098470136DEE7CD
:1078800004204042F8BD0000F7B504000F000025B9
:10789000089E00920193009BAB4269D0EBB2002B93
:1078A00003D13D21200002F0A8FA019A6B00D25AC0
:1078B000FF2113008B438021C9008B423CD011D89B
:1078C000802189008B4230D0C022920093423AD06E
:1078D0008022520093420ED1AB00F158200002F0FA
:1078E00088FA08E0C022D200934233D00DD8013A82
:1078F000FF3A934236D0009B013B9D4203D02C219E
:10790000200002F07AFA0135C5E7E022D200934266
:107910002BD00132FF329342EDD1AB00F1580A2255
:10792000C9B2200002F0E7FAE5E7AB00D2B2F158A5
:107930002000FFF780FFDEE7AB000A22F1582000AD
:1079400002F0CDFAD7E7AB000A22F158200002F08E
:1079500099FAD0E7AB00F15889B20A22200002F070
:10796000B0FAC8E7AB00F15EF7E7AB00F156F4E719
:10797000200002F047FA002F0AD0637C002B03D0CE
:107980000549064802F031FA2000FFF73FFF386052
:107990002000FFF709FFFEBD6C4801007C2200209B
:1079A000F0B585B00392057C04000F001E00002D89
:1079B00003D103680121DB6998473900200002F0F8
:1079C00018FA0B9B3200009303990A9B2000FFF7E3
:1079D0005BFF0600002D04D123682900DB6920002D
:1079E0009847300005B0F0BDF0B585B00392057C36
:1079F00004000F001E00002D03D103680121DB6984
:107A000098473900200002F0F0F90B9B32000093F8
:107A100003990A9B2000FFF737FF0600002D04D1D1
:107A200023682900DB6920009847300005B0F0BDCD
:107A300007B5010000228368123100929BB24032E8
:107A4000FFF76EFE0EBD000010B50400FFF75AFEF2
:107A5000064B20002360FA23A36000236365A3651F
:107A6000E36523666366A36610BDC04684480100D3
:107A700070B504000E000B4902F0CCF92000FFF7AE
:107A800093FE050001F016FE6065002E03D0FA207B
:107A9000800001F045FE23682000DB68984728003D
:107AA00070BDC046B24801001FB5C02202AB9200B3
:107AB0001A8003AA03910192009300220123024934
:107AC000FFF792FF05B000BDC84801001FB50023B5
:107AD00003AA0193009305490393FFF785FF0398D9
