:10200000008000202D960000159600001596000017
:1020100000000000000000000000000000000000C0
:102020000000000000000000000000001596000005
:1020300000000000000000001596000081960000DE
:102040001596000015960000ED6C00001596000036
:1020500015960000159600002571000019960000E5
:102060001596000061950000159600001596000079
:10207000658300001596000071950000698B0000D3
:10208000A58B0000E18B00001D8C0000818F0000FB
:10209000598C00001596000015960000159600005A
:1020A0001596000015960000159600001596000084
:1020B0000000000010B5064C2378002B07D1054B1B
:1020C000002B02D0044800E000BF0123237010BDA4
:1020D0008004002000000000FC530100044B10B5F8
:1020E000002B03D00349044800E000BF10BDC046E8
:1020F0000000000084040020FC53010010B5124CC5
:10210000FA21200007F0B4F9E1212000490207F08C
:10211000A1F90121200007F099F9002802D0200040
:1021200007F096F901220021200007F005FA02F0DD
:1021300039FA064B1B7A002B05D0642007F0E4FA2D
:10214000002003F019F810BD9C1D0020D0110020C4
:1021500010B5104C200000F00FFB002802D020002A
:1021600000F02CFB0C4C200000F03AFC002802D0C0
:10217000200000F0DFFF094C200001F019FC0028CE
:1021800002D0200001F068FE04F07EFC044804F058
:10219000A3FD10BDB8050020E0050020D0100020F0
:1021A0001816002010B504008068002801D00DF03A
:1021B0004BF906202056002802DB002107F0DEFC48
:1021C000200010BD70B5050080680E00002801D009
:1021D0000DF03AF92B7BEC7BE41A631E9C4103342F
:1021E0007443A4B2AC8020000DF024F9A86000284C
:1021F00005D0220000210DF05BF96E8070BDA88033
:102200006880FBE70322F8B58B110D118E10164084
:10221000134015400A40467382730026FF228A420B
:1022200076418268C47B077BC37305730670002AFE
:102230000AD0E21B5B1B51424A4159424B419A4230
:1022400002D04188FFF7BEFFF8BD0000F8B58368F3
:102250000400002B00D1E9E007F026FA2369C01A38
:102260003128F9D972B6062318220120E356704F9F
:102270005343FA185268A6889040A268DB5D96190D
:10228000511C15786B4ADB019F186B4A9B1822780A
:10229000002A00D058E0803294463860C046C046DC
:1022A000C046C046C046C046C046C046C046C046FE
:1022B000C0462A4200D192E0C046C046C046C04651
:1022C000C046C046C046C046C046C046C046C046DE
:1022D000C046C046C046C046C046C046C046C046CE
:1022E000C046C046C046C046C046C046C04618604C
:1022F000C046C046C046C046C046C046C046C046AE
:10230000C046C046C046C046C046C046C046C0469D
:10231000C046C046C046C046C046C046C046C0468D
:10232000C046C046C046C046C046C046C046C0467D
:10233000521000D170E0D2B2C046C046C046C0467E
:10234000C046C046C046A8E7802294463860C046D2
:10235000C046C046C046C046C046C046C0462A42E7
:1023600021D0C046C046C046C046C046C046C04652
:10237000C046C046C046C046C046C046C046C0462D
:10238000C046C046C046C046C0461860521020D065
:10239000D2B2C046C046C046C046C046C046C0468F
:1023A000C046C046D2E71860C046C046C046C046D8
:1023B000C046C046C046C046C046C046C046C046ED
:1023C000C046C046C046C046C046C046C046C046DD
:1023D000DCE7B14226D20D7862460131B6E71860DB
:1023E000C046C046C046C046C046C046C046C046BD
:1023F000C046C046C046C046C046C046C046C046AD
:10240000C046C046C046C046C046C046C046C0469C
:10241000C046C046C0466BE7B14203D20D78624663
:1024200001313AE762B607F03FF92061F8BDC046D6
:10243000404A0100184400411444004170B54378FB
:1024400004000D00002B06D006202056002802DBD9
:10245000002107F093FB6378A571002B07D00121C1
:10246000280007F08BFB0021280007F0B7FB70BDA8
:1024700070B51500002204000E004270C271826027
:1024800002611900FFF7BEFE31002000FFF79AFE3F
:1024900029002000FFF7D2FF200070BD4388F7B568
:1024A0008B421AD9C379150C140A002B16D1E4B249
:1024B000EDB20194D6B2B446047BC67B8768B442C1
:1024C00018D1032359437F186A46037B1279FD54C0
:1024D000437BFA546246837BFA54F7BDFF263440AF
:1024E00035405C4316405D435E43240A2D0A019447
:1024F000360AE0E789007F18120E002B02D1D3B212
:10250000BB55E1E753431B0AFAE7F7B543880200DE
:1025100000208B4224D9D57B177B9368D479567BD6
:10252000927BBD421DD10330414359188F5D485DF8
:102530003F028D5C002C10D02100000209F042FF08
:1025400021000604380009F03DFF00020643210087
:10255000280209F037FF304302E0000438432843E3
:10256000FEBD890059188E5D485D3602CD5D8F5CD9
:10257000002C17D02100000209F024FF21000306DF
:102580002802019309F01EFF019D0004054321006C
:10259000380209F017FF21000543300009F012FF4F
:1025A0000002DCE700062D0428433843D3E707B5D3
:1025B000002201920092130005F042F80EBD0000C7
:1025C0000022014B1A7070479D04002010B50100D5
:1025D000014807F002FC10BDE004002010B5010026
:1025E0000A22024807F061FC10BDC046E00400204A
:1025F00010B50A000100024807F057FC10BDC046A4
:10260000E004002010B50100014807F001FC10BDF6
:10261000E004002010B501000A22024807F049FC3E
:1026200010BDC046E004002010B50100014807F0CD
:10263000D8FB10BDE004002010B5042307220821B8
:10264000014805F0E7F810BDE0040020F8B50026C9
:10265000204C214D0122310020002E7005F0F0F9B0
:102660000121200005F054F81C492000FFF79FFFCE
:102670003100200005F068F807F010F80700F53683
:10268000FF36200005F072F8002809D107F006F89F
:10269000134BC01B984203D8300007F035F8F0E721
:1026A000200005F063F8002813D00E49200005F043
:1026B0006FF8002803D00C492000FFF778FF0123B2
:1026C000002120002B7005F089F80849200007F050
:1026D0009FFBF8BDE00400209C040020F4330100BF
:1026E00010270000083401000E34010020340100DE
:1026F0000D4B70B51B78002B15D00C4D280005F044
:1027000035F800280FD00024280005F071FB0028C0
:1027100009D0280005F08AFB431CF5D0044A631C4D
:102720001055DCB2F0E770BD9C040020E0040020EE
:102730009D04002010B50400034B1830036006F020
:102740006BFC200010BDC046204A010010B50400FB
:10275000183006F059FC0022054B2000A361054B00
:1027600022616361002363600023237210BDC046B1
:10277000204A010000003940037801220020013B7B
:10278000DBB29A424041C0B27047002303707047E9
:10279000022303707047000010B5054C2000FFF7BE
:1027A000D5FF044A0449200009F058FA10BDC0467C
:1027B000B8050020000000203527000070B5040097
:1027C000416900690CF030FC01002000183006F06F
:1027D00056FC002845D00021606809F0B3FF324D57
:1027E00000283FD0237A002B3CD0002328002372FE
:1027F00001F00CF8280001F000F82C4E0100300028
:1028000007F0EBFA0A21300008F04EF9280000F03A
:10281000F4FFFFF7F7FE280000F0EFFFFFF7F2FEEE
:10282000280000F0E6FF00281CD12378012B19D1E5
:10283000207045241E4D2100300008F035F9013587
:102840002000FFF7F1FE6B1E1C78002CF3D10A214B
:10285000300008F029F90A20FFF7E6FE1548FFF7D7
:10286000D1FE70BD207A4000404201300AF056FE91
:10287000616809F0CBFF10496060061C09F062FF37
:10288000002801D001232372301C0AF027FE01002A
:10289000280000F0DEFF2800FF2100F0FFFF2800E5
:1028A00001F00CF8DDE7C046700F00207C2200200C
:1028B00032340100313401000000C842037870B5A1
:1028C000002B19D10E4C01330370200000F095FF4E
:1028D0000C4D0100280007F080FA0A21280008F0BA
:1028E000E3F8200000F089FFFFF78CFE200000F0E5
:1028F00084FFFFF787FE70BD00230370FBE7C0462F
:10290000700F00207C220020037870B5002B19D1B5
:102910000E4C02330370200000F06FFF0C4D0100DD
:10292000280007F05AFA0A21280008F0BDF8200014
:1029300000F063FFFFF766FE200000F05EFFFFF788
:1029400061FE70BD00230370FBE7C046700F0020DE
:102950007C22002070B504000500B034A5420AD0E6
:10296000583C2000054B3030236306F0A3FBE068A1
:102970000CF06AFDF2E7280070BDC046204A010055
:10298000F8B5FF2300250027002604009B00866180
:10299000C7618560C560056105628562436230304C
:1029A00006F07EFBFF232667676726000B4A9B0025
:1029B000E3678836231D25666566A566A5672263DD
:1029C0003000DD6706F06CFB044B20003360230011
:1029D000B1331D70013B1D70F8BDC046204A010097
:1029E000B130037801220020023BDBB29A42404121
:1029F000C0B2704703000120B0331A7850401870FD
:102A000070470023B130037070470123B130037069
:102A100070470223B130037070470000F8B504001E
:102A20000700002501263034227D002A0BD15823CF
:102A30005D437F193B00553754331A7020003A70BC
:102A400006F058FBF8BD200006F040FB00280FD030
:102A5000164B2000998806F054FB002808D023006C
:102A600025331A78002A03D11E70200006F042FB9D
:102A70000E4B216A5B88E26999420CDA9A4205DBC7
:102A8000200006F018FB230024331E705834012D5B
:102A9000D8D03500C8E79A42F8DA200006F02AFBC1
:102AA0002300002224331A70F0E7C046D011002022
:102AB0000122124B70B50E001968114D114204D15C
:102AC000002010491A6028606960022004F028F88C
:102AD000040030000CF0DEFA02000B000BF0CEFC1C
:102AE0002A686B680BF0C0F803000A00002C02D0C3
:102AF000802212068A181800110070BD9806002066
:102B0000A0060020000010410300A433C16C1B6824
:102B100070B51F4E99421EDDFFF7CAFF02000B0081
:102B2000306871680AF084FD3060716034687568DF
:102B3000002200232000290009F0D0FD002816D132
:102B40000022144B2000290009F0DCFD002810D0E1
:102B50000024104D0DE09942E8DA1900FFF7A8FFB4
:102B600002000B00306871680BF0FAFEDCE700240D
:102B7000002534607560290020000CF055FA064CE1
:102B80000100200000F065FE200000F097FE70BDFF
:102B9000A806002000005940700F0020F7B54268D9
:102BA00004000D00101E37D0E3698B4200DD0B00DE
:102BB000E361236AAB4200DA2B002362638900934E
:102BC000009963880B409B00D318186801930CF0A0
:102BD00061FA02000B00206961690BF0C1FE06007A
:102BE00028000F000CF056FA02000B0030003900EC
:102BF0000AF01EFD06000F00002226616761002317
:102C000009F066FD002808D00023A3610120009B85
:102C100001336381019B1D60FEBD20880CF074FAB6
:102C200002000B00300039000BF01EF80CF0FCF92C
:102C3000A061EBE7582370B55943094B083144189C
:102C400058880321150009F0BDFBA26983B29B18C7
:102C5000AB4203DD29002000FFF7A0FF70BDC04696
:102C6000D0110020F8B5060004000025012772B637
:102C7000206806F00FFFA06462B6A26C2900300045
:102C8000FFF7D8FFE36C226A2365A36C9B1A0CD470
:102C9000E3642300E26C4433002A08DD1F705834DB
:102CA000012D00D1F8BD3D00E1E70023F0E700224F
:102CB0001A70F4E70300F7B5040080270500B83365
:102CC00008340193BF0038000CF0B4FB802323804C
:102CD0007F230021638000220023606023816381C1
:102CE00021616261A36198420ED01A00E361236200
:102CF00099B2802904D0606899000A500133F7E73F
:102D0000FF239B00E3612262802608492000013EE8
:102D1000FFF744FF002EF8D1019B58349C42D2D1DA
:102D200012232B600133AB65F7BDC0469D03000045
:102D300010B5054C2000FFF723FE044A044920008B
:102D400008F08CFF10BDC046E00500200000002008
:102D500055290000F8B50600543633780500254C97
:102D6000002B24D0200000F08EFD01281FD000236E
:102D700041253370204E214F2900380007F094FE82
:102D800001362800FFF750FC731E1D78002DF2D18C
:102D90000A21380007F088FE0A20FFF745FC0121D0
:102DA000200000F061FD200000F088FDF8BDAC358A
:102DB0002B78002BF7D0200000F065FD0028F2D022
:102DC00000232B7041250E4E0C4F2900380007F0D0
:102DD0006BFE01362800FFF727FC731E1D78002DBF
:102DE000F2D10A21380007F05FFE0A20FFF71CFC31
:102DF0002900D5E7700F00204F3401007C2200200D
:102E000058340100F0B58A4B85B00293894B2030CD
:102E10000393050000230093009B02AA9B009E5889
:102E2000854C3100200006F0D8FF30002026FFF747
:102E3000CDFB824F3100200007F036FE0137300015
:102E4000FFF7F2FB7B1E1E78002EF3D14D212000F0
:102E500007F02AFE4D20FFF7E7FB0A220099200029
:102E600007F023F80098FFF7B9FB754B3A361F00BF
:102E700001933100200007F017FE01373000FFF703
:102E8000D3FB7B1E1E78002EF3D10A22E96A2000B4
:102E900007F00BF8E86AFFF7A1FB6A4F093631002B
:102EA000200007F001FE01373000FFF7BDFB7B1E5D
:102EB0001E78002EF3D10A220099200006F0F5FFBB
:102EC0000098FFF78BFB019F3A363100200007F096
:102ED000EBFD01373000FFF7A7FB7B1E1E78002EAD
:102EE000F3D10A22A96A200006F0DFFFA86AFFF7E3
:102EF00075FB554F09363100200007F0D5FD01372D
:102F00003000FFF791FB7B1E1E78002EF3D10A22C2
:102F10000099200006F0C9FF0098FFF75FFB019FB2
:102F20003A363100200007F0BFFD01373000FFF7CF
:102F30007BFB7B1E1E78002EF3D10A22296820001D
:102F400006F0B3FF2868FFF749FB404F0936310010
:102F5000200007F0A9FD01373000FFF765FB7B1E5D
:102F60001E78002EF3D10A220099200006F09DFF62
:102F70000098FFF733FB019F3A363100200007F03D
:102F800093FD01373000FFF74FFB7B1E1E78002EAC
:102F9000F3D12E00343631780A22200006F085FF66
:102FA00030780926FFF71AFB294F3100200007F07F
:102FB0007BFD01373000FFF737FB7B1E1E78002EAC
:102FC000F3D10A220099200006F06FFF0098FFF766
:102FD00005FB3A363100200007F066FD3000FFF7B0
:102FE00023FB019B01330193013B1E78002EF1D19D
:102FF0002E0035360A223178200006F056FF307850
:10300000FFF7ECFA0921200007F04EFD0920FFF739
:103010000BFB009B5835012B08D10A21200007F03B
:1030200043FD0A20FFF700FB05B0F0BD0123F2E6E7
:10303000734101005B4101007C2200202F3C010014
:10304000C7500100433401004634010049340100F7
:103050004C340100F7B5040054300378002B50D0F5
:103060002100AC310B78002B4BD0220000234727E6
:103070002B4D553213705832137003700B702800AB
:1030800000F0C4FB280000F07DFC280000F016FCD6
:10309000244B0193244E3900300007F005FD380021
:1030A000FFF7C2FA019B01330193013B1F78002F08
:1030B000F0D10A21300007F0F7FC0A20FFF7B4FA3C
:1030C0001A4B473701933900300007F0EDFC380008
:1030D000FFF7AAFA019B01330193013B1F78002FF0
:1030E000F1D1280000F089FB0100300006F075FEE8
:1030F0000A21300007F0D8FC280000F07EFBFFF723
:1031000081FA0B4B5B78022B02D0032B04D0F7BD66
:103110002000FFF71FFEFAE72000FFF7F5FCF6E7B7
:10312000700F0020623401007C2200206E34010008
:10313000D0110020030010B5B1331B780400002B20
:103140000FD0FFF78FFD2000FFF768FC2300B0339E
:103150001B78002B02D02000FFF754FE2000FFF761
:1031600079FF10BDF62310B50400044A5B00C2507D
:10317000C01805F051FF200010BDC046204A0100D4
:10318000F8B5040026000025012100220023ED36B9
:103190000560FF360C304942056041608160C260C5
:1031A0000361426183612030B042F5D105F02CFF0C
:1031B000F623424A5B00E250802300221B02236177
:1031C0003F4B2581A261E361220001232A32A572CF
:1031D000E57223851370230004272B331F70394BAE
:1031E0001E32E362384B2100236302231380937065
:1031F000D3700022354B6B312365354B0020A2651F
:10320000E3652300032268331A809A7005230B704C
:1032100030490026E1668021090421678C462E4949
:10322000A067E16721002D4888310F808F70CB7037
:10323000C9194D6008608B838B772948CB77203183
:10324000086020004D600621C83001808170210097
:103250002448CB310A70013108608020224F486039
:1032600020004E618F610721E8300180023001703B
:103270002100EB310A7022001C49EC321160FF2161
:10328000916080210020C905D06011612100184F94
:10329000FE31082057604B7323004881087315499D
:1032A000FC33196161469F615961F42300260E4F7A
:1032B0005B00D66217632000E554F8BD204A010088
:1032C0000000E03F26350100008080000040C00083
:1032D000000004403D350100000024406A35010033
:1032E0008B350100B635010000001440CD350100DA
:1032F00000FFFF00E635010070B505000C0008482E
:10330000084903F059FF0F2800D900204101611836
:103310002800083120220CF0C2F8280070BDC046F9
:10332000A0160020FF03000010B50A000248034960
:1033300003F062FF10BDC046A0160020FF0300008E
:1033400010B5054C2000FFF71BFF044A044920007C
:1033500008F084FC10BDC046B0060020000000202C
:1033600065310000F7B50B880D0001920F2B18D9BD
:103370004524504D2100504807F096FB01352000B0
:10338000FFF752F96B1E1C78002CF3D1019B002B28
:1033900006D00A21484807F087FB0A20FFF744F9C6
:1033A000F7BD4B68002BFBD0C878434C013804288C
:1033B00012D808F0F3FF70615243030046263F4FD6
:1033C0003100200007F070FB01373000FFF72CF9C7
:1033D0007B1E1E78002EF3D12B88632B06D830215C
:1033E000200007F061FB3020FFF71EF92B88092B26
:1033F00006D83021200007F057FB3020FFF714F9E2
:10340000202629880A22200006F04FFD2888FFF791
:10341000E5F82B4F3100200007F046FB0137300064
:10342000FFF702F97B1E1E78002EF3D16968200099
:1034300006F0D3FC6868FFF7C9F8A7E74526214FD7
:103440003100200007F030FB01373000FFF7ECF8C7
:103450007B1E1E78002EF3D1BEE757261A4F31008F
:10346000200007F021FB01373000FFF7DDF87B1E5D
:103470001E78002EF3D1AFE74926144F310020000B
:1034800007F012FB01373000FFF7CEF87B1E1E78E5
:10349000002EF3D1A0E744260D4F3100200007F0A5
:1034A00003FB01373000FFF7BFF87B1E1E78002EAC
:1034B000F3D191E7C93401007C220020E4340100FB
:1034C000E1390100EA340100F1340100FA3401006D
:1034D00000350100036810B5002B02D1030028332A
:1034E000036001220168FFF73DFF10BDF8B504003D
:1034F0000D000E2900D9012523686E01A219D17A89
:10350000DA78914202D8002D04D0F8BD99782000D5
:1035100000F06AF86B1C08365B01A619E3182660F8
:1035200000221E685F6800233000390009F0D0F8DF
:1035300000280DD10022224B300039000AF09EFFF6
:103540000BF072FD01002000ED30FF3005F065FD4D
:10355000002D04D0012221682000FFF703FF23681B
:10356000DC78052CD1D12A25164E174F29003800BA
:1035700007F09AFA01362800FFF756F8731E1D78F7
:10358000002DF2D10A21380007F08EFA013C0A2002
:10359000FFF74AF8002CE6D1D826760035006543BF
:1035A0000A4BED18280004F045FF002803D0002145
:1035B000280005F046F90134042CEFD1FEE7C0469F
:1035C00000408F40073501007C220020B008002019
:1035D000030010B50833036000210248FFF786FF9F
:1035E00010BDC046B006002070B5036804009A788C
:1035F00000208A4219D1FE225200A25C82420FD0E2
:103600009A6801320CD0DB78084D032B05D9F423DE
:103610005B00E15C280001F099FA280001F052FA01
:1036200020000021FFF762FF012070BDDC110020A7
:1036300070B50500ED35FF350400280005F009FDE3
:10364000002809D0280005F0F3FC002804D02368E6
:1036500020009978FFF7C8FF70BD0000F0B50600A4
:10366000214C224D89B02100280006F0B6FB0A212A
:10367000280007F019FA2000FEF7C4FF3100684661
:10368000FFF73AFE6B469B78002B2BD05024184F47
:103690002100280007F008FA01372000FEF7C4FFD8
:1036A0007B1E1C78002CF3D1012269463000FFF705
:1036B00059FE104F45342100280007F0F5F9013775
:1036C0002000FEF7B1FF7B1E1C78002CF3D10A21ED
:1036D000280007F0E9F90A20FEF7A6FF21003000D4
:1036E000FFF722FE09B0F0BD733401007C220020F8
:1036F000A2340100BA34010070B50B4D0B4CAD3D46
:10370000FF3D20000A4E8430066005F0D3FC206E99
:103710000BF09AFE26602000B13CFF3C05F0CAFC8D
:10372000AC42EED170BDC046B0080020C40D0020F0
:103730002C4A010010B5094804F028FE084804F09E
:1037400025FE084804F022FE074804F01FFE074A41
:103750000749002008F082FA10BDC046B0080020DA
:10376000600A0020100C0020C00D00200000002086
:10377000F93600000023F0B5134C021D3C26134D12
:103780001370990069581500516000215E43104F75
:103790000835BE19675A2F8077180A316F600835CF
:1037A0003C29F7D1013338323C34062BE6D1802353
:1037B0005B020360AC23FF225B00C25203000430B3
:1037C000FC339865F0BDC0462000002004000020B6
:1037D000220000200200FC32062906DD06213823E3
:1037E00059430431411891657047CB43DB171940A9
:1037F000F5E7FC30836D18787047FC30836D5868AE
:103800007047382359434018806870470200FC32E3
:10381000936D1978042904D904309065936D187854
:103820007047382301314B430433C018F5E70200D9
:10383000FC32936D1978002905D11D30FF30906559
:10384000936D18787047382301394B430433C018FF
:10385000F5E70023994203DB642900DD64218BB284
:103860000380704700887047002903DA00234380F3
:10387000642306E00B1E00DD0123438000230029A2
:10388000F6DD038070474088704710B5040041881A
:103890004B425941FFF7E8FF608810BD0023994271
:1038A00003DBFF2900DDFF218BB2AC2252008352E3
:1038B0007047AC235B00C05A704700000300F0B5AE
:1038C00004000125FC339B6D028887B008331888FB
:1038D000691E05911989824242D38A4201D98242E6
:1038E00040D80026254F23000022FC33996D059B0C
:1038F00023489B1A01330493DB00CB185B689B5B66
:103900000393834202D1013292B2F0E700204219C0
:103910000132D2008B185B689B5B9C46184B9C4520
:1039200004D1013080B2F2E7012323E0049B525A14
:10393000D8006346415A00932088039B07F0A4F8FF
:103940000100380004F09CFDAC235B003800E15A14
:10395000B137023604F065FEFF37082EC3D105E00B
:103960008A42BED201350833072DB0D12388322BCD
:10397000DAD90023638007B0F0BDC046B00800204C
:10398000FFFF0000802310B55B020360FFF796FF86
:1039900010BD00000022024BFC339A657047C04600
:1039A000700F002010B50368C9B21B68984710BD9E
:1039B000007870470123037070470023037070473D
:1039C0000122174B70B519680400164E114204D13C
:1039D000002015491A6030607160022003F0A0F8E1
:1039E000051E01D0E588ED0B0623E05E0BF052FBCF
:1039F00002000B000AF042FD326873680AF034F9E5
:103A0000002D06D102000B0022626362206A616A07
:103A100070BD80231B06C91820626162F6E7C046AC
:103A200000110020081100200004914070B506002C
:103A3000FFF7C6FFB26AF36A09F0FAFD002200231D
:103A400004000D0008F04AFE00280AD100220F4BA6
:103A50002000290008F056FE002804D000240B4D59
:103A600001E000240025B462F562094CFF2120002A
:103A7000FFF714FFB06AF16A0BF0D6FA01002000DC
:103A8000FFF7E7FE2000FFF719FF70BD0000594067
:103A9000700F00200022024B5A709A707047C04687
:103AA000D0100020F7B5324E05003000FFF7A5FE1C
:103AB000304C0100200006F090F930002026FFF77E
:103AC0009CFEFEF783FD2C4F3100200006F0ECFF3A
:103AD00001373000FEF7A8FD7B1E1E78002EF3D1C3
:103AE0000623E95E0A22200006F0DFF90623E85EDD
:103AF000FEF774FD214F20363100200006F0D4FF80
:103B000001373000FEF790FD7B1E1E78002EF3D1AA
:103B10000223200000932A6A6B6A06F09BFA286A47
:103B2000696A0BF081FAFEF759FD154F2036310016
:103B3000200006F0B9FF01373000FEF775FD7B1E4F
:103B40001E78002EF3D1A86AE96A0BF06DFA0A22FA
:103B50000100200006F0A9F90A21200006F0A4FFC8
:103B6000A86AE96A0BF060FAFEF754FDF7BDC0469B
:103B7000700F00207C2200206936010071360100A0
:103B800079360100F0B5384E85B004000622522186
:103B9000300004F0ECFA0025300004F046FA00286A
:103BA0000AD0300004F04AFB02AB58550135012021
:103BB000EDB205F0A9FDEFE70327BC4602AB1E7886
:103BC000A6805878E08059799A788B103B40920013
:103BD0001A436B46019262469B88638102ABDF7891
:103BE0000B11BF0013403B4302AAA38117798A0936
:103BF000BF003A4301279446E2813A008A43F940E4
:103C00008F43617822746774002910D1618A019A08
:103C1000761AA18AA680401A218BE080521A62810E
:103C2000628B9B1A6246A381A38BD31AE3810E4C4D
:103C30005221200004F052FA00212000FFF7B2FECA
:103C4000012005F061FD00212000FFF7ABFE0120FF
:103C500005F05AFD200004F0ECFA052005F054FDB3
:103C6000280005B0F0BDC046C41A0020F8B5040015
:103C700043251A4F1A4E2900300006F015FF013770
:103C80002800FEF7D1FC7B1E1D78002DF2D1012308
:103C900020006370FFF776FFA38865706382E38876
:103CA000104DA38263892383A3896383E389A3835C
:103CB00020242100300006F0F7FE01352000FEF739
:103CC000B3FC6B1E1C78002CF3D10A21300006F0E7
:103CD000EBFE0A20FEF7A8FCF8BDC04686360100C0
:103CE0007C22002095360100F8B5427C0400037C5C
:103CF000002A02D1002B1FD1F8BD002B19D042257C
:103D0000244E254F2900380006F0CEFE013628004B
:103D1000FEF78AFC731E1D78002DF2D10A213800AF
:103D200006F0C2FE0A20FEF77FFC2000FFF79EFF90
:103D3000E2E71A48FFF76AFD237C184C002B02D0FB
:103D40002000FFF774FD2000FFF757FD124D010022
:103D5000280006F042F80A21280006F0A5FE2000FF
:103D6000FFF74BFDFEF74EFCFF212000FFF796FD0D
:103D70002000FFF707FEFA20400005F0C5FC0021F7
:103D80002000FFF78BFD2000FFF798FDC82005F00D
:103D9000BBFCB1E7353601007C220020700F00200B
:103DA0000022002370B50500026243628262C36292
:103DB000002000F05BFA254C5221200004F08EF91F
:103DC000F0212000FFF7EEFD012005F09DFC5521BC
:103DD0002000FFF7E7FD012005F096FC200004F02D
:103DE00028FA2000522104F079F9FB212000FFF786
:103DF000D9FD012005F088FC00212000FFF7D2FD4D
:103E0000012005F081FC200004F013FA0A2005F0DF
:103E10007BFC2800FFF7B6FE2800FFF727FF0C4CBD
:103E20002000FFF7EAFC0B4D0100280005F0D5FF4C
:103E30000A21280006F038FE2000FFF7DEFCFEF71E
:103E4000E1FB2000FFF79EFD70BDC046C41A0020B4
:103E5000700F00207C22002070B50D4D04002B78DF
:103E6000002B03D1FFF79CFF01232B702000FFF7ED
:103E700089FE00280BD02000FFF7D8FD2000FFF7B7
:103E800033FFA378002B02D02000FFF70BFE70BD9C
:103E900010110020704700006C22C021FF324281C7
:103EA000174B02220360C900164B41821E2110B538
:103EB000436007240023FF328281013AFF3AC17632
:103EC0008118037203820375C37503764376837684
:103ED00043778377C377C2810277CC77811CCB7716
:103EE000C11C0333CB77011DCB77431DDA77002349
:103EF0000365C365436503668365436610BDC046BD
:103F00006B0101010100000610B50400C06C04340F
:103F100009F004FBE16F08F013FE024908F076FC9B
:103F200010BDC0460000C84110B5054C2000FFF789
:103F3000B3FF044A0449200007F090FE10BDC046BC
:103F40001411002000000020953E0000F7B5170076
:103F50000E000F4C0193200008AB1D7804F0BEF852
:103F60003900200004F008F90021200004F029F9AC
:103F70002A003100200004F0FAF8019E7519AE42C3
:103F800005D0200004F05AF930700136F7E7F7BD8C
:103F9000C41A002013B50C0000930178130022000E
:103FA000FFF7D4FF13BD000013B5040006236A46D3
:103FB0002821FFF7EFFFA3790D4A9B0080219B5832
:103FC000002263670902130068466B445B78805CDB
:103FD0001B020343500020180B4204D102328362BB
:103FE000062AF0D113BDDB439BB2DB43F6E7C046A4
:103FF0008801002037B50A4A031D126801ADDA674F
:10400000152102232A000400FFF7C4FF2B881AB2EF
:10401000002A01DBE36437BDDB439BB2DB43F9E7F6
:10402000B40100201FB50F2401236C440A0001785D
:1040300000932300FFF78AFF207804B010BD10B56D
:104040002721FFF7EFFF0123184010BD10B52721EE
:10405000FFF7E8FF4007C00F10BD13B50C00009339
:10406000817A13002200FFF771FF13BD73B50500BD
:104070008026002406236A461821FFF7EEFFAB7C5A
:104080000E4A9B009B583602AB6723006B4458785E
:104090006B461B5D0002184309F040FA09F01EFA56
:1040A0006300EB18304204D102345863062CECD183
:1040B00073BDC04380B2C043F6E7C04698010020FC
:1040C0001FB50F2401236C440A00817A009323005A
:1040D000FFF73CFF207804B010BD10B52721FFF793
:1040E000EFFF8007C00F10BD13B50C000093C17E19
:1040F00013002200FFF72AFF13BD000073B505006F
:104100008026002406236A462821FFF7EDFFEB7F77
:104110000E4A9B009B583602EB6723006B4458788D
:104120006B461B5D0002184309F0F8F909F0D6F957
:104130006300EB18304204D102341864062CECD131
:1041400073BDC04380B2C043F6E7C046A40100205F
:104150001FB50F2401236C440A00C17E0093230085
:10416000FFF7F4FE207804B010BD10B52721FFF74B
:10417000EFFF0007C00F10BD10B50400FFF75FFF91
:10418000002802D02000FFF70FFF2000FFF7A5FF57
:10419000002802D02000FFF769FF2000FFF7E5FFAD
:1041A000002802D02000FFF7A9FF2000FFF74EFFF4
:1041B000002802D02000FFF71DFF10BD10B504003D
:1041C00040680BF041F9200010BD000070B5174D9C
:1041D000174C2A782000002103F00EF86A7820009E
:1041E000012103F009F8AA782000022103F004F865
:1041F0002A792000032102F0FFFFAA792000042180
:1042000002F0FAFFEA792000052102F0F5FF2A7A90
:104210002000062102F0F0FF6A7A0721200002F058
:10422000EBFF200002F0F8FF70BDC046D011002067
:10423000A016002010B500210948FFF775F80222EA
:10424000084B1A705A70962292005A802D3AFF3A03
:104250009A800222FF32DA80034A1A8110BDC046DA
:10426000B0060020D01100200107000010B50400A6
:1042700001210A2005F082FC21000A2005F0AEFC95
:10428000642005F041FA10BD00230D4810B500224E
:104290000360436083600023026143610023094A95
:1042A0000949C261094A8361036207F0D7FC02220F
:1042B000074BFF32DA80013AFF3A1A8110BDC0463F
:1042C000A811002000007F44BD4100000000002034
:1042D000D011002070B5104C104D2000290005F0C1
:1042E0007CFD0A21200006F0DFFB2800FEF78AF99A
:1042F000C8210022C9000A4804F014FF094D20001B
:10430000290005F06AFD0A21200006F0CDFB2800F7
:10431000FEF778F970BDC0467C2200202E380100DF
:10432000F81C00204338010070B51E4C200002F03C
:1043300067FF002835D00021200002F03DFF1A4D14
:1043400001212870200002F037FF02216870200050
:1043500002F032FF03216880200002F02DFF0421CB
:10436000A880200002F028FF0521A871200002F09B
:1043700023FF0621E871200002F01EFF07212872AA
:10438000200002F019FF094C6872094D2100280035
:1043900005F023FD0A21280006F086FB2000FEF729
:1043A00031F970BDA0160020D01100207637010031
:1043B0007C22002070B5174C174D2100280005F015
:1043C0000CFD2000FEF702F9144C0A226178280047
:1043D00005F06BFD0A21280006F066FB6078FEF709
:1043E00019F960780138042807D807F0D7FF0307C8
:1043F0000B060F000A48FEF787FA70BD0948FEF762
:1044000004FBFAE70748FEF704FBF6E70648FFF768
:10441000D1FAF2E7193801007C220020D0110020E7
:10442000B8050020E0050020D010002070B5FFF78F
:104430007BFF114B114C5B7A072B0FD0104D2000E6
:10444000290005F0CAFC0A21200006F02DFB2800F7
:10445000FEF7D8F8FFF7EEFEFFF7B8FE094D200093
:10446000290005F0BAFC0A21200006F01DFB2800F7
:10447000FEF7C8F870BDC046D01100207C22002095
:10448000AC360100D6360100F7B53C4F3B78013B16
:10449000012B03D902233B70FFF798FE384D394CAE
:1044A0002900200005F099FC0A21200006F0FCFA02
:1044B0002800FEF7A7F83B78012B44D10025FF2206
:1044C00000950D331100304804F090F9FF220F23BE
:1044D000110000952D4804F089F9FF2210231100E6
:1044E00000952B4804F082F9FF220095112311005A
:1044F000284804F07BF90026D8256D007543224B2F
:104500005D19280003F096FF002828D104212248D5
:10451000FEF7ECFF214D2000290005F05EFC0A218A
:10452000200006F0C1FA2800FEF76CF81C4D2000B0
:10453000290005F052FC0A21200006F0B5FA2800F7
:10454000FEF760F8F7BD022BD5D1FF22013B0093A7
:1045500011000D330C4804F049F90025B6E7F9794C
:1045600028004B1E9941C9B204F06BF901362800AE
:1045700004F04AF8042EBFD1D8E7C046D01100207D
:10458000993701007C220020B0080020600A00203A
:10459000100C0020C00D0020B0060020AE37010036
:1045A000CB370100E121F8B53F4C4902200006F06D
:1045B00013FBFEF74BF83D49200005F029FC3C4F6A
:1045C000002238003B4902F0CBFBFA2100223800E0
:1045D000090102F0C5FB05003749200005F0FDFB8D
:1045E0000A222900200005F060FC3449200005F073
:1045F0000FFC200005F0FAFB314803F04FFD02F0FC
:1046000087FA304D2800FEF7E3FF2800FFF726F871
:1046100002212800FEF76AFFFFF708FFFFF75AFEA6
:10462000FFF732FF00F0C8FA274E3000FFF7A2F87C
:1046300030000021FFF7CEF801213000FFF714F918
:104640003000FFF73BF92148FEF734FBFFF7B2FEDD
:104650001F4E2000310005F0C0FB0A21200006F0AB
:1046600023FA3000FDF7CEFF1A4E2000310005F08E
:10467000B4FB0A21200006F017FA3000FDF7C2FF54
:1046800002212800FEF7B0FF380002F025FB124D92
:104690002000290005F0A1FB0A21200006F004FA01
:1046A0002800FDF7AFFFF8BD7C220020F0360100A6
:1046B000181600208813000005370100313701006B
:1046C000C41A0020B0060020700F0020E005002072
:1046D000403701004C3701005F370100F0B585B06D
:1046E00001AD2A003F4B404E13CB13C23F4C31006B
:1046F000200005F072FB3000FDF768FF0A2202215E
:10470000200005F0D2FB0A21200006F0CDF902209E
:10471000FDF780FF364E2000310005F05EFB3000D3
:10472000FDF754FF0A220121200005F0BEFB012005
:10473000FDF754FF2F4E2000310005F04EFB3000F6
:10474000FDF744FF0A220121200005F0AEFB012005
:10475000FDF744FF3100200005F03FFB300042260A
:10476000FDF734FF0A220021200005F09EFB0A21FC
:10477000200006F099F90020FDF74CFF1E4F310094
:10478000200006F091F901373000FDF74DFF7B1E48
:104790001E78002EF3D10A21200006F085F90A20A8
:1047A000FDF742FF154F48363100200006F07CF936
:1047B00001373000FDF738FF7B1E1E78002EF3D145
:1047C0000F4E200033789B00E95805F006FB0A21C4
:1047D000200006F069F933789B00E858FDF712FFD6
:1047E00005B0F0BDA0360100DF3701007C220020BB
:1047F000E837010041380100F837010013380100A3
:10480000D0110020F8B5AB23070004009B006C37E3
:10481000C5180F4EAF420BD0483D2800AE6338306C
:1048200004F0FAFB28002E62203004F0F5FBF0E7DC
:104830002000E6655C3004F0EFFB20006664443045
:1048400004F0EAFB2000FDF7ADFC2000F8BDC046F7
:10485000204A010070B50025040045608560C560F0
:10486000056145610576C561203004F0CDFB01236B
:104870002000054E656326622386383004F0C4FBB1
:10488000A663200070BDC046204A010070B5040038
:10489000522303220121FDF7EBFD00232000636179
:1048A0002430FFF7D7FFAB2325009B006C35E618BB
:1048B00028004835FFF7CEFFAE42F9D1AB220023E6
:1048C0009200A3500122611C2376CA77FE2189053C
:1048D000E161611DCB77FA218900A16321003C31A0
:1048E000A362236320000A7023640A83A36570BD5A
:1048F000F7B500230700451C04000191EB77461D26
:104900003C379A4238D0027E483353431A00C318CA
:104910006C3282181800F17F6C300170A16A181D8A
:104920001967E16A5967216B9967616BD967A16B58
:10493000C167397880300170216C41602000A16C22
:1049400044305162E16C9162017B10002C300170A7
:1049500054218C46A4446146180009889C3001808B
:10496000A16DA0331960236E38325360636E93607B
:1049700023005C33187B10734820019B58430200CE
:10498000AB236C32A2189B00E2509C4623181900FE
:104990006C310978F177196FA162596FE162996FF3
:1049A0002163D96F6163191DC96FA1631900843137
:1049B000097839701900883109682164516AA16445
:1049C000916AE16411002C310E78210044310E739C
:1049D00019009C310E88210054310E80A0331968D3
:1049E000D36BA1652366136C6366130038331E7B9B
:1049F00023005C331E736646002903D0A4302018C0
:104A000004F00BFB1F20A2595169CB1703405B1820
:104A10005B11D361012313861376EB77F7BDAB23CC
:104A20009B0070B50400C05800284AD0631D02786E
:104A3000DB7F9A421BD14368A26A934217D18368F5
:104A4000E26A934213D1C368226B93420FD1036988
:104A5000626B93420BD14369A26B934207D1C36946
:104A6000226C934203D1436BA26D934229D0002361
:104A7000651CEB77383004F0ECFA002809D0AB263F
:104A8000B600A059383004F0F3FAA3595A6B101A43
:104A90005863AB26B600A059203004F0DAFA00289B
:104AA00003D0A059203004F0E3FA0123EB77237EF2
:104AB000062B01D801332376217E01222000FFF747
:104AC00017FF70BD037E10B5002B01D0013B0376AC
:104AD000017E0022FFF70CFF10BD436910B599B2AB
:104AE0000400FDF712FDAB239B00E3589A68904247
:104AF00007D06369200099B2FDF7D0FC2000FDF7D4
:104B0000A5FB10BDF8B5C56988780E0008F006FD54
:104B1000291C08F0EDF907F043FEC7B2707808F0E1
:104B2000FDFC291C08F0E4F907F03AFEC4B2307825
:104B300008F0F4FC291C08F0DBF907F031FE3F0413
:104B400024023C43C0B22043F8BD000010B504006D
:104B5000080008F02DFD0E4907F0F2FF2100E0618A
:104B600028312000FFF7CEFF2100E0623031200025
:104B7000FFF7C8FF60632000FFF751FF0021E069E5
:104B800007F0E0FD002802D02000FFF7A6FF10BDCF
:104B90000000C84210B5054C2000FFF777FE044A1C
:104BA0000449200007F05AF810BDC046DC1100206F
:104BB00000000020054800004122414B30B51A702A
:104BC000383ADA603F4A44241A6143221A751A00BF
:104BD000283214703C4A02349A631A003C32147032
:104BE00004229A64394A0121DA641A0064185032A6
:104BF00014700622DA65364A64181A661A0018001C
:104C000064321470032208301A67C2671A003148F0
:104C1000883210601A004F208C3210701A009832BF
:104C200011601A004018A03210701A002A4CAC32E1
:104C300014305C6710601C001A004D257834B432C3
:104C4000123825701962596310701A00C032116051
:104C50001A002248C43210601A005320C832107063
:104C60001A00AC30D43210601A00AB38DC3210704D
:104C70001A001B48E83210601A001A48EC32106023
:104C80001A005520F03210701A008020FC32C0004B
:104C900010601548582450601800FF304471134CC0
:104CA000516194612324447611481C34D0629620CB
:104CB00040001C540F4B9162D163136430BDC04659
:104CC000D0140020955E0000754E00008561000044
:104CD00095630000A5650000B94E0000DD5A000094
:104CE00088130000B94F00000D6700003550000028
:104CF00061670000795100000300203BDBB21F2BED
:104D000005D8074ADA4001231900914306D0002351
:104D100039224138C0B282425B41DBB21800704791
:104D20000910FF8310B50C00010004480BF01EFAB7
:104D30002060431E9841C0B210BDC0468D140020B3
:104D4000030010B55B780130303B092B05D80021FA
:104D50000CF084F80AF068F910BD01204042FBE72E
:104D600070B501260D4D0E4C4535FF357642237941
:104D7000002B0ED0236830005A1C03DBA068984239
:104D800000DD1800E3682060002B02D09847002364
:104D900023711434AC42EAD170BDC046D014002057
:104DA000D41400201FB50422694601F0E3FE002858
:104DB0000FD00099084803F063FB0199074803F0FE
:104DC0005FFB0299064803F05BFB0399054803F07B
:104DD00057FB05B000BDC046B0080020600A0020A7
:104DE000100C0020C00D0020F7B5002510260195FD
:104DF000142464427443144B01A9E4182300413382
:104E0000FF331878FFF78EFF071E0BD00198FFF7CE
:104E100097FF23004533FF33186001233D004934D9
:104E2000FF342370013E002EE2D1084C002D06D144
:104E3000074B5B78042B02D12000FFF7B3FF002360
:104E40002370FDF7BDFBF7BDD01400208D140020AA
:104E5000D01100200021054A054B4932FF3219705C
:104E6000996014339342FAD17047C046D0140020A1
:104E7000D814002070B544240C4D0D4E2100300094
:104E800005F012FE01352000FDF7CEFB6B1E1C78ED
:104E9000002CF2D10A21300005F006FE0A20FDF7B1
:104EA000C3FB0448FDF70AFD70BDC046393401005C
:104EB0007C220020B8050020F7B5384B384C009311
:104EC000384B0193431C25D16A46374D20002B787F
:104ED000013B9B00995804F080FF6A462B782025FF
:104EE000013B9B009858FDF771FB304E29002000D4
:104EF00005F0DAFD01362800FDF796FB731E1D78DC
:104F0000002DF3D10A21200005F0CEFD0A20FDF787
:104F10008BFBF7BD431E012B31D84E26224D287046
:104F2000FFF754F9224F3100200005F0BDFD013795
:104F30003000FDF779FB7B1E1E78002EF3D1FFF7C2
:104F4000A3FA6A462B782000013B9B00995804F095
:104F500044FF6A462B782025013B9B009858FDF7BB
:104F600035FB124E2900200005F09EFD0136280079
:104F7000FDF75AFB731E1D78002DF3D1C2E74825BB
:104F80000C4E2900200005F08FFD01362800FDF7AA
:104F90004BFB731E1D78002DF3D1B3E75838010089
:104FA0007C2200205E380100D01100205A3A010016
:104FB000603A0100753A010070B5431C03D0194BEB
:104FC0009880FFF703F94825174E184C2900200058
:104FD00005F06AFD01362800FDF726FB731E1D78DB
:104FE000002DF2D10F4D0A22A988200004F05DFFA8
:104FF000A8886D25FDF7F2FA0D4E2900200005F076
:1050000053FD01362800FDF70FFB731E1D78002DA0
:10501000F3D10A21200005F047FD0A20FDF704FB2B
:1050200070BDC046D0110020C93801007C2200208C
:10503000D638010070B51148FDF7E3FC0022452485
:105040000F4B5A70FFF7C2F80E48FDF79EFB0E4D4E
:105050000E4E2100300005F027FD01352000FDF740
:10506000E3FA6B1E1C78002CF2D10A21300005F007
:105070001BFD0A20FDF7D8FA70BDC046E0050020F0
:10508000D0110020B8050020BA3801007C22002091
:1050900070B5324B324C58780138042819D807F0D3
:1050A0007DF903202F3E4D0041252E4E2900200082
:1050B00005F0FAFC01362800FDF7B6FA731E1D78DC
:1050C000002DF3D10A21200005F0EEFC0A20FDF7A7
:1050D000ABFA0A21200005F0E7FC0A20FDF7A4FA4C
:1050E00070BD5325204E2900200005F0DDFC01365F
:1050F0002800FDF799FA731E1D78002DF3D1E1E722
:1051000050251A4E2900200005F0CEFC013628005B
:10511000FDF78AFA731E1D78002DF3D1D2E74325DF
:10512000134E2900200005F0BFFC01362800FDF7D2
:105130007BFA731E1D78002DF3D1C3E748250D4E71
:105140002900200005F0B0FC01362800FDF76CFABC
:10515000731E1D78002DF3D1B4E7C046D011002096
:105160007C220020D93801000439010036390100C1
:105170006E39010096390100F7B52025FFF7AEFA28
:10518000E34C0A21200005F08FFC0A20FDF74CFAC1
:10519000E04E2900200005F087FC01362800FDF7CD
:1051A00043FA731E1D78002DF3D10A21200005F06B
:1051B0007BFC0A20FDF738FA5F263C3531002000E1
:1051C000013D05F071FCEDB23000FDF72DFA002D28
:1051D000F4D1D14B0A351E0000932900200005F0C0
:1051E00063FC01362800FDF71FFA731E1D78002DA1
:1051F000F3D1CA4E47352900200005F055FC013691
:105200002800FDF711FA731E1D78002DF3D10A2135
:10521000200005F049FC0A20FDF706FAC04E433590
:1052200037002900200005F03FFC01372800FDF77A
:10523000FBF97B1E1D78002DF3D10A21200005F01B
:1052400033FC0A20FDF7F0F920274721200005F064
:105250002BFC4720FDF7E8F90A222900200004F082
:1052600024FE2800FDF7BAF9AE4B01933900200067
:1052700005F01AFC3800FDF7D7F9019B01330193C3
:10528000013B1F78002FF1D12021200005F00CFCFC
:105290002020FDF7C9F9A44F29003800FEF7B1FA24
:1052A0000100200004F099FD29003800FEF7A9FA5A
:1052B000FDF78CF90A21200005F0F6FB01350A20E4
:1052C000FDF7B2F9062DBFD10A21200005F0ECFB55
:1052D0000A20FDF7A9F9954F40352900200005F077
:1052E000E3FB01372800FDF79FF97B1E1D78002D99
:1052F000F3D10A21200005F0D7FB0A20FDF794F92D
:10530000370043352900200005F0CEFB0137280087
:10531000FDF78AF97B1E1D78002DF3D10A212000AC
:1053200005F0C2FB0A20FDF77FF9814F46352900C1
:10533000200005F0B9FB01372800FDF775F97B1E49
:105340001D78002DF3D10A21200005F0ADFB0A20C5
:10535000FDF76AF9774F46352900200005F0A4FBD8
:1053600001372800FDF760F97B1E1D78002DF3D171
:105370000A21200005F098FB0A20FDF755F96E4F31
:1053800046352900200005F08FFB01372800FDF786
:105390004BF97B1E1D78002DF3D10A21200005F06A
:1053A00083FB0A20FDF740F90A21200005F07CFB71
:1053B0000A20FDF739F9614F4D352900200005F02D
:1053C00073FB01372800FDF72FF97B1E1D78002D98
:1053D000F3D10A21200005F067FB0A20FDF724F92C
:1053E000370043352900200005F05EFB0137280017
:1053F000FDF71AF97B1E1D78002DF3D10A2120003C
:1054000005F052FB0A20FDF70FF94D4F4D352900ED
:10541000200005F049FB01372800FDF705F97B1E48
:105420001D78002DF3D10A21200005F03DFB0A2054
:10543000FDF7FAF8434F4D35354C2900200005F0B3
:1054400033FB01372800FDF7EFF87B1E1D78002D98
:10545000F2D10A21200005F027FB0A20FDF7E4F82D
:10546000394F4D352900200005F01EFB013728007B
:10547000FDF7DAF87B1E1D78002DF3D10A212000FC
:1054800005F012FB0A20FDF7CFF8304F4D3529000B
:10549000200005F009FB01372800FDF7C5F87B1E49
:1054A0001D78002DF3D10A21200005F0FDFA0A2015
:1054B000FDF7BAF8264F4D352900200005F0F4FA23
:1054C00001372800FDF7B0F87B1E1D78002DF3D1C1
:1054D0000A21200005F0E8FA0A20FDF7A5F81D4F83
:1054E00054352900200005F0DFFA01372800FDF7C8
:1054F0009BF87B1E1D78002DF3D10A21200005F0BA
:10550000D3FA0A20FDF790F8134F553526E0C04630
:105510007C220020C63B0100F73B0100FA3B010062
:10552000103C0100283C0100700F0020323C0100BB
:10553000503C01008A3C0100BA3C0100E83C0100FB
:10554000043D0100233D01004A3D0100713D010081
:10555000AE3D0100ED3D0100113E0100290020009B
:1055600005F0A2FA01372800FDF75EF87B1E1D78D2
:10557000002DF3D10A21200005F096FA0A20FDF74C
:1055800053F80A21200005F08FFA0A20FDF74CF8A5
:10559000DD4F41352900200005F086FA013728004B
:1055A000FDF742F87B1E1D78002DF3D10A21200063
:1055B00005F07AFA0A20FDF737F843352900200074
:1055C00005F072FA01362800FDF72EF8731E1D78DB
:1055D000002DF3D10A21200005F066FA0A20FDF71C
:1055E00023F8CA4E48352900200005F05DFA01363F
:1055F0002800FDF719F8731E1D78002DF3D10A213C
:10560000200005F051FA0A20FDF70EF8C04E48358B
:105610002900200005F048FA01362800FDF704F8BB
:10562000731E1D78002DF3D10A21200005F03CFAED
:105630000A20FCF7F9FFB74E48352900200005F095
:1056400033FA01362800FCF7EFFF731E1D78002D9A
:10565000F3D10A21200005F027FA0A20FCF7E4FF25
:10566000AD4E41352900200005F01EFA0136280014
:10567000FCF7DAFF731E1D78002DF3D10A212000FC
:1056800005F012FA0A20FCF7CFFFA44E413529009D
:10569000200005F009FA01362800FCF7C5FF731E4B
:1056A0001D78002DF3D10A21200005F0FDF90A2014
:1056B000FCF7BAFF9A4E41352900200005F0F4F9B5
:1056C00001362800FCF7B0FF731E1D78002DF3D1C2
:1056D0000A21200005F0E8F90A20FCF7A5FF914E09
:1056E00041352900200005F0DFF901362800FCF7DC
:1056F0009BFF731E1D78002DF3D10A21200005F0B9
:10570000D3F90A20FCF790FF874E4135290020008D
:1057100005F0CAF901362800FCF786FF731E1D78D4
:10572000002DF3D10A21200005F0BEF90A20FCF774
:105730007BFF7E4E41357E4C2900200005F0B4F9F8
:1057400001362800FCF770FF731E1D78002DF2D182
:105750000A21200005F0A8F90A20FCF765FF754E24
:1057600041352900200005F09FF901362800FCF79B
:105770005BFF731E1D78002DF3D10A21200005F078
:1057800093F90A20FCF750FF6B4E413529002000A9
:1057900005F08AF901362800FCF746FF731E1D78D4
:1057A000002DF3D10A21200005F07EF90A20FCF734
:1057B0003BFF624E41352900200005F075F90136A6
:1057C0002800FCF731FF731E1D78002DF3D10A214C
:1057D000200005F069F90A20FCF726FF584E233512
:1057E0002900200005F060F901362800FCF71CFFB5
:1057F000731E1D78002DF3D10A21200005F054F905
:105800000A20FCF711FF4F4E3F352900200005F01C
:105810004BF901362800FCF707FF731E1D78002D99
:10582000F3D10A21200005F03FF90A20FCF7FCFE25
:105830000A21200005F038F90A20FCF7F5FE009E49
:105840000A352900200005F02FF901362800FCF761
:10585000EBFE731E1D78002DF3D13B4E453529001C
:10586000200005F021F901362800FCF7DDFE731E4B
:105870001D78002DF3D10A21200005F015F90A202A
:10588000FCF7D2FE314E48352900200005F00CF916
:1058900001362800FCF7C8FE731E1D78002DF3D1D9
:1058A0000A21200005F000F90A20FCF7BDFE284E71
:1058B00047352900200005F0F7F801362800FCF7ED
:1058C000B3FE731E1D78002DF3D10A21200005F0D0
:1058D000EBF80A20FCF7A8FE1E4E473529002000F1
:1058E00005F0E2F801362800FCF79EFE731E1D78D5
:1058F000002DF3D10A21200005F0D6F80A20FCF78C
:1059000093FE154E463529E0423E0100603E0100FF
:10591000943E0100B53E0100D53E0100053F010067
:105920003E3F0100753F0100973F0100CA3F010063
:105930007C220020004001003C4001007E4001002C
:105940009D400100C4400100ED400100F64001000F
:105950002B41010046410100624101002900200065
:1059600005F0A2F801362800FCF75EFE731E1D78D4
:10597000002DF3D10A21200005F096F80A20FCF74B
:1059800053FE4E4E46352900200005F08DF80136B5
:105990002800FCF749FE731E1D78002DF3D10A2163
:1059A000200005F081F80A20FCF73EFE444E463503
:1059B0002900200005F078F801362800FCF734FEB5
:1059C000731E1D78002DF3D10A21200005F06CF81C
:1059D0000A20FCF729FE3B4E46352900200005F041
:1059E00063F801362800FCF71FFE731E1D78002D9A
:1059F000F3D10A21200005F057F80A20FCF714FE25
:105A0000314E46352900200005F04EF801362800B9
:105A1000FCF70AFE731E1D78002DF3D10A21200029
:105A200005F042F80A20FCF7FFFD284E4135284CCE
:105A30002900200005F038F801362800FCF7F4FDB5
:105A4000731E1D78002DF2D10A21200005F02CF8DC
:105A50000A20FCF7E9FD0A352900200005F024F8AA
:105A60002800FCF7E1FD009B01330093013B1D780A
:105A7000002DF1D1174BDB79002B14D1164E4D358B
:105A80002900200005F010F801362800FCF7CCFDB5
:105A9000731E1D78002DF3D10A21200005F004F8B3
:105AA0000A20FCF7C1FDFFF7F3FA0A21200004F0F9
:105AB000FBFF0A20FCF7B8FDF7BDC04679410100A5
:105AC000A9410100CA410100FF4101002342010038
:105AD0007C220020D01100204842010070B55224E1
:105AE0000D4D0E4E2100300004F0DEFF0135200088
:105AF000FCF79AFD6B1E1C78002CF2D10A213000B5
:105B000004F0D2FF0A20FCF78FFDFEF793FB200084
:105B1000FFF732FB70BDC046E23A01007C22002054
:105B200010B5124894B002F0F3FC0090104802F057
:105B3000EFFC01900F4802F0EBFC02900E4802F0DF
:105B4000E7FC04AA03900421684600F0FAFF0B4C1E
:105B500004A9200004F041F90A21200004F0A4FF68
:105B600004A8FCF74FFD14B010BDC046B0080020DB
:105B7000600A0020100C0020C00D00207C220020B4
:105B8000F7B514260A24122003F084FF200003F046
:105B9000BBFD122003F07EFF0700200003F0B4FDE0
:105BA000132003F077FF200003F0AEFD132003F075
:105BB00071FF124D220039000190280004F075F9A0
:105BC0003800FCF70BFD0E4F2800390004F005F9F2
:105BD0003800FCF7FBFC22000199280004F065F96D
:105BE0002100280004F060FF0198FCF713FD013E3E
:105BF000642003F089FD002EC5D1F7BD7C22002072
:105C0000E039010070B50D4D0D4C2800210004F065
:105C1000E4F80A21280004F047FF2000FCF7F2FC1A
:105C2000084802F002FE084802F0FFFD074802F0B3
:105C3000FCFD074802F0F9FD70BDC0467C22002043
:105C4000A5380100B0080020600A0020100C0020D8
:105C5000C00D00200023F0B50A2685B00393814CC7
:105C6000814D2000290004F0B8F82800FCF7AEFCB4
:105C700032000399200004F018F93100200004F0EC
:105C800013FF0398FCF7C6FC784D2000290004F0B0
:105C9000A4F82800D825FCF799FC039B6D005D4310
:105CA000734BED18280002F0A7FC32000100200021
:105CB00004F015F93100200004F0F6FE280002F08F
:105CC0009BFCFCF7A7FC6B4F2000390004F085F823
:105CD0003800FCF77BFC280002F0AAFE09F046FA27
:105CE0000B00022102000091200004F0B3F9310002
:105CF000200004F0D9FE280002F09AFE07F0EEFB27
:105D0000FCF788FC5C4F2000390004F066F838008E
:105D1000FCF75CFC280002F072FD09F027FA0B008A
:105D2000022102000091200004F094F931002000CB
:105D300004F0BAFE280002F062FD07F0CFFBFCF78A
:105D400069FC4E4F2000390004F047F83800FCF79A
:105D50003DFC280002F0DCFB32000100200004F0D2
:105D6000A4F83100200004F09FFE280002F0D0FBD0
:105D7000FCF750FC424F2000390004F02EF83800A8
:105D8000FCF724FC280002F0EFFB320001002000A9
:105D900004F08BF83100200004F086FE280002F0A9
:105DA000E3FBFCF737FC374F2000390004F015F80F
:105DB0003800FCF70BFC280002F0CEFB320001009B
:105DC000200004F072F83100200004F06DFE28007D
:105DD00002F0C2FBFCF71EFC2B4F2000390003F041
:105DE000FCFF3800FCF7F2FB280002F00FFD320048
:105DF0000100200004F059F83100200004F054FEA6
:105E0000280002F003FDFCF705FC204F20003900BC
:105E100003F0E3FF3800FCF7D9FB280002F0FDFC9B
:105E200032000100200004F040F83100200004F0AE
:105E30003BFE280002F0F1FCFCF7ECFB144D2000C7
:105E4000290003F0CAFF3100200004F02DFE2800D5
:105E5000FCF7D8FB039B01330393042B00D0FEE631
:105E600005B0F0BD7C220020CA390100D439010000
:105E7000B0080020DB390100E4390100F4390100E9
:105E8000FB390100093A0100163A01001D3A0100F0
:105E90002B3A0100F0B5AB4DAB4CAC4FAC4E87B0DC
:105EA0000295039404970596092800D932E106F07B
:105EB0007FFA0A003B006A008F00C200F300250150
:105EC00028012B012E01A34CA3486378012B26D176
:105ED00000236370FCF759FC4425FEF777F99F4FC8
:105EE0009F4E2900300004F0DFFD01372800FCF749
:105EF0009BFB7B1E1D78002DF2D1637802AA9B00CC
:105F00009958300003F069FF0A21300004F0CCFDFD
:105F1000637802AA9B009858FCF774FB31E00123D8
:105F20006370FCF735FCD7E78A4D53242B7A5A422D
:105F300053412B72FEF74AF98A4F894E21003000F7
:105F400004F0B2FD01372000FCF76EFB7B1E1C78CD
:105F5000002CF2D12B7A02AA9B009958300003F052
:105F60003CFF0A21300004F09FFD2B7A02AA9B001F
:105F70009858FCF747FB2B7A002B02D02000FFF744
:105F8000FBF807B0F0BD734C5725A3795A42534133
:105F9000A371FEF71BF9744F714E2900300004F015
:105FA00083FD01372800FCF73FFB7B1E1D78002D89
:105FB000F2D1A37904AD9B005959300003F00DFFD5
:105FC0000A21300004F070FDA3799B005859A3E723
:105FD000604CD826E37900255A425341E371FEF71D
:105FE000F5F876003000E17968434B1E99415F4B2C
:105FF000C9B2C018013502F024FC042DF2D15C4F67
:106000004935574E2900300004F04EFD0137280075
:10601000FCF70AFB7B1E1D78002DF2D1E37904AD5D
:106020009B005959300003F0D8FE0A21300004F0DB
:106030003BFDE379C9E743254E4B0193484C2900CA
:10604000200004F031FD2800FCF7EEFA019B01333B
:106050000193013B1D78002DF0D13E4B5A78042A64
:106060000ED1390020005D7003F0B7FE0A21200038
:1060700004F01AFD3800FCF7C5FAFEF7A7F880E730
:106080000422310020005A7003F0A7FE0A212000EC
:1060900004F00AFD3000EEE74827374B0193304EFD
:1060A0003900300004F000FD3800FCF7BDFA019B18
:1060B00001330193013B1F78002FF0D1254B2F486E
:1060C0005A78052A0CD15F70FDF777FC2900300063
:1060D00003F083FE0A21300004F0E6FC2800CAE742
:1060E00005225A70FDF766FC2100300003F075FEB2
:1060F0000A21300004F0D8FC2000BCE7FFF710FDB7
:106100003FE7FFF73DFD3CE7FFF77CFD39E7FFF791
:10611000A1FD36E741241A4D114E2100300004F054
:10612000C3FC01352000FCF77FFA6B1E1C78002CA5
:10613000F2D10A21300004F0B7FC0A20FCF774FA0F
:106140001FE7C0461E3D0100463D010075420100AB
:106150007E420100D0110020B8050020F83A01006D
:106160007C220020033B0100183B0100B008002006
:10617000293B0100313B01003B3B0100D0100020D6
:10618000483B0100F0B5774B87B00493764B029003
:106190000593764D042816D94624754E2100280013
:1061A00004F082FC01362000FCF73EFA731E1C78D6
:1061B000002CF3D10A21280004F076FC0A20FCF719
:1061C00033FA07B0F0BDD824029B64005C43694BEE
:1061D000E418694B1F001E7FA437002E00D18FE00A
:1061E0000021200002F0E0F964233B600023624AB2
:1061F0001377614B1E00D0363278002A06D0CC339C
:106200001968200002F00DFA0023337046265B4F18
:106210003100280004F048FC01373000FCF704FA94
:106220007B1E1E78002EF3D10A220299280003F06B
:106230003CFE0A21280004F037FC0298FCF7EAF93A
:106240004F4F4D363100280004F02EFC013730004E
:10625000FCF7EAF97B1E1E78002EF3D1200002F035
:10626000CBF904AE80008159280003F0B6FD0A2165
:10627000280004F019FC200002F0BEF980008059CB
:106280005426FCF7BFF93F4F3100280004F00CFC06
:1062900001373000FCF7C8F97B1E1E78002EF3D1C1
:1062A000354E0A22A4363168280003F0FEFD0A218B
:1062B000280004F0F9FB30685426FCF7ABF9324FA4
:1062C0003100280004F0F0FB01373000FCF7ACF996
:1062D0007B1E1E78002EF3D1200002F09EFA0A22C7
:1062E0000100280003F0E1FD0A21280004F0DCFB96
:1062F000200002F092FAFCF78DF9FEF7C9FE60E784
:10630000224B1B780393002B07D00121200002F0C1
:106310004BF91E4B3E601E706BE7174EA836337864
:10632000002B0FD01A4B6422009303994B2338683B
:1063300004F0AAFB0100200002F0A2F86B461B7BD0
:10634000337056E7200002F057F9414241412000E6
:1063500002F02AF9200002F04FF964235843386014
:1063600047E7C046734101005B4101007C220020E9
:10637000893A0100B0080020D0140020A13A0100A1
:10638000AB3A0100C03A0100D23A01006415002086
:10639000B6030000F0B5794B85B00293784B01004D
:1063A0000393784C052815DD4725774E29002000FA
:1063B00004F07AFB01362800FCF736F9731E1D78CD
:1063C000002DF3D10A21200004F06EFB0A20FCF717
:1063D0002BF9ABE0431C00D1C0E06C4D2800FDF769
:1063E000F9F96B4F3B7F0193002B00D1A0E028000F
:1063F0000021FDF739FA0020387700903E00A836DA
:106400003378002B07D03B00A43319682800FDF730
:1064100020FA002333703E00D0363378002B07D0AB
:106420003B00CC3319682800FDF738FA002333709D
:1064300047262800FDF742FA564F3100200004F0AD
:1064400033FB01373000FCF7EFF87B1E1E78002E7F
:10645000F3D12800FDF7D1F90100200003F0BDFCC5
:106460000A21200004F020FB2800FDF7C6F9FCF704
:10647000C9F8494F44363100200004F015FB0137BC
:106480003000FCF7D1F87B1E1E78002EF3D1009B64
:10649000980002ABC6582000310003F09EFC0A2190
:1064A000200004F001FB30005026FCF7ABF83B4F16
:1064B0003100200004F0F8FA01373000FCF7B4F89E
:1064C0007B1E1E78002EF3D12800FDF7CBF90A229F
:1064D0000100200003F0E9FC0A21200004F0E4FAA6
:1064E0002800FDF7BFF9FCF795F82D4F5336310022
:1064F000200004F0D9FA01373000FCF795F87B1E34
:106500001E78002EF3D12800FDF7D3F90A220100EE
:10651000200003F0CAFC0A21200004F0C5FA28007C
:10652000FDF7C7F9FCF776F8FEF7B2FD05B0F0BD50
:106530003E00943633780093002B07D001212800C9
:10654000FDF792F96B461B79337057E72800FDF78A
:106550009CF9431E9841C3B200934FE747250A4E6A
:106560002900200004F0A0FA01362800FCF75CF8AE
:10657000731E1D78002DF3D124E7C0465B41010056
:10658000734101007C2200203C3A0100700F002082
:10659000D0140020523A0100B43A0100C73A010079
:1065A000D93A0100F7B507004D254D4B4D4E0093EC
:1065B0004D4B01934D4C2900200004F075FA013633
:1065C0002800FCF731F8731E1D78002DF2D1032F3F
:1065D00000D975E0380005F0E1FE0220374E44484E
:1065E000FCF70FFA00224F25424B5A70FDF7EEFDE3
:1065F000414E2900200004F057FA01362800FCF72C
:1066000013F8731E1D78002DF3D10A21200004F029
:106610004BFA0A20FCF708F8F7BD3548FCF7F5F906
:1066200002225325334B5A70FDF7D0FD334E29001B
:10663000200004F039FA01362800FBF7F5FF731E3D
:106640001D78002DF3D1E0E72948FCF7E2F9032299
:106650005025284B5A70FDF7B9FD294E290020001E
:1066600004F022FA01362800FBF7DEFF731E1D78C6
:10667000002DF3D1C9E75025224E2900200004F057
:1066800013FA01362800FBF7CFFF731E1D78002D8B
:10669000F3D1174D2800FCF7ADF96B468000C158C7
:1066A000200003F09AFB0A21200004F0FDF92800E5
:1066B000FCF7A0F96B468000C058FBF7A3FFABE7DF
:1066C0004E25114E2900200004F0EEF90136280075
:1066D000FBF7AAFF731E1D78002DF3D195E7C04686
:1066E00075420100633B01007E4201007C220020D4
:1066F000E0050020D01100201F3D0100974201005D
:10670000A4420100723B01007F3A010070B5431CB6
:1067100003D0104B5880FDF759FD50240E4E0F4DFD
:106720002100280004F0C0F901362000FBF77CFFAF
:10673000731E1C78002CF2D1064C0A2261882800B6
:1067400003F0B3FB0A21280004F0AEF96088FBF7E0
:1067500061FF70BDD0110020B93901007C220020FA
:10676000F0B52025724B8BB00393724B05AA0493AE
:10677000714B724E13CB13C203CB03C2704C290072
:10678000200004F091F901362800FBF74DFF731E3D
:106790001D78002DF2D10A21200004F085F90A208D
:1067A000FBF742FF5F261C3531002000013D04F05D
:1067B0007BF9EDB23000FBF737FF002DF4D1614ECD
:1067C0000A352900200004F06FF901362800FBF794
:1067D0002BFF731E1D78002DF3D1FDF77FFF5A4E5E
:1067E0004F352900200004F05FF901362800FBF73F
:1067F0001BFF731E1D78002DF3D102F04FFF00F038
:10680000D5F90A21200004F04FF90A20FBF70CFF0C
:106810004E4E54353000FDF7AFFC4D4F290020009F
:1068200004F042F901372800FBF7FEFE7B1E1D78BD
:10683000002DF3D13000FDF767FB08F097FC0B004B
:10684000022102000091200003F004FC3000FDF75B
:106850005BFB06F043FEFBF7C1FE3E4E27352900E9
:10686000200004F021F901362800FBF7DDFE731E3D
:106870001D78002DF3D10A21200004F015F90A201B
:10688000FBF7D2FE344E45352900200004F00CF908
:1068900001362800FBF7C8FE731E1D78002DF3D1CA
:1068A00001212E48FCF716FE2D4E4D352900200003
:1068B00004F0FAF801362800FBF7B6FE731E1D78C7
:1068C000002DF3D114266A46264D92196B782000CC
:1068D0009B00D15803F081FA0A21200004F0E4F86B
:1068E0006A466B7892199B00D058FBF78BFE1E4FBF
:1068F00039363100200004F0D7F801373000FBF7BB
:1069000093FE7B1E1E78002EF3D1EB7903AE9B0025
:106910009959200003F061FA0A21200004F0C4F81C
:10692000EB799B009859FBF76DFE0BB0F0BDC046AC
:10693000754201007E42010064380100823B010083
:106940007C220020F73B01009A3B0100141100203B
:10695000A33B0100AA3B0100AD3B0100B0060020B3
:10696000B63B0100D0110020BD3B0100F7B53E4D04
:10697000280004F0A3F8002807D0280004F0CEF87F
:10698000C4B2002C06D1002612E0384B384A1B78DE
:10699000D45CF6E7354B1F780A2C01D00D2C09D1B9
:1069A0000023344AD3559F42EDD001262F4A13705D
:1069B0003000FEBD3F2F04D906212F48FCF796FD7D
:1069C000E1E72000FEF798F9061E05D0274A7B1C58
:1069D0001370284BDC55D6E75727284B0193390015
:1069E000280004F061F83800FBF71EFE019B01331C
:1069F0000193013B1F78002FF1D12100280003F003
:106A0000F0F92000FBF7EAFD1D4B27370193390011
:106A1000280004F049F83800FBF706FE019B01331B
:106A20000193013B1F78002FF1D121001022280093
:106A300003F03BFA200029241021FBF7D9FD114F68
:106A40002100280004F030F801372000FBF7ECFDAE
:106A50007B1E1C78002CF3D10A21280004F024F8B6
:106A60000A20FBF7E1FDA3E77C2200208C14002024
:106A70009D0400208D140020B0060020793801000C
:106A8000853801008B38010070B5FBF731FEFFF748
:106A90006DFF00281BD00E4B5B78042B13D00D4CE0
:106AA0000A21200004F000F80A20FBF7BDFD0A4D82
:106AB0002000290003F091F90A21200003F0F4FFDF
:106AC0002800FBF79FFDFEF78FF9FEF749F970BD2F
:106AD000D01100207C2200208D140020FA21094BC7
:106AE00010B51A688900501C186005F0DBFD0029FC
:106AF00003D1054A1368013313600448FCF798FD7D
:106B000010BDC0461016002014160020B00600204C
:106B100010B5024802F0E4F910BDC046DD6A00007D
:106B2000012383431800704710B50123002806D0C5
:106B300008F0EAFA05F036F908F076FA431C180076
:106B400010BDF8B50F00150004000026BE420DDA96
:106B500029000A22206802F035FE01CCFFF7E4FF8D
:106B60002C232818451C03700136EFE700232B70F7
:106B7000F8BD0000F7B5002403780D001700A3420C
:106B800010D0094E01AA31000AF0A7F9002809D057
:106B900008F0FEFB013401C5BC4203DA01AA310052
:106BA0000020F1E72000FEBDB4420100F7B5FA2154
:106BB0008900040005F006FC41490500200005F0AD
:106BC00001FC4049C3B207002800009305F080FC97
:106BD0000C00E1212000090105F0F4FBE121C3B222
:106BE000060009012000009305F072FC0C003C2116
:106BF000200005F0E7FB6B4600901B783C2120004D
:106C0000019305F065FC0D00092F06D830212E48B0
:106C100003F04AFF3020FBF707FD2B4C0A22F9B2A4
:106C2000200003F05CF93800FBF7D8FC3A21200083
:106C300003F03AFF3A20FBF7F7FC092E06D8302183
:106C4000200003F031FF3020FBF7EEFC0A22F1B206
:106C5000200003F044F93000FBF7C0FC3A2120008B
:106C600003F022FF3A20FBF7DFFC009B092B06D83C
:106C70003021200003F018FF3020FBF7D5FC0A225A
:106C80000199200003F02BF90098FBF7A7FC3A21AB
:106C9000200003F009FF3A20FBF7C6FC092D06D8B7
:106CA0003021200003F000FF3020FBF7BDFC29005D
:106CB0000A22200003F007F92800FBF78FFCF7BD3C
:106CC000005C2605805101007C2200200022014B3F
:106CD0001A70704718160020A522034B1A72DA7931
:106CE000D209FCD17047C046001000400221064B7B
:106CF0001A788A431A70DA79D209FCD1997901326B
:106D00000A439A717047C046001000400D4B0E4A6E
:106D100030B59A600D4A5A605A78D209FCD10C4AB3
:106D20000C495A800422CA67C021C0240A4B49007A
:106D30005A50A4001959094D294019511A600123CC
:106D4000037030BD000C004002040000020311007B
:106D50000342000004E100E000E100E0FFFF00FF6B
:106D6000F8B5037806000D001700002B01D1FFF7DE
:106D7000CDFF0023474C2370E379DB09FCD1464B60
:106D80009D4250DC002D4ED0AD022800FA21F53096
:106D9000FF30890005F0A0FB404B984247DC404B98
:106DA000984248DC3F4B984249DC3F4B98424ADCD2
:106DB0003E4B98424BDCFF284DDC7F284FDC3F28C0
:106DC00050DC1F2851DC0F2852DD1025FF3BFF3B14
:106DD0000F2101220B40002F4DD060791B0102438F
:106DE00062710B22607888430243627062781140BE
:106DF0000B4363700423227813432370E379DB0988
:106E0000FCD13000FFF768FF022322781343237080
:106E1000E379DB09FCD1FA208023800068439B00E2
:106E2000C0188012F8BD80250B23ED01D0E7802526
:106E30000A23AD01CCE7802509236D01C8E7802531
:106E400008232D01C4E780250723ED00C0E7802536
:106E50000623AD00BCE7802505236D00B8E70423B9
:106E60008025B5E703234025B2E702232025AFE7BD
:106E700000230825ACE720790243227162788A4317
:106E8000134304226370237893432370E379DB096F
:106E9000FCD1B6E7001000407F3E0000FF1F00005D
:106EA000FF0F0000FF070000FF030000FF010000CC
:106EB000F0B5040085B01E000AAB1B7810300193BA
:106EC0000BAB1B78170002930CAB1B780D000393E0
:106ED00000F0F4F82000243000F0F0F82200002345
:106EE0004032A363E363137063729D4205D10A4B82
:106EF0000A4A22210A4808F02DFA6B461B79200025
:106F000063716B461B7A2560E3716B461B7B2771AF
:106F1000A671237205B0F0BDB64201002A430100FC
:106F2000C7420100437A002B04D18372C372C3604D
:106F300001334372704730B5040085B002AD00687C
:106F40000291039203F07AF96B79227AE179009346
:106F50002068002303F01CFB2979029A206803F0C3
:106F600091F9206803F060F905B030BD70B51826BE
:106F70000400FFF7D7FF3300082120790D4D43436C
:106F8000EB18595602F06EFE33000821A0794343F6
:106F9000EB18595602F066FE082160794643AD1998
:106FA000695602F05FFE044B200006CBFFF7C3FFDB
:106FB00070BDC046404A01006016002007B5837AC4
:106FC00000910192002B07D09A070AD5EFF31083A6
:106FD0005A425341C37272B60099019AFFF7ABFF50
:106FE00007BDDB07F8D5C368014A9BB29360F3E79E
:106FF00000180040837A002B05D09A0704D5C37A85
:10700000002B00D062B67047DB07FCD5C368024A8C
:107010009BB2D360F7E7C0460018004010B5006887
:1070200003F015F910BD00001FB5094A094B0A49C4
:1070300013600023537113710293013301931633CC
:107040000093162201330548FFF732FF05B000BD5B
:107050006016002000093D006C2200201C16002054
:10706000094B1868002809D1EFF310820749002A5C
:1070700008D172B6BFF35F8F01320A701A6801320D
:107080001A6070470870F9E76C1600206816002037
:10709000084B1A68002A0CD01A68013A1A601B685B
:1070A000002B06D1044B1B78002B02D0BFF35F8F5F
:1070B00062B670476C16002068160020FF2300217E
:1070C00010B504000370FC3B41708170C170017108
:1070D00043710C22083008F0EBF9200010BD0000CD
:1070E00001220B0010B5134008D00D4B1A70042379
:1070F00043708368002B00D0984710BD02221142D4
:1071000004D007490A704370C368F3E704231942A7
:10711000F3D0034A1370033343700369EAE7C046B0
:107120004E48004110B5FFF79BFF0C4B1B8C1B0713
:107130001B0F0B2B0FD80A4A9900885800280AD039
:107140000F2408490A78A24313430B70064B1978A1
:10715000C9B2FFF7C5FFFFF79BFF10BD0048004114
:10716000701600203F4800414E48004170B50F4C5A
:107170000F4EA54404000F4801AA43690169651C2C
:1071800000F006F9320001A9280008F088F9A35D93
:10719000002B05D18022FF21D200280008F088F9B9
:1071A000012323708123DB009D4470BDF8FBFFFFAA
:1071B00001040000A41A002070B5037804000D003B
:1071C000002B01D1FFF7D2FF6419607870BD000079
:1071D000037870B505000C001600002B01D1FFF7F5
:1071E000C5FF2C196378B34203D00122014BEA5446
:1071F000667070BD0204000010B5FFF7E9FF10BD16
:1072000010B503780400002B01D1FFF7AFFF014B4D
:10721000E05C10BD0104000010B5114C0378A544DA
:107220000400002B01D1FFF7A1FF0E4BE35C002B04
:1072300012D001230C4AE118A35401A808F02FF939
:107240000A4C62692169200000F090F8636901AA84
:107250002169200000F03AF88123DB009D4410BD35
:10726000F8FBFFFF0204000001040000A41A002044
:1072700010B5054A0549064800F010F80022054BF4
:1072800005491A705A5410BD010400000044010061
:10729000A41A0020A01600200204000030B5094DF9
:1072A000094CAB685B035B0F9B001C590460AB6827
:1072B00001619BB243606343A4008360C460426188
:1072C00030BDC0460040004100490100F7B58026AE
:1072D0001A4D01916F6803333E439B086E60002B8B
:1072E0002BD0174E2E802E7DF107FCD51E0007688F
:1072F000991BBF088F4219D9002E17D0FF2117788C
:107300008C433C430F4957780C403F023C439778ED
:10731000013E39040C4F2740D478BFB20F432406F6
:1073200001993C4310C101910432E0E7074B2B80E7
:107330002B7DDB07FCD53300D1E7F7BD00400041D2
:1073400044A5FFFFFF00FFFFFFFF00FF04A5FFFFB5
:10735000044B054A4908D9611A801A7DD207FCD529
:107360007047C0460040004102A5FFFF70B5040011
:107370000D001600E36829002000B34205D2FFF794
:10738000E7FFE368ED18F61AF4E7FFF7E1FF70BDD9
:1073900010B510001A0008F082F810BD00207047E8
:1073A00070470000FA2292008260044A00230260C3
:1073B00001224360027443747047C04628490100AB
:1073C000F7B506000F0000241D0008AB1B780092E3
:1073D0000193002D19D0336830001B6998470028AD
:1073E00027D0336830005B699847C0B20D28F2D0CF
:1073F0000A2804D1002CEED0019B002B05D0385573
:10740000009B0134A4B2A342E5D800233B55737C12
:10741000002B0CD0002C0AD00A4D3900280002F0B5
:10742000DCFC009BA34202D9280002F0DFFC200014
:10743000FEBD013DADB2002DE7D0012002F064F9A0
:10744000C7E7C0467C22002010B5437C94B00400FE
:10745000002B03D01149124802F0BBFC0022A368A4
:1074600000929BB2403203A92000FFF7A9FF002839
:1074700012D00C4903A808F087FE00280BD00A4957
:1074800003A808F081FE002806D0200003A91230CE
:1074900008F084FEE2E7012014B010BD4849010065
:1074A0007C2200204D4901005049010037B50500FC
:1074B00000248368123529009BB200944022FFF714
:1074C0007FFF2100A04204D02200280009F08CFD9B
:1074D000010008003EBDF8B5050017000E00013F91
:1074E0001ED334782B6821091B683022092900D962
:1074F00007328918280098470F212B680C401B6819
:107500002131092C00D90731611828009847002F34
:1075100004D02B682D211B68280098470136DEE730
:1075200004204042F8BD0000F7B504000F0000251C
:10753000089E00920193009BAB4269D0EBB2002BF6
:1075400003D13D21200002F04CFC019A6B00D25A7D
:10755000FF2113008B438021C9008B423CD011D8FE
:10756000802189008B4230D0C022920093423AD0D1
:107570008022520093420ED1AB00F158200002F05D
:107580002CFC08E0C022D200934233D00DD8013A3F
:10759000FF3A934236D0009B013B9D4203D02C2101
:1075A000200002F01EFC0135C5E7E022D200934224
:1075B0002BD00132FF329342EDD1AB00F1580A22B9
:1075C000C9B2200002F08BFCE5E7AB00D2B2F15863
:1075D0002000FFF780FFDEE7AB000A22F158200011
:1075E00002F071FCD7E7AB000A22F158200002F04C
:1075F0003DFCD0E7AB00F15889B20A22200002F02E
:1076000054FCC8E7AB00F15EF7E7AB00F156F4E7D6
:10761000200002F0EBFB002F0AD0637C002B03D08C
:107620000549064802F0D5FB2000FFF73FFF386010
:107630002000FFF709FFFEBD484901007C22002021
:10764000F0B585B00392057C04000F001E00002DEC
:1076500003D103680121DB6998473900200002F05B
:10766000BCFB0B9B3200009303990A9B2000FFF7A1
:107670005BFF0600002D04D123682900DB69200090
:107680009847300005B0F0BDF0B585B00392057C99
:1076900004000F001E00002D03D103680121DB69E7
:1076A00098473900200002F094FB0B9B32000093B6
:1076B00003990A9B2000FFF737FF0600002D04D135
:1076C00023682900DB6920009847300005B0F0BD31
:1076D00007B5010000228368123100929BB240324C
:1076E000FFF76EFE0EBD000010B50400FFF75AFE56
:1076F000064B20002360FA23A36000236365A36583
:10770000E36523666366A36610BDC0466049010059
:1077100070B504000E000B4902F070FB2000FFF76B
:1077200093FE050001F0BAFF6065002E03D0FA2039
:10773000800001F0E9FF23682000DB6898472800FB
:1077400070BDC0468E4901001FB5C02202AB920039
:107750001A8003AA03910192009300220123024997
:10776000FFF792FF05B000BDA44901001FB500233B
:1077700003AA0193009305490393FFF785FF03983C
:10778000431E9841C0B205B000BDC046804901000B
:1077900070B5067C04000D00002E03D103680121A2
:1077A000DB6998470C49200002F028FB2000FFF716
:1077B0008FFF20002900123008F0E6FCC5432000AE
:1077C000ED0FFFF741FE002E04D123683100DB6985
:1077D00020009847280070BD9E4901000023012920
:1077E00004D8027C01338A4200D00174180070472B
:1077F00010B5C43000F08EFB10BD10B5040001F0D0
:107800004DFF23686268C31A002093424041C0B212
:1078100010BD0000F7B504000F0016001D00FFF7B3
:1078200063FF0F4B210008332360200001238331C5
:1078300000934022C43000F061FB23000322533345
:107840001A7022005F769E76DD76FF236F3213700A
:107850005370937023000022823320001A70FEBD03
:10786000B449010013B56B460122D91D3123047CB4
:10787000121B0274C4301B1B04000B7000F04FFB82
:1078800006220249200000F06FFB13BDA849010049
:10789000F7B50500002301916F35EB560600013363
:1078A00005D11648FFF7BAFB04002000FEBD0727EC
:1078B000002400200021285602F090F901217020B8
:1078C000B940019B3056194002F088F9002001218F
:1078D000285602F083F9712064003056E4B202F0B9
:1078E000A9F9002801D001231C43013FE1D2002067
:1078F0000021285602F072F9D7E7C0461C16002076
:1079000070B506000C008D18AC4206D0217830000E
:10791000FFF7BEFF20700134F6E770BDF0B58BB005
:10792000009310AB1E78050001911700002E02D1C4
:107930000368DB689847102305AC2370019B7F2206
:107940001B12A3706B461B7900996370E37811409A
:1079500093430B43E370009B102B00D000267F2243
:10796000F301E67816401E43E670002F07D0009B17
:10797000002B04D01A00390006A807F090FD2B0058
:107980006F3301931B785BB2013304D1254B26483A
:1079900006CBFFF713FB2E0000206C36305600217B
:1079A00002F01CF9AF6801F079FE0497039021788A
:1079B0002800FFF76DFFFE2813D103A8FFF71DFF76
:1079C000071E0ED100200121305602F007F9C8230E
:1079D0009B00013BFDD100203900305602F0FEF83B
:1079E000E5E703A8FFF709FF01244440E4B2002CB7
:1079F00007D00D21009A02AB0332C9182800FFF707
:107A00007FFF00200121305602F0E8F8019B1B782F
:107A10005BB2013302D10448FFF7ECFA20000BB04F
:107A2000F0BDC046BC1A00201C16002007B500227D
:107A3000024900921300FFF771FF0EBDEFBE000078
:107A4000F8B5417404006D20002120562500170070
:107A500002F094F800206C352856012102F08EF8CF
:107A600000200121285602F0B9F8002003352856DD
:107A7000431C2DD12048FFF779FA2000FFF7D6FFED
:107A80002500060000206E352856002815DB012150
:107A900002F074F800200121285602F09FF800201F
:107AA0000021285602F09AF80A2001F02DFE00204D
:107AB0000121285602F092F8012601F0EFFD6065E1
:107AC000002F03D0FA20800001F01EFE3000F8BD28
:107AD000012102F053F800200021285602F07EF820
