:10200000008000204D9600003596000035960000B7
:1020100000000000000000000000000000000000C0
:1020200000000000000000000000000035960000E5
:10203000000000000000000035960000A19600009E
:102040003596000035960000157C0000359600009E
:102050003596000035960000AD7B000039960000F3
:1020600035960000819500003596000035960000F9
:10207000858300003596000091950000898B000053
:10208000C58B0000018C00003D8C0000A18F00007A
:10209000798C0000359600003596000035960000DA
:1020A0003596000035960000359600003596000004
:1020B0000000000010B5064C2378002B07D1054B1B
:1020C000002B02D0044800E000BF0123237010BDA4
:1020D000800400200000000044540100044B10B5AF
:1020E000002B03D00349044800E000BF10BDC046E8
:1020F00000000000840400204454010010B5124C7C
:10210000FA21200007F0C4F9E1212000490207F07C
:10211000B1F90121200007F0A9F9002802D0200020
:1021200007F0A6F901220021200007F015FA02F0BD
:1021300039FA064B1B7A002B05D0642007F0F4FA1D
:10214000002003F019F810BD981D0020D0110020C8
:1021500010B5104C200000F00FFB002802D020002A
:1021600000F02CFB0C4C200000F03AFC002802D0C0
:10217000200000F0DFFF094C200001F019FC0028CE
:1021800002D0200001F068FE04F08CFC044805F049
:1021900037FD10BDB8050020E0050020D01000205C
:1021A000A416002010B504008068002801D00DF0AE
:1021B0005BF906202056002802DB002107F0EEFC28
:1021C000200010BD70B5050080680E00002801D009
:1021D0000DF04AF92B7BEC7BE41A631E9C4103341F
:1021E0007443A4B2AC8020000DF034F9A86000283C
:1021F00005D0220000210DF06BF96E8070BDA88023
:102200006880FBE70322F8B58B110D118E10164084
:10221000134015400A40467382730026FF228A420B
:1022200076418268C47B077BC37305730670002AFE
:102230000AD0E21B5B1B51424A4159424B419A4230
:1022400002D04188FFF7BEFFF8BD0000F8B58368F3
:102250000400002B00D1E9E007F036FA2369C01A28
:102260003128F9D972B6062318220120E356704F9F
:102270005343FA185268A6889040A268DB5D96190D
:10228000511C15786B4ADB019F186B4A9B1822780A
:10229000002A00D058E0803294463860C046C046DC
:1022A000C046C046C046C046C046C046C046C046FE
:1022B000C0462A4200D192E0C046C046C046C04651
:1022C000C046C046C046C046C046C046C046C046DE
:1022D000C046C046C046C046C046C046C046C046CE
:1022E000C046C046C046C046C046C046C04618604C
:1022F000C046C046C046C046C046C046C046C046AE
:10230000C046C046C046C046C046C046C046C0469D
:10231000C046C046C046C046C046C046C046C0468D
:10232000C046C046C046C046C046C046C046C0467D
:10233000521000D170E0D2B2C046C046C046C0467E
:10234000C046C046C046A8E7802294463860C046D2
:10235000C046C046C046C046C046C046C0462A42E7
:1023600021D0C046C046C046C046C046C046C04652
:10237000C046C046C046C046C046C046C046C0462D
:10238000C046C046C046C046C0461860521020D065
:10239000D2B2C046C046C046C046C046C046C0468F
:1023A000C046C046D2E71860C046C046C046C046D8
:1023B000C046C046C046C046C046C046C046C046ED
:1023C000C046C046C046C046C046C046C046C046DD
:1023D000DCE7B14226D20D7862460131B6E71860DB
:1023E000C046C046C046C046C046C046C046C046BD
:1023F000C046C046C046C046C046C046C046C046AD
:10240000C046C046C046C046C046C046C046C0469C
:10241000C046C046C0466BE7B14203D20D78624663
:1024200001313AE762B607F04FF92061F8BDC046C6
:10243000844A0100184400411444004170B54378B7
:1024400004000D00002B06D006202056002802DBD9
:10245000002107F0A3FB6378A571002B07D00121B1
:10246000280007F09BFB0021280007F0C7FB70BD88
:1024700070B51500002204000E004270C271826027
:1024800002611900FFF7BEFE31002000FFF79AFE3F
:1024900029002000FFF7D2FF200070BD4388F7B568
:1024A0008B421AD9C379150C140A002B16D1E4B249
:1024B000EDB20194D6B2B446047BC67B8768B442C1
:1024C00018D1032359437F186A46037B1279FD54C0
:1024D000437BFA546246837BFA54F7BDFF263440AF
:1024E00035405C4316405D435E43240A2D0A019447
:1024F000360AE0E789007F18120E002B02D1D3B212
:10250000BB55E1E753431B0AFAE7F7B543880200DE
:1025100000208B4224D9D57B177B9368D479567BD6
:10252000927BBD421DD10330414359188F5D485DF8
:102530003F028D5C002C10D02100000209F052FFF8
:1025400021000604380009F04DFF00020643210077
:10255000280209F047FF304302E0000438432843D3
:10256000FEBD890059188E5D485D3602CD5D8F5CD9
:10257000002C17D02100000209F034FF21000306CF
:102580002802019309F02EFF019D0004054321005C
:10259000380209F027FF21000543300009F022FF2F
:1025A0000002DCE700062D0428433843D3E707B5D3
:1025B000002201920092130004F0E8FC0EBD00001E
:1025C0000022014B1A7070479D04002010B50100D5
:1025D000014807F012FC10BDE004002010B5010016
:1025E0000A22024807F071FC10BDC046E00400203A
:1025F00010B50A000100024807F067FC10BDC04694
:10260000E004002010B50100014807F011FC10BDE6
:10261000E004002010B501000A22024807F059FC2E
:1026200010BDC046E004002010B50100014807F0CD
:10263000E8FB10BDE004002010B5042307220821A8
:10264000014804F08DFD10BDE0040020F8B500261F
:10265000204C214D0122310020002E7004F096FE06
:102660000121200004F0FAFC1C492000FFF79FFF25
:102670003100200004F00EFD07F020F80700F536C9
:10268000FF36200004F018FD002809D107F016F8E5
:10269000134BC01B984203D8300007F045F8F0E711
:1026A000200004F009FD002813D00E49200004F09A
:1026B00015FD002803D00C492000FFF778FF012307
:1026C000002120002B7004F02FFD0849200007F0A6
:1026D000AFFBF8BDE00400209C040020143401008E
:1026E00010270000283401002E340100403401007E
:1026F0000D4B70B51B78002B15D00C4D280004F045
:10270000DBFC00280FD00024280005F017F8002873
:1027100009D0280005F030F8431CF5D0044A631CAA
:102720001055DCB2F0E770BD9C040020E0040020EE
:102730009D04002010B50400034B1830036006F020
:102740007BFC200010BDC046644A010010B50400A7
:10275000183006F069FC0022054B2000A361054BF0
:1027600022616361002363600023237210BDC046B1
:10277000644A010000003940037801220020013B37
:10278000DBB29A424041C0B27047002303707047E9
:10279000022303707047000010B5054C2000FFF7BE
:1027A000D5FF044A0449200009F068FA10BDC0466C
:1027B000B8050020000000203527000070B5040097
:1027C000416900690CF040FC01002000183006F05F
:1027D00066FC002845D00021606809F0C3FF324D37
:1027E00000283FD0237A002B3CD0002328002372FE
:1027F00001F00CF8280001F000F82C4E0100300028
:1028000007F0FBFA0A21300008F05EF9280000F01A
:10281000F4FFFFF7F7FE280000F0EFFFFFF7F2FEEE
:10282000280000F0E6FF00281CD12378012B19D1E5
:10283000207045241E4D2100300008F045F9013577
:102840002000FFF7F1FE6B1E1C78002CF3D10A214B
:10285000300008F039F90A20FFF7E6FE1548FFF7C7
:10286000D1FE70BD207A4000404201300AF066FE81
:10287000616809F0DBFF10496060061C09F072FF17
:10288000002801D001232372301C0AF037FE01001A
:10289000280000F0DEFF2800FF2100F0FFFF2800E5
:1028A00001F00CF8DDE7C046700F00207822002010
:1028B00052340100513401000000C842037870B561
:1028C000002B19D10E4C01330370200000F095FF4E
:1028D0000C4D0100280007F090FA0A21280008F0AA
:1028E000F3F8200000F089FFFFF78CFE200000F0D5
:1028F00084FFFFF787FE70BD00230370FBE7C0462F
:10290000700F002078220020037870B5002B19D1B9
:102910000E4C02330370200000F06FFF0C4D0100DD
:10292000280007F06AFA0A21280008F0CDF82000F4
:1029300000F063FFFFF766FE200000F05EFFFFF788
:1029400061FE70BD00230370FBE7C046700F0020DE
:102950007822002070B504000500B034A5420AD0EA
:10296000583C2000054B3030236306F0B3FBE06891
:102970000CF07AFDF2E7280070BDC046644A010001
:10298000F8B5FF2300250027002604009B00866180
:10299000C7618560C560056105628562436230304C
:1029A00006F08EFBFF232667676726000B4A9B0015
:1029B000E3678836231D25666566A566A5672263DD
:1029C0003000DD6706F07CFB044B20003360230001
:1029D000B1331D70013B1D70F8BDC046644A010053
:1029E000B130037801220020023BDBB29A42404121
:1029F000C0B2704703000120B0331A7850401870FD
:102A000070470023B130037070470123B130037069
:102A100070470223B130037070470000F8B504001E
:102A20000700002501263034227D002A0BD15823CF
:102A30005D437F193B00553754331A7020003A70BC
:102A400006F068FBF8BD200006F050FB00280FD010
:102A5000164B2000998806F064FB002808D023005C
:102A600025331A78002A03D11E70200006F052FB8D
:102A70000E4B216A5B88E26999420CDA9A4205DBC7
:102A8000200006F028FB230024331E705834012D4B
:102A9000D8D03500C8E79A42F8DA200006F03AFBB1
:102AA0002300002224331A70F0E7C046D011002022
:102AB0000122124B70B50E001968114D114204D15C
:102AC000002010491A6028606960022004F036F87E
:102AD000040030000CF0EEFA02000B000BF0DEFCFC
:102AE0002A686B680BF0D0F803000A00002C02D0B3
:102AF000802212068A181800110070BD9806002066
:102B0000A0060020000010410300A433C16C1B6824
:102B100070B51F4E99421EDDFFF7CAFF02000B0081
:102B2000306871680AF094FD3060716034687568CF
:102B3000002200232000290009F0E0FD002816D122
:102B40000022144B2000290009F0ECFD002810D0D1
:102B50000024104D0DE09942E8DA1900FFF7A8FFB4
:102B600002000B00306871680BF00AFFDCE70024FC
:102B7000002534607560290020000CF065FA064CD1
:102B80000100200000F065FE200000F097FE70BDFF
:102B9000A806002000005940700F0020F7B54268D9
:102BA00004000D00101E37D0E3698B4200DD0B00DE
:102BB000E361236AAB4200DA2B002362638900934E
:102BC000009963880B409B00D318186801930CF0A0
:102BD00071FA02000B00206961690BF0D1FE06005A
:102BE00028000F000CF066FA02000B0030003900DC
:102BF0000AF02EFD06000F00002226616761002307
:102C000009F076FD002808D00023A3610120009B75
:102C100001336381019B1D60FEBD20880CF084FAA6
:102C200002000B00300039000BF02EF80CF00CFA0B
:102C3000A061EBE7582370B55943094B083144189C
:102C400058880321150009F0CDFBA26983B29B18B7
:102C5000AB4203DD29002000FFF7A0FF70BDC04696
:102C6000D0110020F8B5060004000025012772B637
:102C7000206806F01FFFA06462B6A26C2900300035
:102C8000FFF7D8FFE36C226A2365A36C9B1A0CD470
:102C9000E3642300E26C4433002A08DD1F705834DB
:102CA000012D00D1F8BD3D00E1E70023F0E700224F
:102CB0001A70F4E70300F7B5040080270500B83365
:102CC00008340193BF0038000CF0C4FB802323803C
:102CD0007F230021638000220023606023816381C1
:102CE00021616261A36198420ED01A00E361236200
:102CF00099B2802904D0606899000A500133F7E73F
:102D0000FF239B00E3612262802608492000013EE8
:102D1000FFF744FF002EF8D1019B58349C42D2D1DA
:102D200012232B600133AB65F7BDC0469D03000045
:102D300010B5054C2000FFF723FE044A044920008B
:102D400008F09CFF10BDC046E005002000000020F8
:102D500055290000F8B50600543633780500254C97
:102D6000002B24D0200000F08EFD01281FD000236E
:102D700041253370204E214F2900380007F0A4FE72
:102D800001362800FFF750FC731E1D78002DF2D18C
:102D90000A21380007F098FE0A20FFF745FC0121C0
:102DA000200000F061FD200000F088FDF8BDAC358A
:102DB0002B78002BF7D0200000F065FD0028F2D022
:102DC00000232B7041250E4E0C4F2900380007F0D0
:102DD0007BFE01362800FFF727FC731E1D78002DAF
:102DE000F2D10A21380007F06FFE0A20FFF71CFC21
:102DF0002900D5E7700F00206F34010078220020F1
:102E000078340100F0B58A4B85B00293894B2030AD
:102E10000393050000230093009B02AA9B009E5889
:102E2000854C3100200006F0E8FF30002026FFF737
:102E3000CDFB824F3100200007F046FE0137300005
:102E4000FFF7F2FB7B1E1E78002EF3D14D212000F0
:102E500007F03AFE4D20FFF7E7FB0A220099200019
:102E600007F033F80098FFF7B9FB754B3A361F00AF
:102E700001933100200007F027FE01373000FFF7F3
:102E8000D3FB7B1E1E78002EF3D10A22E96A2000B4
:102E900007F01BF8E86AFFF7A1FB6A4F093631001B
:102EA000200007F011FE01373000FFF7BDFB7B1E4D
:102EB0001E78002EF3D10A220099200007F005F8B1
:102EC0000098FFF78BFB019F3A363100200007F096
:102ED000FBFD01373000FFF7A7FB7B1E1E78002E9D
:102EE000F3D10A22A96A200006F0EFFFA86AFFF7D3
:102EF00075FB554F09363100200007F0E5FD01371D
:102F00003000FFF791FB7B1E1E78002EF3D10A22C2
:102F10000099200006F0D9FF0098FFF75FFB019FA2
:102F20003A363100200007F0CFFD01373000FFF7BF
:102F30007BFB7B1E1E78002EF3D10A22296820001D
:102F400006F0C3FF2868FFF749FB404F0936310000
:102F5000200007F0B9FD01373000FFF765FB7B1E4D
:102F60001E78002EF3D10A220099200006F0ADFF52
:102F70000098FFF733FB019F3A363100200007F03D
:102F8000A3FD01373000FFF74FFB7B1E1E78002E9C
:102F9000F3D12E00343631780A22200006F095FF56
:102FA00030780926FFF71AFB294F3100200007F07F
:102FB0008BFD01373000FFF737FB7B1E1E78002E9C
:102FC000F3D10A220099200006F07FFF0098FFF756
:102FD00005FB3A363100200007F076FD3000FFF7A0
:102FE00023FB019B01330193013B1E78002EF1D19D
:102FF0002E0035360A223178200006F066FF307840
:10300000FFF7ECFA0921200007F05EFD0920FFF729
:103010000BFB009B5835012B08D10A21200007F03B
:1030200053FD0A20FFF700FB05B0F0BD0123F2E6D7
:10303000934101007B410100782200204F3C0100B8
:103040000B51010063340100663401006934010052
:103050006C340100F7B5040054300378002B50D0D5
:103060002100AC310B78002B4BD0220000234727E6
:103070002B4D553213705832137003700B702800AB
:1030800000F0C4FB280000F07DFC280000F016FCD6
:10309000244B0193244E3900300007F015FD380011
:1030A000FFF7C2FA019B01330193013B1F78002F08
:1030B000F0D10A21300007F007FD0A20FFF7B4FA2B
:1030C0001A4B473701933900300007F0FDFC3800F8
:1030D000FFF7AAFA019B01330193013B1F78002FF0
:1030E000F1D1280000F089FB0100300006F085FED8
:1030F0000A21300007F0E8FC280000F07EFBFFF713
:1031000081FA0B4B5B78022B02D0032B04D0F7BD66
:103110002000FFF71FFEFAE72000FFF7F5FCF6E7B7
:10312000700F002082340100782200208E340100CC
:10313000D0110020030010B5B1331B780400002B20
:103140000FD0FFF78FFD2000FFF768FC2300B0339E
:103150001B78002B02D02000FFF754FE2000FFF761
:1031600079FF10BDF62310B50400044A5B00C2507D
:10317000C01805F061FF200010BDC046644A010080
:10318000F8B5040026000025012100220023ED36B9
:103190000560FF360C304942056041608160C260C5
:1031A0000361426183612030B042F5D105F03CFFFC
:1031B000F623424A5B00E250802300221B02236177
:1031C0003F4B2581A261E361220001232A32A572CF
:1031D000E57223851370230004272B331F70394BAE
:1031E0001E32E362384B2100236302231380937065
:1031F000D3700022354B6B312365354B0020A2651F
:10320000E3652300032268331A809A7005230B704C
:1032100030490026E1668021090421678C462E4949
:10322000A067E16721002D4888310F808F70CB7037
:10323000C9194D6008608B838B772948CB77203183
:10324000086020004D600621C83001808170210097
:103250002448CB310A70013108608020224F486039
:1032600020004E618F610721E8300180023001703B
:103270002100EB310A7022001C49EC321160FF2161
:10328000916080210020C905D06011612100184F94
:10329000FE31082057604B7323004881087315499D
:1032A000FC33196161469F615961F42300260E4F7A
:1032B0005B00D66217632000E554F8BD644A010044
:1032C0000000E03F46350100008080000040C00063
:1032D000000004405D350100000024408A350100F3
:1032E000AB350100D635010000001440ED3501007A
:1032F00000FFFF000636010070B505000C0008480D
:10330000084904F08FFD0F2800D900204101611801
:103310002800083120220CF0D2F8280070BDC046E9
:10332000A5160020FF03000010B50A00024803495B
:1033300004F098FD10BDC046A5160020FF03000054
:1033400010B5054C2000FFF71BFF044A044920007C
:1033500008F094FC10BDC046B0060020000000201C
:1033600065310000F7B50B880D0001920F2B18D9BD
:103370004524504D2100504807F0A6FB01352000A0
:10338000FFF752F96B1E1C78002CF3D1019B002B28
:1033900006D00A21484807F097FB0A20FFF744F9B6
:1033A000F7BD4B68002BFBD0C878434C013804288C
:1033B00012D809F003F870615243030046263F4FCC
:1033C0003100200007F080FB01373000FFF72CF9B7
:1033D0007B1E1E78002EF3D12B88632B06D830215C
:1033E000200007F071FB3020FFF71EF92B88092B16
:1033F00006D83021200007F067FB3020FFF714F9D2
:10340000202629880A22200006F05FFD2888FFF781
:10341000E5F82B4F3100200007F056FB0137300054
:10342000FFF702F97B1E1E78002EF3D16968200099
:1034300006F0E3FC6868FFF7C9F8A7E74526214FC7
:103440003100200007F040FB01373000FFF7ECF8B7
:103450007B1E1E78002EF3D1BEE757261A4F31008F
:10346000200007F031FB01373000FFF7DDF87B1E4D
:103470001E78002EF3D1AFE74926144F310020000B
:1034800007F022FB01373000FFF7CEF87B1E1E78D5
:10349000002EF3D1A0E744260D4F3100200007F0A5
:1034A00013FB01373000FFF7BFF87B1E1E78002E9C
:1034B000F3D191E7E93401007822002004350100BE
:1034C000013A01000A350100113501001A350100E9
:1034D00020350100036810B5002B02D1030028330A
:1034E000036001220168FFF73DFF10BDF8B504003D
:1034F0000D000E2900D9012523686E01A219D17A89
:10350000DA78914202D8002D04D0F8BD99782000D5
:1035100000F06AF86B1C08365B01A619E3182660F8
:1035200000221E685F6800233000390009F0E0F8CF
:1035300000280DD10022224B300039000AF0AEFFE6
:103540000BF082FD01002000ED30FF3005F075FD2D
:10355000002D04D0012221682000FFF703FF23681B
:10356000DC78052CD1D12A25164E174F29003800BA
:1035700007F0AAFA01362800FFF756F8731E1D78E7
:10358000002DF2D10A21380007F09EFA013C0A20F2
:10359000FFF74AF8002CE6D1D826760035006543BF
:1035A0000A4BED18280004F055FF002803D0002135
:1035B000280005F056F90134042CEFD1FEE7C0468F
:1035C00000408F402735010078220020B0080020FD
:1035D000030010B50833036000210248FFF786FF9F
:1035E00010BDC046B006002070B5036804009A788C
:1035F00000208A4219D1FE225200A25C82420FD0E2
:103600009A6801320CD0DB78084D032B05D9F423DE
:103610005B00E15C280001F099FA280001F052FA01
:1036200020000021FFF762FF012070BDDC110020A7
:1036300070B50500ED35FF350400280005F019FDD3
:10364000002809D0280005F003FD002804D02368D5
:1036500020009978FFF7C8FF70BD0000F0B50600A4
:10366000214C224D89B02100280006F0C6FB0A211A
:10367000280007F029FA2000FEF7C4FF3100684651
:10368000FFF73AFE6B469B78002B2BD05024184F47
:103690002100280007F018FA01372000FEF7C4FFC8
:1036A0007B1E1C78002CF3D1012269463000FFF705
:1036B00059FE104F45342100280007F005FA013764
:1036C0002000FEF7B1FF7B1E1C78002CF3D10A21ED
:1036D000280007F0F9F90A20FEF7A6FF21003000C4
:1036E000FFF722FE09B0F0BD9334010078220020DC
:1036F000C2340100DA34010070B50B4D0B4CAD3D06
:10370000FF3D20000A4E8430066005F0E3FC206E89
:103710000BF0AAFE26602000B13CFF3C05F0DAFC6D
:10372000AC42EED170BDC046B0080020C40D0020F0
:10373000704A010010B5094804F038FE084804F04A
:1037400035FE084804F032FE074804F02FFE074A11
:103750000749002008F092FA10BDC046B0080020CA
:10376000600A0020100C0020C00D00200000002086
:10377000F93600000023F0B5134C021D3C26134D12
:103780001370990069581500516000215E43104F75
:103790000835BE19675A2F8077180A316F600835CF
:1037A0003C29F7D1013338323C34062BE6D1802353
:1037B0005B020360AC23FF225B00C25203000430B3
:1037C000FC339865F0BDC0462000002004000020B6
:1037D000220000200200FC32062906DD06213823E3
:1037E00059430431411891657047CB43DB171940A9
:1037F000F5E7FC30836D18787047FC30836D5868AE
:103800007047382359434018806870470200FC32E3
:10381000936D1978042904D904309065936D187854
:103820007047382301314B430433C018F5E70200D9
:10383000FC32936D1978002905D11D30FF30906559
:10384000936D18787047382301394B430433C018FF
:10385000F5E70023994203DB642900DD64218BB284
:103860000380704700887047002903DA00234380F3
:10387000642306E00B1E00DD0123438000230029A2
:10388000F6DD038070474088704710B5040041881A
:103890004B425941FFF7E8FF608810BD0023994271
:1038A00003DBFF2900DDFF218BB2AC2252008352E3
:1038B0007047AC235B00C05A704700000300F0B5AE
:1038C00004000125FC339B6D028887B008331888FB
:1038D000691E05911989824242D38A4201D98242E6
:1038E00040D80026254F23000022FC33996D059B0C
:1038F00023489B1A01330493DB00CB185B689B5B66
:103900000393834202D1013292B2F0E700204219C0
:103910000132D2008B185B689B5B9C46184B9C4520
:1039200004D1013080B2F2E7012323E0049B525A14
:10393000D8006346415A00932088039B07F0B4F8EF
:103940000100380004F0ACFDAC235B003800E15A04
:10395000B137023604F075FEFF37082EC3D105E0FB
:103960008A42BED201350833072DB0D12388322BCD
:10397000DAD90023638007B0F0BDC046B00800204C
:10398000FFFF0000802310B55B020360FFF796FF86
:1039900010BD00000022024BFC339A657047C04600
:1039A000700F002010B50368C9B21B68984710BD9E
:1039B000007870470123037070470023037070473D
:1039C0000122174B70B519680400164E114204D13C
:1039D000002015491A6030607160022003F0AEF8D3
:1039E000051E01D0E588ED0B0623E05E0BF062FBBF
:1039F00002000B000AF052FD326873680AF044F9C5
:103A0000002D06D102000B0022626362206A616A07
:103A100070BD80231B06C91820626162F6E7C046AC
:103A200000110020081100200004914070B506002C
:103A3000FFF7C6FFB26AF36A09F00AFE002200230C
:103A400004000D0008F05AFE00280AD100220F4B96
:103A50002000290008F066FE002804D000240B4D49
:103A600001E000240025B462F562094CFF2120002A
:103A7000FFF714FFB06AF16A0BF0E6FA01002000CC
:103A8000FFF7E7FE2000FFF719FF70BD0000594067
:103A9000700F00200022024B5A709A707047C04687
:103AA000D0100020F7B5324E05003000FFF7A5FE1C
:103AB000304C0100200006F0A0F930002026FFF76E
:103AC0009CFEFEF783FD2C4F3100200006F0FCFF2A
:103AD00001373000FEF7A8FD7B1E1E78002EF3D1C3
:103AE0000623E95E0A22200006F0EFF90623E85ECD
:103AF000FEF774FD214F20363100200006F0E4FF70
:103B000001373000FEF790FD7B1E1E78002EF3D1AA
:103B10000223200000932A6A6B6A06F0ABFA286A37
:103B2000696A0BF091FAFEF759FD154F2036310006
:103B3000200006F0C9FF01373000FEF775FD7B1E3F
:103B40001E78002EF3D1A86AE96A0BF07DFA0A22EA
:103B50000100200006F0B9F90A21200006F0B4FFA8
:103B6000A86AE96A0BF070FAFEF754FDF7BDC0468B
:103B7000700F002078220020893601009136010064
:103B800099360100F0B5384E85B004000622522166
:103B9000300004F0FCFA0025300004F055FA00284B
:103BA0000AD0300004F05AFB02AB58550135012011
:103BB000EDB205F0B9FDEFE70327BC4602AB1E7876
:103BC000A6805878E08059799A788B103B40920013
:103BD0001A436B46019262469B88638102ABDF7891
:103BE0000B11BF0013403B4302AAA38117798A0936
:103BF000BF003A4301279446E2813A008A43F940E4
:103C00008F43617822746774002910D1618A019A08
:103C1000761AA18AA680401A218BE080521A62810E
:103C2000628B9B1A6246A381A38BD31AE3810E4C4D
:103C30005221200004F062FA00212000FFF7B2FEBA
:103C4000012005F071FD00212000FFF7ABFE0120EF
:103C500005F06AFD200004F0FCFA052005F064FD83
:103C6000280005B0F0BDC046C01A0020F8B5040019
:103C700043251A4F1A4E2900300006F025FF013760
:103C80002800FEF7D1FC7B1E1D78002DF2D1012308
:103C900020006370FFF776FFA38865706382E38876
:103CA000104DA38263892383A3896383E389A3835C
:103CB00020242100300006F007FF01352000FEF728
:103CC000B3FC6B1E1C78002CF3D10A21300006F0E7
:103CD000FBFE0A20FEF7A8FCF8BDC046A636010090
:103CE00078220020B5360100F8B5427C0400037C40
:103CF000002A02D1002B1FD1F8BD002B19D042257C
:103D0000244E254F2900380006F0DEFE013628003B
:103D1000FEF78AFC731E1D78002DF2D10A213800AF
:103D200006F0D2FE0A20FEF77FFC2000FFF79EFF80
:103D3000E2E71A48FFF76AFD237C184C002B02D0FB
:103D40002000FFF774FD2000FFF757FD124D010022
:103D5000280006F052F80A21280006F0B5FE2000DF
:103D6000FFF74BFDFEF74EFCFF212000FFF796FD0D
:103D70002000FFF707FEFA20400005F0D5FC0021E7
:103D80002000FFF78BFD2000FFF798FDC82005F00D
:103D9000CBFCB1E75536010078220020700F0020DF
:103DA0000022002370B50500026243628262C36292
:103DB000002000F05BFA254C5221200004F09EF90F
:103DC000F0212000FFF7EEFD012005F0ADFC5521AC
:103DD0002000FFF7E7FD012005F0A6FC200004F01D
:103DE00038FA2000522104F089F9FB212000FFF766
:103DF000D9FD012005F098FC00212000FFF7D2FD3D
:103E0000012005F091FC200004F023FA0A2005F0BF
:103E10008BFC2800FFF7B6FE2800FFF727FF0C4CAD
:103E20002000FFF7EAFC0B4D0100280005F0E5FF3C
:103E30000A21280006F048FE2000FFF7DEFCFEF70E
:103E4000E1FB2000FFF79EFD70BDC046C01A0020B8
:103E5000700F00207822002070B50D4D04002B78E3
:103E6000002B03D1FFF79CFF01232B702000FFF7ED
:103E700089FE00280BD02000FFF7D8FD2000FFF7B7
:103E800033FFA378002B02D02000FFF70BFE70BD9C
:103E900010110020704700006C22C021FF324281C7
:103EA000174B02220360C900164B41821E2110B538
:103EB000436007240023FF328281013AFF3AC17632
:103EC0008118037203820375C37503764376837684
:103ED00043778377C377C2810277CC77811CCB7716
:103EE000C11C0333CB77011DCB77431DDA77002349
:103EF0000365C365436503668365436610BDC046BD
:103F00006B0101010100000610B50400C06C04340F
:103F100009F014FBE16F08F023FE024908F086FC6B
:103F200010BDC0460000C84110B5054C2000FFF789
:103F3000B3FF044A0449200007F0A0FE10BDC046AC
:103F40001411002000000020953E0000F7B5170076
:103F50000E000F4C0193200008AB1D7804F0CEF842
:103F60003900200004F018F90021200004F039F98C
:103F70002A003100200004F00AF9019E7519AE42B2
:103F800005D0200004F06AF930700136F7E7F7BD7C
:103F9000C01A002013B50C00009301781300220012
:103FA000FFF7D4FF13BD000013B5040006236A46D3
:103FB0002821FFF7EFFFA3790D4A9B0080219B5832
:103FC000002263670902130068466B445B78805CDB
:103FD0001B020343500020180B4204D102328362BB
:103FE000062AF0D113BDDB439BB2DB43F6E7C046A4
:103FF0008801002037B50A4A031D126801ADDA674F
:10400000152102232A000400FFF7C4FF2B881AB2EF
:10401000002A01DBE36437BDDB439BB2DB43F9E7F6
:10402000B40100201FB50F2401236C440A0001785D
:1040300000932300FFF78AFF207804B010BD10B56D
:104040002721FFF7EFFF0123184010BD10B52721EE
:10405000FFF7E8FF4007C00F10BD13B50C00009339
:10406000817A13002200FFF771FF13BD73B50500BD
:104070008026002406236A461821FFF7EEFFAB7C5A
:104080000E4A9B009B583602AB6723006B4458785E
:104090006B461B5D0002184309F050FA09F02EFA36
:1040A0006300EB18304204D102345863062CECD183
:1040B00073BDC04380B2C043F6E7C04698010020FC
:1040C0001FB50F2401236C440A00817A009323005A
:1040D000FFF73CFF207804B010BD10B52721FFF793
:1040E000EFFF8007C00F10BD13B50C000093C17E19
:1040F00013002200FFF72AFF13BD000073B505006F
:104100008026002406236A462821FFF7EDFFEB7F77
:104110000E4A9B009B583602EB6723006B4458788D
:104120006B461B5D0002184309F008FA09F0E6F936
:104130006300EB18304204D102341864062CECD131
:1041400073BDC04380B2C043F6E7C046A40100205F
:104150001FB50F2401236C440A00C17E0093230085
:10416000FFF7F4FE207804B010BD10B52721FFF74B
:10417000EFFF0007C00F10BD10B50400FFF75FFF91
:10418000002802D02000FFF70FFF2000FFF7A5FF57
:10419000002802D02000FFF769FF2000FFF7E5FFAD
:1041A000002802D02000FFF7A9FF2000FFF74EFFF4
:1041B000002802D02000FFF71DFF10BD10B504003D
:1041C00040680BF051F9200010BD000070B5174D8C
:1041D000174C2A782000002103F044FE6A78200062
:1041E000012103F03FFEAA782000022103F03AFEED
:1041F0002A792000032103F035FEAA79200004214A
:1042000003F030FEEA792000052103F02BFE2A7A24
:104210002000062103F026FE6A7A0721200003F021
:1042200021FE200003F02EFE70BDC046D0110020FC
:10423000A516002010B500210948FFF775F80222E5
:10424000084B1A705A70962292005A802D3AFF3A03
:104250009A800222FF32DA80034A1A8110BDC046DA
:10426000B0060020D01100200107000010B50400A6
:1042700001210A2005F092FC21000A2005F0BEFC75
:10428000642005F051FA10BD00230D4810B500223E
:104290000360436083600023026143610023094A95
:1042A0000949C261094A8361036207F0E7FC0222FF
:1042B000074BFF32DA80013AFF3A1A8110BDC0463F
:1042C000A811002000007F44BD4100000000002034
:1042D000D011002070B5104C104D2000290005F0C1
:1042E0008CFD0A21200006F0EFFB2800FEF78AF97A
:1042F000C8210022C9000A4804F024FF094D20000B
:10430000290005F07AFD0A21200006F0DDFB2800D7
:10431000FEF778F970BDC046782200204E380100C3
:10432000F41C00206338010070B51E4C200003F01F
:104330009DFD002835D00021200003F073FD1A4DAB
:1043400001212870200003F06DFD0221687020001B
:1043500003F068FD03216880200003F063FD042161
:10436000A880200003F05EFD0521A871200003F065
:1043700059FD0621E871200003F054FD0721287241
:10438000200003F04FFD094C6872094D2100280000
:1043900005F033FD0A21280006F096FB2000FEF709
:1043A00031F970BDA5160020D0110020963701000C
:1043B0007822002070B5174C174D2100280005F019
:1043C0001CFD2000FEF702F9144C0A226178280037
:1043D00005F07BFD0A21280006F076FB6078FEF7E9
:1043E00019F960780138042807D807F0E7FF0307B8
:1043F0000B060F000A48FEF787FA70BD0948FEF762
:1044000004FBFAE70748FEF704FBF6E70648FFF768
:10441000D1FAF2E73938010078220020D0110020CB
:10442000B8050020E0050020D010002070B5FFF78F
:104430007BFF114B114C5B7A072B0FD0104D2000E6
:10444000290005F0DAFC0A21200006F03DFB2800D7
:10445000FEF7D8F8FFF7EEFEFFF7B8FE094D200093
:10446000290005F0CAFC0A21200006F02DFB2800D7
:10447000FEF7C8F870BDC046D01100207822002099
:10448000CC360100F6360100F7B53C4F3B78013BD6
:10449000012B03D902233B70FFF798FE384D394CAE
:1044A0002900200005F0A9FC0A21200006F00CFBE1
:1044B0002800FEF7A7F83B78012B44D10025FF2206
:1044C00000950D331100304804F0A0F9FF220F23AE
:1044D000110000952D4804F099F9FF2210231100D6
:1044E00000952B4804F092F9FF220095112311004A
:1044F000284804F08BF90026D8256D007543224B1F
:104500005D19280003F0A6FF002828D104212248C5
:10451000FEF7ECFF214D2000290005F06EFC0A217A
:10452000200006F0D1FA2800FEF76CF81C4D2000A0
:10453000290005F062FC0A21200006F0C5FA2800D7
:10454000FEF760F8F7BD022BD5D1FF22013B0093A7
:1045500011000D330C4804F059F90025B6E7F9793C
:1045600028004B1E9941C9B204F07BF9013628009E
:1045700004F05AF8042EBFD1D8E7C046D01100206D
:10458000B937010078220020B0080020600A00201E
:10459000100C0020C00D0020B0060020CE37010016
:1045A000EB370100E121F8B53F4C4902200006F04D
:1045B00023FBFEF74BF83D49200005F039FC3C4F4A
:1045C000002238003B4903F05FFBFA21002238004B
:1045D000090103F059FB05003749200005F00DFCE7
:1045E0000A222900200005F070FC3449200005F063
:1045F0001FFC200005F00AFC314803F05FFD02F0CB
:1046000095FA304D2800FEF7E3FF2800FFF726F863
:1046100002212800FEF76AFFFFF708FFFFF75AFEA6
:10462000FFF732FF00F0C8FA274E3000FFF7A2F87C
:1046300030000021FFF7CEF801213000FFF714F918
:104640003000FFF73BF92148FEF734FBFFF7B2FEDD
:104650001F4E2000310005F0D0FB0A21200006F09B
:1046600033FA3000FDF7CEFF1A4E2000310005F07E
:10467000C4FB0A21200006F027FA3000FDF7C2FF34
:1046800002212800FEF7B0FF380003F0B9FA124DFE
:104690002000290005F0B1FB0A21200006F014FAE1
:1046A0002800FDF7AFFFF8BD782200201037010089
:1046B000A41600208813000025370100513701009F
:1046C000C01A0020B0060020700F0020E005002076
:1046D000603701006C3701007F370100F0B585B00D
:1046E00001AD2A003F4B404E13CB13C23F4C31006B
:1046F000200005F082FB3000FDF768FF0A2202214E
:10470000200005F0E2FB0A21200006F0DDF902207E
:10471000FDF780FF364E2000310005F06EFB3000C3
:10472000FDF754FF0A220121200005F0CEFB0120F5
:10473000FDF754FF2F4E2000310005F05EFB3000E6
:10474000FDF744FF0A220121200005F0BEFB0120F5
:10475000FDF744FF3100200005F04FFB30004226FA
:10476000FDF734FF0A220021200005F0AEFB0A21EC
:10477000200006F0A9F90020FDF74CFF1E4F310084
:10478000200006F0A1F901373000FDF74DFF7B1E38
:104790001E78002EF3D10A21200006F095F90A2098
:1047A000FDF742FF154F48363100200006F08CF926
:1047B00001373000FDF738FF7B1E1E78002EF3D145
:1047C0000F4E200033789B00E95805F016FB0A21B4
:1047D000200006F079F933789B00E858FDF712FFC6
:1047E00005B0F0BDC0360100FF370100782200207F
:1047F0000838010061380100183801003338010021
:10480000D0110020F8B5AB23070004009B006C37E3
:10481000C5180F4EAF420BD0483D2800AE6338306C
:1048200004F00AFC28002E62203004F005FCF0E7BA
:104830002000E6655C3004F0FFFB20006664443035
:1048400004F0FAFB2000FDF7ADFC2000F8BDC046E7
:10485000644A010070B50025040045608560C560AC
:10486000056145610576C561203004F0DDFB01235B
:104870002000054E656326622386383004F0D4FBA1
:10488000A663200070BDC046644A010070B50400F4
:10489000522303220121FDF7EBFD00232000636179
:1048A0002430FFF7D7FFAB2325009B006C35E618BB
:1048B00028004835FFF7CEFFAE42F9D1AB220023E6
:1048C0009200A3500122611C2376CA77FE2189053C
:1048D000E161611DCB77FA218900A16321003C31A0
:1048E000A362236320000A7023640A83A36570BD5A
:1048F000F7B500230700451C04000191EB77461D26
:104900003C379A4238D0027E483353431A00C318CA
:104910006C3282181800F17F6C300170A16A181D8A
:104920001967E16A5967216B9967616BD967A16B58
:10493000C167397880300170216C41602000A16C22
:1049400044305162E16C9162017B10002C300170A7
:1049500054218C46A4446146180009889C3001808B
:10496000A16DA0331960236E38325360636E93607B
:1049700023005C33187B10734820019B58430200CE
:10498000AB236C32A2189B00E2509C4623181900FE
:104990006C310978F177196FA162596FE162996FF3
:1049A0002163D96F6163191DC96FA1631900843137
:1049B000097839701900883109682164516AA16445
:1049C000916AE16411002C310E78210044310E739C
:1049D00019009C310E88210054310E80A0331968D3
:1049E000D36BA1652366136C6366130038331E7B9B
:1049F00023005C331E736646002903D0A4302018C0
:104A000004F01BFB1F20A2595169CB1703405B1810
:104A10005B11D361012313861376EB77F7BDAB23CC
:104A20009B0070B50400C05800284AD0631D02786E
:104A3000DB7F9A421BD14368A26A934217D18368F5
:104A4000E26A934213D1C368226B93420FD1036988
:104A5000626B93420BD14369A26B934207D1C36946
:104A6000226C934203D1436BA26D934229D0002361
:104A7000651CEB77383004F0FCFA002809D0AB262F
:104A8000B600A059383004F003FBA3595A6B101A32
:104A90005863AB26B600A059203004F0EAFA00288B
:104AA00003D0A059203004F0F3FA0123EB77237EE2
:104AB000062B01D801332376217E01222000FFF747
:104AC00017FF70BD037E10B5002B01D0013B0376AC
:104AD000017E0022FFF70CFF10BD436910B599B2AB
:104AE0000400FDF712FDAB239B00E3589A68904247
:104AF00007D06369200099B2FDF7D0FC2000FDF7D4
:104B0000A5FB10BDF8B5C56988780E0008F016FD44
:104B1000291C08F0FDF907F053FEC7B2707808F0C1
:104B20000DFD291C08F0F4F907F04AFEC4B23078F4
:104B300008F004FD291C08F0EBF907F041FE3F04E2
:104B400024023C43C0B22043F8BD000010B504006D
:104B5000080008F03DFD0E4908F002F82100E06170
:104B600028312000FFF7CEFF2100E0623031200025
:104B7000FFF7C8FF60632000FFF751FF0021E069E5
:104B800007F0F0FD002802D02000FFF7A6FF10BDBF
:104B90000000C84210B5054C2000FFF777FE044A1C
:104BA0000449200007F06AF810BDC046DC1100205F
:104BB00000000020054800004122414B30B51A702A
:104BC000383ADA603F4A44241A6143221A751A00BF
:104BD000283214703C4A02349A631A003C32147032
:104BE00004229A64394A0121DA641A0064185032A6
:104BF00014700622DA65364A64181A661A0018001C
:104C000064321470032208301A67C2671A003148F0
:104C1000883210601A004F208C3210701A009832BF
:104C200011601A004018A03210701A002A4CAC32E1
:104C300014305C6710601C001A004D257834B432C3
:104C4000123825701962596310701A00C032116051
:104C50001A002248C43210601A005320C832107063
:104C60001A00AC30D43210601A00AB38DC3210704D
:104C70001A001B48E83210601A001A48EC32106023
:104C80001A005520F03210701A008020FC32C0004B
:104C900010601548582450601800FF304471134CC0
:104CA000516194612324447611481C34D0629620CB
:104CB00040001C540F4B9162D163136430BDC04659
:104CC000D0140020B15E0000754E0000A16100000C
:104CD000B1630000C1650000B94E0000DD5A00005C
:104CE00088130000B94F000029670000355000000C
:104CF0007D670000795100000300203BDBB21F2BD1
:104D000005D8074ADA4001231900914306D0002351
:104D100039224138C0B282425B41DBB21800704791
:104D20000910FF8310B50C00010004480BF02EFAA7
:104D30002060431E9841C0B210BDC0468D140020B3
:104D4000030010B55B780130303B092B05D80021FA
:104D50000CF094F80AF078F910BD01204042FBE70E
:104D600070B501260D4D0E4C4535FF357642237941
:104D7000002B0ED0236830005A1C03DBA068984239
:104D800000DD1800E3682060002B02D09847002364
:104D900023711434AC42EAD170BDC046D014002057
:104DA000D41400201FB50422694601F0F1FE00284A
:104DB0000FD00099084803F073FB0199074803F0EE
:104DC0006FFB0299064803F06BFB0399054803F05B
:104DD00067FB05B000BDC046B0080020600A002097
:104DE000100C0020C00D0020F7B5002510260195FD
:104DF000142464427443144B01A9E4182300413382
:104E0000FF331878FFF78EFF071E0BD00198FFF7CE
:104E100097FF23004533FF33186001233D004934D9
:104E2000FF342370013E002EE2D1084C002D06D144
:104E3000074B5B78042B02D12000FFF7B3FF002360
:104E40002370FDF7BDFBF7BDD01400208D140020AA
:104E5000D01100200021054A054B4932FF3219705C
:104E6000996014339342FAD17047C046D0140020A1
:104E7000D814002070B544240C4D0D4E2100300094
:104E800005F022FE01352000FDF7CEFB6B1E1C78DD
:104E9000002CF2D10A21300005F016FE0A20FDF7A1
:104EA000C3FB0448FDF70AFD70BDC046593401003C
:104EB00078220020B8050020F7B5384B384C009315
:104EC000384B0193431C25D16A46374D20002B787F
:104ED000013B9B00995804F090FF6A462B782025EF
:104EE000013B9B009858FDF771FB304E29002000D4
:104EF00005F0EAFD01362800FDF796FB731E1D78CC
:104F0000002DF3D10A21200005F0DEFD0A20FDF777
:104F10008BFBF7BD431E012B31D84E26224D287046
:104F2000FFF754F9224F3100200005F0CDFD013785
:104F30003000FDF779FB7B1E1E78002EF3D1FFF7C2
:104F4000A3FA6A462B782000013B9B00995804F095
:104F500054FF6A462B782025013B9B009858FDF7AB
:104F600035FB124E2900200005F0AEFD0136280069
:104F7000FDF75AFB731E1D78002DF3D1C2E74825BB
:104F80000C4E2900200005F09FFD01362800FDF79A
:104F90004BFB731E1D78002DF3D1B3E77838010069
:104FA000782200207E380100D01100207A3A0100DA
:104FB000803A0100953A010070B5431C03D0194BAB
:104FC0009880FFF703F94825174E184C2900200058
:104FD00005F07AFD01362800FDF726FB731E1D78CB
:104FE000002DF2D10F4D0A22A988200004F06DFF98
:104FF000A8886D25FDF7F2FA0D4E2900200005F076
:1050000063FD01362800FDF70FFB731E1D78002D90
:10501000F3D10A21200005F057FD0A20FDF704FB1B
:1050200070BDC046D0110020E93801007822002070
:10503000F638010070B51148FDF7E3FC0022452465
:105040000F4B5A70FFF7C2F80E48FDF79EFB0E4D4E
:105050000E4E2100300005F037FD01352000FDF730
:10506000E3FA6B1E1C78002CF2D10A21300005F007
:105070002BFD0A20FDF7D8FA70BDC046E0050020E0
:10508000D0110020B8050020DA3801007822002075
:1050900070B5324B324C58780138042819D807F0D3
:1050A0008DF903202F3E4D0041252E4E2900200072
:1050B00005F00AFD01362800FDF7B6FA731E1D78CB
:1050C000002DF3D10A21200005F0FEFC0A20FDF797
:1050D000ABFA0A21200005F0F7FC0A20FDF7A4FA3C
:1050E00070BD5325204E2900200005F0EDFC01364F
:1050F0002800FDF799FA731E1D78002DF3D1E1E722
:1051000050251A4E2900200005F0DEFC013628004B
:10511000FDF78AFA731E1D78002DF3D1D2E74325DF
:10512000134E2900200005F0CFFC01362800FDF7C2
:105130007BFA731E1D78002DF3D1C3E748250D4E71
:105140002900200005F0C0FC01362800FDF76CFAAC
:10515000731E1D78002DF3D1B4E7C046D011002096
:1051600078220020F9380100243901005639010065
:105170008E390100B6390100F7B52025FFF7AEFAE8
:10518000E34C0A21200005F09FFC0A20FDF74CFAB1
:10519000E04E2900200005F097FC01362800FDF7BD
:1051A00043FA731E1D78002DF3D10A21200005F06B
:1051B0008BFC0A20FDF738FA5F263C3531002000D1
:1051C000013D05F081FCEDB23000FDF72DFA002D18
:1051D000F4D1D14B0A351E0000932900200005F0C0
:1051E00073FC01362800FDF71FFA731E1D78002D91
:1051F000F3D1CA4E47352900200005F065FC013681
:105200002800FDF711FA731E1D78002DF3D10A2135
:10521000200005F059FC0A20FDF706FAC04E433580
:1052200037002900200005F04FFC01372800FDF76A
:10523000FBF97B1E1D78002DF3D10A21200005F01B
:1052400043FC0A20FDF7F0F920274721200005F054
:105250003BFC4720FDF7E8F90A222900200004F072
:1052600034FE2800FDF7BAF9AE4B01933900200057
:1052700005F02AFC3800FDF7D7F9019B01330193B3
:10528000013B1F78002FF1D12021200005F01CFCEC
:105290002020FDF7C9F9A44F29003800FEF7B1FA24
:1052A0000100200004F0A9FD29003800FEF7A9FA4A
:1052B000FDF78CF90A21200005F006FC01350A20D3
:1052C000FDF7B2F9062DBFD10A21200005F0FCFB45
:1052D0000A20FDF7A9F9954F40352900200005F077
:1052E000F3FB01372800FDF79FF97B1E1D78002D89
:1052F000F3D10A21200005F0E7FB0A20FDF794F91D
:10530000370043352900200005F0DEFB0137280077
:10531000FDF78AF97B1E1D78002DF3D10A212000AC
:1053200005F0D2FB0A20FDF77FF9814F46352900B1
:10533000200005F0C9FB01372800FDF775F97B1E39
:105340001D78002DF3D10A21200005F0BDFB0A20B5
:10535000FDF76AF9774F46352900200005F0B4FBC8
:1053600001372800FDF760F97B1E1D78002DF3D171
:105370000A21200005F0A8FB0A20FDF755F96E4F21
:1053800046352900200005F09FFB01372800FDF776
:105390004BF97B1E1D78002DF3D10A21200005F06A
:1053A00093FB0A20FDF740F90A21200005F08CFB51
:1053B0000A20FDF739F9614F4D352900200005F02D
:1053C00083FB01372800FDF72FF97B1E1D78002D88
:1053D000F3D10A21200005F077FB0A20FDF724F91C
:1053E000370043352900200005F06EFB0137280007
:1053F000FDF71AF97B1E1D78002DF3D10A2120003C
:1054000005F062FB0A20FDF70FF94D4F4D352900DD
:10541000200005F059FB01372800FDF705F97B1E38
:105420001D78002DF3D10A21200005F04DFB0A2044
:10543000FDF7FAF8434F4D35354C2900200005F0B3
:1054400043FB01372800FDF7EFF87B1E1D78002D88
:10545000F2D10A21200005F037FB0A20FDF7E4F81D
:10546000394F4D352900200005F02EFB013728006B
:10547000FDF7DAF87B1E1D78002DF3D10A212000FC
:1054800005F022FB0A20FDF7CFF8304F4D352900FB
:10549000200005F019FB01372800FDF7C5F87B1E39
:1054A0001D78002DF3D10A21200005F00DFB0A2004
:1054B000FDF7BAF8264F4D352900200005F004FB12
:1054C00001372800FDF7B0F87B1E1D78002DF3D1C1
:1054D0000A21200005F0F8FA0A20FDF7A5F81D4F73
:1054E00054352900200005F0EFFA01372800FDF7B8
:1054F0009BF87B1E1D78002DF3D10A21200005F0BA
:10550000E3FA0A20FDF790F8134F553526E0C04620
:1055100078220020E63B0100173C01001A3C010004
:10552000303C0100483C0100700F0020523C01005B
:10553000703C0100AA3C0100DA3C0100083D01007A
:10554000243D0100433D01006A3D0100913D010001
:10555000CE3D01000D3E0100313E0100290020003A
:1055600005F0B2FA01372800FDF75EF87B1E1D78C2
:10557000002DF3D10A21200005F0A6FA0A20FDF73C
:1055800053F80A21200005F09FFA0A20FDF74CF895
:10559000DD4F41352900200005F096FA013728003B
:1055A000FDF742F87B1E1D78002DF3D10A21200063
:1055B00005F08AFA0A20FDF737F843352900200064
:1055C00005F082FA01362800FDF72EF8731E1D78CB
:1055D000002DF3D10A21200005F076FA0A20FDF70C
:1055E00023F8CA4E48352900200005F06DFA01362F
:1055F0002800FDF719F8731E1D78002DF3D10A213C
:10560000200005F061FA0A20FDF70EF8C04E48357B
:105610002900200005F058FA01362800FDF704F8AB
:10562000731E1D78002DF3D10A21200005F04CFADD
:105630000A20FCF7F9FFB74E48352900200005F095
:1056400043FA01362800FCF7EFFF731E1D78002D8A
:10565000F3D10A21200005F037FA0A20FCF7E4FF15
:10566000AD4E41352900200005F02EFA0136280004
:10567000FCF7DAFF731E1D78002DF3D10A212000FC
:1056800005F022FA0A20FCF7CFFFA44E413529008D
:10569000200005F019FA01362800FCF7C5FF731E3B
:1056A0001D78002DF3D10A21200005F00DFA0A2003
:1056B000FCF7BAFF9A4E41352900200005F004FAA4
:1056C00001362800FCF7B0FF731E1D78002DF3D1C2
:1056D0000A21200005F0F8F90A20FCF7A5FF914EF9
:1056E00041352900200005F0EFF901362800FCF7CC
:1056F0009BFF731E1D78002DF3D10A21200005F0B9
:10570000E3F90A20FCF790FF874E4135290020007D
:1057100005F0DAF901362800FCF786FF731E1D78C4
:10572000002DF3D10A21200005F0CEF90A20FCF764
:105730007BFF7E4E41357E4C2900200005F0C4F9E8
:1057400001362800FCF770FF731E1D78002DF2D182
:105750000A21200005F0B8F90A20FCF765FF754E14
:1057600041352900200005F0AFF901362800FCF78B
:105770005BFF731E1D78002DF3D10A21200005F078
:10578000A3F90A20FCF750FF6B4E41352900200099
:1057900005F09AF901362800FCF746FF731E1D78C4
:1057A000002DF3D10A21200005F08EF90A20FCF724
:1057B0003BFF624E41352900200005F085F9013696
:1057C0002800FCF731FF731E1D78002DF3D10A214C
:1057D000200005F079F90A20FCF726FF584E233502
:1057E0002900200005F070F901362800FCF71CFFA5
:1057F000731E1D78002DF3D10A21200005F064F9F5
:105800000A20FCF711FF4F4E3F352900200005F01C
:105810005BF901362800FCF707FF731E1D78002D89
:10582000F3D10A21200005F04FF90A20FCF7FCFE15
:105830000A21200005F048F90A20FCF7F5FE009E39
:105840000A352900200005F03FF901362800FCF751
:10585000EBFE731E1D78002DF3D13B4E453529001C
:10586000200005F031F901362800FCF7DDFE731E3B
:105870001D78002DF3D10A21200005F025F90A201A
:10588000FCF7D2FE314E48352900200005F01CF906
:1058900001362800FCF7C8FE731E1D78002DF3D1D9
:1058A0000A21200005F010F90A20FCF7BDFE284E61
:1058B00047352900200005F007F901362800FCF7DC
:1058C000B3FE731E1D78002DF3D10A21200005F0D0
:1058D000FBF80A20FCF7A8FE1E4E473529002000E1
:1058E00005F0F2F801362800FCF79EFE731E1D78C5
:1058F000002DF3D10A21200005F0E6F80A20FCF77C
:1059000093FE154E463529E0623E0100803E0100BF
:10591000B43E0100D53E0100F53E0100253F0100E7
:105920005E3F0100953F0100B73F0100EA3F0100E3
:1059300078220020204001005C4001009E400100D0
:10594000BD400100E44001000D410100164101008D
:105950004B41010066410100824101002900200005
:1059600005F0B2F801362800FCF75EFE731E1D78C4
:10597000002DF3D10A21200005F0A6F80A20FCF73B
:1059800053FE4E4E46352900200005F09DF80136A5
:105990002800FCF749FE731E1D78002DF3D10A2163
:1059A000200005F091F80A20FCF73EFE444E4635F3
:1059B0002900200005F088F801362800FCF734FEA5
:1059C000731E1D78002DF3D10A21200005F07CF80C
:1059D0000A20FCF729FE3B4E46352900200005F041
:1059E00073F801362800FCF71FFE731E1D78002D8A
:1059F000F3D10A21200005F067F80A20FCF714FE15
:105A0000314E46352900200005F05EF801362800A9
:105A1000FCF70AFE731E1D78002DF3D10A21200029
:105A200005F052F80A20FCF7FFFD284E4135284CBE
:105A30002900200005F048F801362800FCF7F4FDA5
:105A4000731E1D78002DF2D10A21200005F03CF8CC
:105A50000A20FCF7E9FD0A352900200005F034F89A
:105A60002800FCF7E1FD009B01330093013B1D780A
:105A7000002DF1D1174BDB79002B14D1164E4D358B
:105A80002900200005F020F801362800FCF7CCFDA5
:105A9000731E1D78002DF3D10A21200005F014F8A3
:105AA0000A20FCF7C1FDFFF7F3FA0A21200005F0F8
:105AB0000BF80A20FCF7B8FDF7BDC046994101007C
:105AC000C9410100EA4101001F42010043420100B7
:105AD00078220020D01100206842010070B55224C5
:105AE0000D4D0E4E2100300004F0EEFF0135200078
:105AF000FCF79AFD6B1E1C78002CF2D10A213000B5
:105B000004F0E2FF0A20FCF78FFDFEF793FB200074
:105B1000FFF732FB70BDC046023B01007822002037
:105B200010B5124894B002F003FD0090104802F046
:105B3000FFFC01900F4802F0FBFC02900E4802F0BF
:105B4000F7FC04AA03900421684601F008F80B4C06
:105B500004A9200004F051F90A21200004F0B4FF48
:105B600004A8FCF74FFD14B010BDC046B0080020DB
:105B7000600A0020100C0020C00D002078220020B8
:105B8000F7B528260A25122003F094FF280003F019
:105B9000CBFD122003F08EFF0700280003F0C4FDA8
:105BA000132003F087FF280003F0BEFD132003F04D
:105BB00081FF184C2A0039000190200004F085F97B
:105BC0003800FCF70BFD144F2000390004F015F9E4
:105BD0003800FCF7FBFC2A000199200004F075F95D
:105BE0002900200004F070FF0198FCF713FD013E2E
:105BF000642003F099FD002EC5D1084D2000290036
:105C000004F0FBF80A21200004F05EFF2800FCF7F6
:105C1000F9FCF7BD78220020003A0100BD340100F4
:105C200070B50D4D0D4C2800210004F0E6F80A2156
:105C3000280004F049FF2000FCF7E4FC084802F0CB
:105C400004FE084802F001FE074802F0FEFD074886
:105C500002F0FBFD70BDC04678220020C53801006F
:105C6000B0080020600A0020100C0020C00D0020A9
:105C70000023F0B50A2685B00393814C814D2000A6
:105C8000290004F0BAF82800FCF7A0FC32000399C0
:105C9000200004F01AF93100200004F015FF0398E9
:105CA000FCF7B8FC784D2000290004F0A6F8280085
:105CB000D825FCF78BFC039B6D005D43734BED18FF
:105CC000280002F0A9FC32000100200004F017F9BE
:105CD0003100200004F0F8FE280002F09DFCFCF7E3
:105CE00099FC6B4F2000390004F087F83800FCF76E
:105CF0006DFC280002F0ACFE09F048FA0B0002210E
:105D000002000091200004F0B5F93100200004F0F9
:105D1000DBFE280002F09CFE07F0F0FBFCF77AFCAB
:105D20005C4F2000390004F068F83800FCF74EFCA6
:105D3000280002F074FD09F029FA0B00022102008C
:105D40000091200004F096F93100200004F0BCFE20
:105D5000280002F064FD07F0D1FBFCF75BFC4E4F1E
:105D60002000390004F049F83800FCF72FFC280027
:105D700002F0DEFB32000100200004F0A6F8310042
:105D8000200004F0A1FE280002F0D2FBFCF742FC48
:105D9000424F2000390004F030F83800FCF716FCC0
:105DA000280002F0F1FB32000100200004F08DF821
:105DB0003100200004F088FE280002F0E5FBFCF72B
:105DC00029FC374F2000390004F017F83800FCF7A1
:105DD000FDFB280002F0D0FB32000100200004F09F
:105DE00074F83100200004F06FFE280002F0C4FBBC
:105DF000FCF710FC2B4F2000390003F0FEFF3800A9
:105E0000FCF7E4FB280002F011FD32000100200045
:105E100004F05BF83100200004F056FE280002F088
:105E200005FDFCF7F7FB204F2000390003F0E5FFEC
:105E30003800FCF7CBFB280002F0FFFC3200010029
:105E4000200004F042F83100200004F03DFE28005C
:105E500002F0F3FCFCF7DEFB144D2000290003F0F8
:105E6000CCFF3100200004F02FFE2800FCF7CAFB15
:105E7000039B01330393042B00D0FEE605B0F0BD75
:105E800078220020EA390100F4390100B00800202E
:105E9000FB390100043A0100143A01001B3A0100E9
:105EA000293A0100363A01003D3A01004B3A01001F
:105EB000F0B5AB4DAB4CAC4FAC4E87B002950394F4
:105EC00004970596092800D932E106F081FA0A0004
:105ED0003B006A008F00C200F300250128012B015E
:105EE0002E01A34CA3486378012B26D100236370B5
:105EF000FCF74BFC4425FEF769F99F4F9F4E2900A4
:105F0000300004F0E1FD01372800FCF78DFB7B1E1B
:105F10001D78002DF2D1637802AA9B0099583000B9
:105F200003F06BFF0A21300004F0CEFD637802AA73
:105F30009B009858FCF766FB31E001236370FCF787
:105F400027FCD7E78A4D53242B7A5A4253412B72B0
:105F5000FEF73CF98A4F894E2100300004F0B4FD71
:105F600001372000FCF760FB7B1E1C78002CF2D16F
:105F70002B7A02AA9B009958300003F03EFF0A21B9
:105F8000300004F0A1FD2B7A02AA9B009858FCF780
:105F900039FB2B7A002B02D02000FFF7EDF807B079
:105FA000F0BD734C5725A3795A425341A371FEF7B4
:105FB0000DF9744F714E2900300004F085FD013752
:105FC0002800FCF731FB7B1E1D78002DF2D1A37950
:105FD00004AD9B005959300003F00FFF0A21300037
:105FE00004F072FDA3799B005859A3E7604CD826B2
:105FF000E37900255A425341E371FEF7E7F8760052
:106000003000E17968434B1E99415F4BC9B2C0181B
:10601000013502F026FC042DF2D15C4F4935574E74
:106020002900300004F050FD01372800FCF7FCFA8D
:106030007B1E1D78002DF2D1E37904AD9B005959E8
:10604000300003F0DAFE0A21300004F03DFDE37970
:10605000C9E743254E4B0193484C2900200004F02A
:1060600033FD2800FCF7E0FA019B01330193013B6B
:106070001D78002DF0D13E4B5A78042A0ED13900FC
:1060800020005D7003F0B9FE0A21200004F01CFD21
:106090003800FCF7B7FAFEF799F880E704223100E0
:1060A00020005A7003F0A9FE0A21200004F00CFD24
:1060B0003000EEE74827374B0193304E390030006F
:1060C00004F002FD3800FCF7AFFA019B01330193A5
:1060D000013B1F78002FF0D1254B2F485A78052A15
:1060E0000CD15F70FDF769FC2900300003F085FEDC
:1060F0000A21300004F0E8FC2800CAE705225A70A3
:10610000FDF758FC2100300003F077FE0A21300033
:1061100004F0DAFC2000BCE7FFF702FD3FE7FFF7E1
:106120002FFD3CE7FFF77CFD39E7FFF7A1FD36E7E0
:1061300041241A4D114E2100300004F0C5FC0135F8
:106140002000FCF771FA6B1E1C78002CF2D10A219A
:10615000300004F0B9FC0A20FCF766FA1FE7C046DD
:106160003E3D0100663D0100954201009E42010056
:10617000D0110020B8050020183B01007822002033
:10618000233B0100383B0100B0080020493B0100DF
:10619000513B01005B3B0100D0100020683B010037
:1061A000F0B5774B87B00493764B02900593764D0C
:1061B000042816D94624754E2100280004F084FCDA
:1061C00001362000FCF730FA731E1C78002CF3D146
:1061D0000A21280004F078FC0A20FCF725FA07B011
:1061E000F0BDD824029B64005C43694BE418694B02
:1061F0001F001E7FA437002E00D18FE00021200059
:1062000002F0E2F964233B600023624A1377614B9A
:106210001E00D0363278002A06D0CC331968200010
:1062200002F00FFA0023337046265B4F310028003E
:1062300004F04AFC01373000FCF7F6F97B1E1E78AB
:10624000002EF3D10A220299280003F03EFE0A2113
:10625000280004F039FC0298FCF7DCF94F4F4D366A
:106260003100280004F030FC01373000FCF7DCF985
:106270007B1E1E78002EF3D1200002F0CDF904AE73
:1062800080008159280003F0B8FD0A21280004F09D
:106290001BFC200002F0C0F9800080595426FCF756
:1062A000B1F93F4F3100280004F00EFC01373000F7
:1062B000FCF7BAF97B1E1E78002EF3D1354E0A2268
:1062C000A4363168280003F000FE0A21280004F0FB
:1062D000FBFB30685426FCF79DF9324F3100280053
:1062E00004F0F2FB01373000FCF79EF97B1E1E78AC
:1062F000002EF3D1200002F0A0FA0A2201002800AB
:1063000003F0E3FD0A21280004F0DEFB200002F088
:1063100094FAFCF77FF9FEF7BBFE60E7224B1B788F
:106320000393002B07D00121200002F04DF91E4BF2
:106330003E601E706BE7174EA8363378002B0FD0E7
:106340001A4B6422009303994B23386804F0ACFB8A
:106350000100200002F0A4F86B461B7B337056E767
:10636000200002F059F941424141200002F02CF98D
:10637000200002F051F964235843386047E7C046D3
:10638000934101007B41010078220020A93A0100DD
:10639000B0080020D0140020C13A0100CB3A01001F
:1063A000E03A0100F23A010064150020B603000053
:1063B000F0B5794B85B00293784B01000393784C8C
:1063C000052815DD4725774E2900200004F07CFBC9
:1063D00001362800FCF728F9731E1D78002DF3D133
:1063E0000A21200004F070FB0A20FCF71DF9ABE045
:1063F000431C00D1C0E06C4D2800FDF7EBF96B4F5A
:106400003B7F0193002B00D1A0E028000021FDF785
:106410002BFA0020387700903E00A8363378002B06
:1064200007D03B00A43319682800FDF712FA0023B7
:1064300033703E00D0363378002B07D03B00CC338E
:1064400019682800FDF72AFA002333704726280030
:10645000FDF734FA564F3100200004F035FB0137C8
:106460003000FCF7E1F87B1E1E78002EF3D12800E7
:10647000FDF7C3F90100200003F0BFFC0A21200052
:1064800004F022FB2800FDF7B8F9FCF7BBF8494FF0
:1064900044363100200004F017FB01373000FCF7D0
:1064A000C3F87B1E1E78002EF3D1009B980002AB30
:1064B000C6582000310003F0A0FC0A21200004F09F
:1064C00003FB30005026FCF79DF83B4F31002000C5
:1064D00004F0FAFA01373000FCF7A6F87B1E1E78AC
:1064E000002EF3D12800FDF7BDF90A22010020009B
:1064F00003F0EBFC0A21200004F0E6FA2800FDF787
:10650000B1F9FCF787F82D4F53363100200004F025
:10651000DBFA01373000FCF787F87B1E1E78002E6F
:10652000F3D12800FDF7C5F90A220100200003F08D
:10653000CCFC0A21200004F0C7FA2800FDF7B9F9C5
:10654000FCF768F8FEF7A4FD05B0F0BD3E009436F8
:1065500033780093002B07D001212800FDF784F940
:106560006B461B79337057E72800FDF78EF9431E01
:106570009841C3B200934FE747250A4E29002000F7
:1065800004F0A2FA01362800FCF74EF8731E1D78BD
:10659000002DF3D124E7C0467B4101009341010067
:1065A000782200205C3A0100700F0020D0140020F7
:1065B000723A0100D43A0100E73A0100F93A0100C9
:1065C000F7B507004D254D4B4D4E00934D4B0193B4
:1065D0004D4C2900200004F077FA01362800FCF722
:1065E00023F8731E1D78002DF2D1032F00D975E01A
:1065F000380005F0E3FE0220374E4448FCF701FA6C
:1066000000224F25424B5A70FDF7E0FD414E290014
:10661000200004F059FA01362800FCF705F8731E33
:106620001D78002DF3D10A21200004F04DFA0A2034
:10663000FBF7FAFFF7BD3548FCF7E7F902225325CF
:10664000334B5A70FDF7C2FD334E2900200004F091
:106650003BFA01362800FBF7E7FF731E1D78002D7B
:10666000F3D1E0E72948FCF7D4F903225025284B61
:106670005A70FDF7ABFD294E2900200004F024FAE2
:1066800001362800FBF7D0FF731E1D78002DF3D1D3
:10669000C9E75025224E2900200004F015FA0136E2
:1066A0002800FBF7C1FF731E1D78002DF3D1174D95
:1066B0002800FCF79FF96B468000C158200003F0CA
:1066C0009CFB0A21200004F0FFF92800FCF792F956
:1066D0006B468000C058FBF795FFABE74E25114E87
:1066E0002900200004F0F0F901362800FBF79CFF98
:1066F000731E1D78002DF3D195E7C0469542010029
:10670000833B01009E42010078220020E00500202A
:10671000D01100203F3D0100B7420100C4420100FA
:10672000923B01009F3A010070B5431C03D0104B0F
:106730005880FDF74BFD50240E4E0F4D21002800D0
:1067400004F0C2F901362000FBF76EFF731E1C78BF
:10675000002CF2D1064C0A226188280003F0B5FB18
:106760000A21280004F0B0F96088FBF753FF70BDE0
:10677000D0110020D939010078220020F0B5202561
:10678000724B8BB00393724B05AA0493714B724EFC
:1067900013CB13C203CB03C2704C2900200004F0BA
:1067A00093F901362800FBF73FFF731E1D78002D7B
:1067B000F2D10A21200004F087F90A20FBF734FF08
:1067C0005F261C3531002000013D04F07DF9EDB25B
:1067D0003000FBF729FF002DF4D1614E0A35290066
:1067E000200004F071F901362800FBF71DFF731E2D
:1067F0001D78002DF3D1FDF771FF5A4E4F3529005A
:10680000200004F061F901362800FBF70DFF731E2C
:106810001D78002DF3D102F051FF00F0D5F90A21C7
:10682000200004F051F90A20FBF7FEFE4E4E5435CD
:106830003000FDF7A1FC4D4F2900200004F044F981
:1068400001372800FBF7F0FE7B1E1D78002DF3D1E9
:106850003000FDF759FB08F099FC0B000221020003
:106860000091200003F006FC3000FDF74DFB06F020
:1068700045FEFBF7B3FE3E4E27352900200004F00D
:1068800023F901362800FBF7CFFE731E1D78002D7B
:10689000F3D10A21200004F017F90A20FBF7C4FE07
:1068A000344E45352900200004F00EF90136280049
:1068B000FBF7BAFE731E1D78002DF3D101212E487F
:1068C000FCF708FE2D4E4D352900200004F0FCF8A1
:1068D00001362800FBF7A8FE731E1D78002DF3D1AA
:1068E00014266A46264D92196B7820009B00D158D9
:1068F00003F083FA0A21200004F0E6F86A466B7878
:1069000092199B00D058FBF77DFE1E4F393631009F
:10691000200004F0D9F801373000FBF785FE7B1E1C
:106920001E78002EF3D1EB7903AE9B00995920001D
:1069300003F063FA0A21200004F0C6F8EB799B000B
:106940009859FBF75FFE0BB0F0BDC04695420100C1
:106950009E42010084380100A23B01007822002001
:10696000173C0100BA3B010014110020C33B010099
:10697000CA3B0100CD3B0100B0060020D63B010020
:10698000D0110020DD3B0100F7B53E4D280004F09A
:10699000A5F8002807D0280004F0D0F8C4B2002CD5
:1069A00006D1002612E0384B384A1B78D45CF6E753
:1069B000354B1F780A2C01D00D2C09D10023344A05
:1069C000D3559F42EDD001262F4A13703000FEBDF3
:1069D0003F2F04D906212F48FCF788FDE1E720006E
:1069E000FEF78AF9061E05D0274A7B1C1370284B38
:1069F000DC55D6E75727284B01933900280004F0CF
:106A000063F83800FBF710FE019B01330193013B53
:106A10001F78002FF1D12100280003F0F2F92000A7
:106A2000FBF7DCFD1D4B273701933900280004F0EC
:106A30004BF83800FBF7F8FD019B01330193013B54
:106A40001F78002FF1D121001022280003F03DFA19
:106A5000200029241021FBF7CBFD114F2100280035
:106A600004F032F801372000FBF7DEFD7B1E1C78B6
:106A7000002CF3D10A21280004F026F80A20FBF7A5
:106A8000D3FDA3E7782200208C1400209D04002071
:106A90008D140020B006002099380100A5380100AF
:106AA000AB38010070B5FBF723FEFFF76DFF002840
:106AB0001BD00E4B5B78042B13D00D4C0A21200009
:106AC00004F002F80A20FBF7AFFD0A4D2000290070
:106AD00003F093F90A21200003F0F6FF2800FBF7EA
:106AE00091FDFEF781F9FEF73BF970BDD011002052
:106AF000782200208D140020FA21094B10B51A6865
:106B00008900501C186005F0DDFD002903D1054AFD
:106B10001368013313600448FCF78AFD10BDC046BA
:106B20001016002014160020B006002010B50248F0
:106B300002F0E6F910BDC046F96A00000123834364
:106B40001800704710B50123002806D008F0ECFAB1
:106B500005F038F908F078FA431C180010BDF8B5B4
:106B60000F00150004000026BE420DDA29000A229B
:106B7000206802F037FE01CCFFF7E4FF2C23281831
:106B8000451C03700136EFE700232B70F8BD0000B1
:106B9000F7B5002403780D001700A34210D0094E6A
:106BA00001AA31000AF0A9F9002809D008F000FC78
:106BB000013401C5BC4203DA01AA31000020F1E72B
:106BC0002000FEBDD4420100F7B5FA21890004007F
:106BD00005F008FC41490500200005F003FC404990
:106BE000C3B207002800009305F082FC0C00E121ED
:106BF0002000090105F0F6FBE121C3B206000901FE
:106C00002000009305F074FC0C003C21200005F0EE
:106C1000E9FB6B4600901B783C212000019305F0B6
:106C200067FC0D00092F06D830212E4803F04CFFD9
:106C30003020FBF7F9FC2B4C0A22F9B2200003F0BC
:106C40005EF93800FBF7CAFC3A21200003F03CFF54
:106C50003A20FBF7E9FC092E06D83021200003F08A
:106C600033FF3020FBF7E0FC0A22F1B2200003F0F2
:106C700046F93000FBF7B2FC3A21200003F024FF74
:106C80003A20FBF7D1FC009B092B06D830212000CD
:106C900003F01AFF3020FBF7C7FC0A2201992000FD
:106CA00003F02DF90098FBF799FC3A21200003F03E
:106CB0000BFF3A20FBF7B8FC092D06D83021200045
:106CC00003F002FF3020FBF7AFFC29000A2220006E
:106CD00003F009F92800FBF781FCF7BD005C2605ED
:106CE000805101007822002000207047704700008A
:106CF000FA2292008260044A00230260012243606B
:106D0000027443747047C046E0420100F7B50600C4
:106D10000F0000241D0008AB1B7800920193002D8A
:106D200019D0336830001B699847002827D0336892
:106D300030005B699847C0B20D28F2D00A2804D110
:106D4000002CEED0019B002B05D03855009B013460
:106D5000A4B2A342E5D800233B55737C002B0CD092
:106D6000002C0AD00A4D3900280003F046F8009B99
:106D7000A34202D9280003F049F82000FEBD013DDE
:106D8000ADB2002DE7D0012002F0CEFCC7E7C0462F
:106D90007822002010B5437C94B00400002B03D06F
:106DA0001149124803F025F80022A36800929BB213
:106DB000403203A92000FFF7A9FF002812D00C4998
:106DC00003A809F0F1F900280BD00A4903A809F03B
:106DD000EBF9002806D0200003A9123009F0EEF9E3
:106DE000E2E7012014B010BD00430100782200202A
:106DF000054301000843010037B5050000248368FE
:106E0000123529009BB200944022FFF77FFF21003A
:106E1000A04204D0220028000AF0F6F80100080081
:106E20003EBDF8B5050017000E00013F1ED33478B3
:106E30002B6821091B683022092900D907328918DB
:106E4000280098470F212B680C401B682131092C22
:106E500000D90731611828009847002F04D02B680B
:106E60002D211B68280098470136DEE704204042A8
:106E7000F8BD0000F7B504000F000025089E009241
:106E80000193009BAB4269D0EBB2002B03D13D21B3
:106E9000200002F0B6FF019A6B00D25AFF211300C6
:106EA0008B438021C9008B423CD011D880218900BE
:106EB0008B4230D0C022920093423AD080225200BE
:106EC00093420ED1AB00F158200002F096FF08E08B
:106ED000C022D200934233D00DD8013AFF3A9342F8
:106EE00036D0009B013B9D4203D02C21200002F0B4
:106EF00088FF0135C5E7E022D20093422BD0013252
:106F0000FF329342EDD1AB00F1580A22C9B2200002
:106F100002F0F5FFE5E7AB00D2B2F1582000FFF731
:106F200080FFDEE7AB000A22F158200002F0DBFF11
:106F3000D7E7AB000A22F158200002F0A7FFD0E704
:106F4000AB00F15889B20A22200002F0BEFFC8E768
:106F5000AB00F15EF7E7AB00F156F4E7200002F07A
:106F600055FF002F0AD0637C002B03D0054906484B
:106F700002F03FFF2000FFF73FFF38602000FFF7DF
:106F800009FFFEBD0043010078220020F0B585B066
:106F90000392057C04000F001E00002D03D103683E
:106FA0000121DB6998473900200002F026FF0B9B86
:106FB0003200009303990A9B2000FFF75BFF060055
:106FC000002D04D123682900DB6920009847300098
:106FD00005B0F0BDF0B585B00392057C04000F004C
:106FE0001E00002D03D103680121DB699847390099
:106FF000200002F0FEFE0B9B3200009303990A9BD7
:107000002000FFF737FF0600002D04D12368290078
:10701000DB6920009847300005B0F0BD07B50100DE
:1070200000228368123100929BB24032FFF76EFE5D
:107030000EBD000010B50400FFF75AFE064B2000FD
:107040002360FA23A36000236365A365E3652366D9
:107050006366A36610BDC0461843010070B5040006
:107060000E000B4902F0DAFE2000FFF793FE050048
:1070700002F024FB6065002E03D0FA20800002F0AD
:1070800053FB23682000DB689847280070BDC0468A
:10709000464301001FB5C02202AB92001A8003AA2A
:1070A000039101920093002201230249FFF792FF0E
:1070B00005B000BD5C4301001FB5002303AA019386
:1070C000009305490393FFF785FF0398431E9841FA
:1070D000C0B205B000BDC0463843010070B5067CA3
:1070E00004000D00002E03D103680121DB699847DD
:1070F0000C49200002F092FE2000FFF78FFF2000D5
:107100002900123009F050F8C5432000ED0FFFF7B9
:1071100041FE002E04D123683100DB69200098472E
:10712000280070BD564301000023012904D8027CC9
:1071300001338A4200D001741800704710B5C43082
:1071400000F08EFB10BD10B5040002F0B7FA236802
:107150006268C31A002093424041C0B210BD0000D3
:10716000F7B504000F0016001D00FFF763FF0F4B7B
:107170002100083323602000012383310093402243
:10718000C43000F061FB2300032253331A70220045
:107190005F769E76DD76FF236F32137053709370A7
:1071A00023000022823320001A70FEBD6C430100D0
:1071B00013B56B460122D91D3123047C121B0274C6
:1071C000C4301B1B04000B7000F04FFB0622024969
:1071D000200000F06FFB13BD60430100F7B5050010
:1071E000002301916F35EB560600013305D1164897
:1071F00000F058FC04002000FEBD072700240020FA
:107200000021285602F0FAFC01217020B940019BB0
:107210003056194002F0F2FC00200121285602F0FD
:10722000EDFC712064003056E4B202F013FD00283A
:1072300001D001231C43013FE1D200200021285648
:1072400002F0DCFCD7E7C0462016002070B506002F
:107250000C008D18AC4206D021783000FFF7BEFF3D
:1072600020700134F6E770BDF0B58BB0009310AB21
:107270001E78050001911700002E02D10368DB681B
:107280009847102305AC2370019B7F221B12A3702B
:107290006B461B7900996370E378114093430B436D
:1072A000E370009B102B00D000267F22F301E678CC
:1072B00016401E43E670002F07D0009B002B04D021
:1072C0001A00390006A808F0FAF82B006F33019372
:1072D0001B785BB2013304D1254B264806CB00F066
:1072E000B1FB2E0000206C363056002102F086FCE7
:1072F000AF6802F0E3F90497039021782800FFF7C4
:107300006DFFFE2813D103A8FFF71DFF071E0ED146
:1073100000200121305602F071FCC8239B00013B84
:10732000FDD100203900305602F068FCE5E703A8E3
:10733000FFF709FF01244440E4B2002C07D00D21DF
:10734000009A02AB0332C9182800FFF77FFF002024
:107350000121305602F052FC019B1B785BB20133D5
:1073600002D1044800F08AFB20000BB0F0BDC046FB
:10737000181600202016002007B5002202490092AE
:107380001300FFF771FF0EBDEFBE0000F8B54174AA
:1073900004006D20002120562500170002F0FEFB9E
:1073A00000206C352856012102F0F8FB0020012155
:1073B000285602F023FC002003352856431C2DD10B
:1073C000204800F017FB2000FFF7D6FF250006003D
:1073D00000206E352856002815DB012102F0DEFB67
:1073E00000200121285602F009FC00200021285627
:1073F00002F004FC0A2002F097F90020012128562F
:1074000002F0FCFB012602F059F96065002F03D061
:10741000FA20800002F088F93000F8BD012102F066
:10742000BDFB00200021285602F0E8FB712000215E
:10743000205602F0B3FB70200121205602F0AEFB73
:10744000C1E7C04620160020F0B5836885B05E0015
:1074500005000C0002F032F9039602906D202856C8
:1074600002F0F8FB061E06D102A8FFF76CFE00280A
:10747000F4D034005CE02B006F3301931B785BB2D7
:10748000013304D1404B414806CB00F0DBFA2E001B
:1074900000206C363056002102F0B0FBAF6802F0DD
:1074A0000DF90397029002A8FFF74DFE071E1CD1AD
:1074B000FF212800FFF792FE2070FE280ED1002049
:1074C0000121305602F09AFBC8239B00013BFDD1FD
:1074D00000203900305602F091FB01E0FF28EED089
:1074E00023780233DBB2012BDDD92378202B0CD09B
:1074F000802B0AD002A8FFF726FE002805D1FF2125
:107500002800FFF76BFE2070EFE702A8FFF71BFED5
:10751000002810D0002400200121305602F06EFB1C
:10752000019B1B785BB2013302D1184800F0A6FA28
:10753000200005B0F0BD671C0322FF21380007F0D2
:10754000C7FF032239002800FFF780FE6178A0788A
:1075500003F0B5FA2378802BDCD00D4BC01880B235
:107560000228D7D8E7787F067F0E102FD2D80434B0
:107570003A00FF21200007F0ABFF21003A0028006D
:10758000FFF764FE0124C6E718160020201600202D
:1075900000F6FFFFF0B5070087B03E00C436328921
:1075A000B3889B1A9BB20F2B1BD901AC142200216C
:1075B000200007F08DFF21003800FFF745FF051E72
:1075C0000CD07F23E2781A4205D05206520E02A94F
:1075D000300000F06FF9E3787F2BDED8280007B089
:1075E000F0BD0125FAE70000F0B50F2785B06F4424
:1075F0003970037C0400002B0BD100933A00013357
:107600002549FFF731FE2000FFF7C4FF012005B038
:10761000F0BD06003B78823635780D2B01D00A2B61
:1076200023D1002D0DD02700723703221B493800CB
:1076300007F036FF00280ED12000FFF7B9FD002328
:107640003370637C002BE1D00F236B44197814480E
:1076500002F0D7FBDAE70023A02100933A002B00C9
:1076600009012000FFF700FEE9E7102D0DD10123ED
:1076700000932B000500A02172352A000901FFF7B5
:10768000F3FD3B782B700123DAE76A1C451972354C
:1076900032702B70D5E7C046010A00006743010035
:1076A00078220020F0B5037C85B007000C0015009F
:1076B000002B0BD000258E18B4421BD03B682178DC
:1076C0001B683800984701342D18F5E7022A14D9B1
:1076D00003221849200007F0E3FE00280DD1032DF6
:1076E00005D0E3780D2B02D02E000A2B06D13800EE
:1076F000FFF75EFD280005B0F0BD2E00002E14D06F
:107700000396102E01D910230393039B3800F61A19
:1077100032006B46511E8A411B7B074900922200B2
:10772000FFF7A2FD039BE418E8E73800FFF732FFFC
:10773000E0E7C04667430100010A000037B50500D5
:10774000C4352B890400002B02D0288980B23EBDAD
:10775000027C002A08D1009213000649FFF784FD3D
:107760002000FFF717FFF0E76D20205602F072FAB5
:10777000EDE7C046020A00007FB506000F25C436BB
:10778000338904006D44002B06D02900300000F03E
:10779000A5F8287804B070BD027C002A08D10092B8
:1077A00013000B49FFF760FD2000FFF7F3FE05E033
:1077B0006D20205602F04EFA0028F5D12900300045
:1077C00000F08CF80028E4D101204042E2E7C046F6
:1077D000020A00007FB506000F25C4366D44040080
:1077E0002900300000F096F8002802D0287804B074
:1077F00070BD227C002A09D1009213000B492000A1
:10780000FFF732FD2000FFF7C5FE05E06D20205692
:1078100002F020FA0028F5D12900300000F07AF8B3
:107820000028E3D101204042E1E7C046020A0000FF
:10783000034B044A1A6000225A711A717047C046FD
:107840001816002000093D008371002310B502AC1A
:1078500024788381016043818280C471038110BDDB
:107860000023038143818381704770B50389828837
:1078700004009A4202D1C079002815D0A27960890B
:1078800023685043181807F01AFE6089A588013054
:10789000290004F017FF89B2618123899D4204D138
:1078A00063899BB2A381012070BD238901339BB200
:1078B0002381F8E7F8B507000D0016000024A64262
:1078C0000AD029003800FFF7D0FF002804D0BB7988
:1078D0000134A4B2ED18F2E72000F8BD10B50400A1
:1078E0000023228908009A4212D0A279A189236834
:1078F0005143591807F0E3FDA089A188013004F035
:10790000E1FE89B2A1812389013B9BB2238101233E
:10791000180010BD030000220800198910B591421B
:1079200007D09A799C8919685443091907F0C7FD53
:107930000122100010BD0000F0B5040085B01E004B
:107940000AAB1B78103001930BAB1B781700029326
:107950000CAB1B780D00039300F0F4F820002430EA
:1079600000F0F0F8220000234032A363E3631370B9
:1079700063729D4205D10A4B0A4A22210A4807F048
:10798000F9FC6B461B79200063716B461B7A2560FE
:10799000E3716B461B7B2771A671237205B0F0BDA6
:1079A0009443010008440100A5430100437A002BE1
:1079B00004D18372C372C36001334372704730B520
:1079C000040085B002AD00680291039202F046FC0B
:1079D0006B79227AE17900932068002302F0E8FDB8
:1079E0002979029A206802F05DFC206802F02CFCE4
:1079F00005B030BD70B518260400FFF7D7FF33007F
:107A0000082120790D4D4343EB18595602F03AF9FD
:107A100033000821A0794343EB18595602F032F99C
:107A2000082160794643AD19695602F02BF9044BE1
:107A3000200006CBFFF7C3FF70BDC046844A01009B
:107A40006416002007B5837A00910192002B07D0BD
:107A50009A070AD5EFF310835A425341C37272B6A4
:107A60000099019AFFF7ABFF07BDDB07F8D5C368A4
:107A7000014A9BB29360F3E700180040837A002B21
:107A800005D09A0704D5C37A002B00D062B67047A0
:107A9000DB07FCD5C368024A9BB2D360F7E7C04658
:107AA0000018004010B5006802F0E1FB10BD0000B6
:107AB0001FB5094A094B0A4913600023537113711A
:107AC00002930133019316330093162201330548C4
:107AD000FFF732FF05B000BD6416002000093D002D
